{
	"Ebrahiem/PLSTokenPriceFeed.sol": {
		"PLSTokenPriceFeed": {
			"abi": [
				{
					"inputs": [],
					"stateMutability": "nonpayable",
					"type": "constructor"
				},
				{
					"inputs": [],
					"name": "getPrice",
					"outputs": [
						{
							"internalType": "uint256",
							"name": "",
							"type": "uint256"
						}
					],
					"stateMutability": "view",
					"type": "function"
				},
				{
					"inputs": [
						{
							"internalType": "uint256",
							"name": "_newPriceInUSD",
							"type": "uint256"
						}
					],
					"name": "updatePrice",
					"outputs": [],
					"stateMutability": "nonpayable",
					"type": "function"
				}
			],
			"devdoc": {
				"kind": "dev",
				"methods": {},
				"version": 1
			},
			"evm": {
				"assembly": "    /* \"Ebrahiem/PLSTokenPriceFeed.sol\":60:718  contract PLSTokenPriceFeed {... */\n  mstore(0x40, 0x80)\n    /* \"Ebrahiem/PLSTokenPriceFeed.sol\":173:348  constructor() {... */\n  callvalue\n  dup1\n  iszero\n  tag_1\n  jumpi\n  0x00\n  dup1\n  revert\ntag_1:\n  pop\n    /* \"Ebrahiem/PLSTokenPriceFeed.sol\":211:227  1000000000000000 */\n  0x038d7ea4c68000\n    /* \"Ebrahiem/PLSTokenPriceFeed.sol\":198:208  priceInUSD */\n  0x00\n    /* \"Ebrahiem/PLSTokenPriceFeed.sol\":198:227  priceInUSD = 1000000000000000 */\n  dup2\n  swap1\n  sstore\n  pop\n    /* \"Ebrahiem/PLSTokenPriceFeed.sol\":298:340  0xb9B2c57e5428e31FFa21B302aEd689f4CA2447fE */\n  0xb9b2c57e5428e31ffa21b302aed689f4ca2447fe\n    /* \"Ebrahiem/PLSTokenPriceFeed.sol\":272:295  BackendOperationAddress */\n  0x01\n  0x00\n    /* \"Ebrahiem/PLSTokenPriceFeed.sol\":272:340  BackendOperationAddress = 0xb9B2c57e5428e31FFa21B302aEd689f4CA2447fE */\n  0x0100\n  exp\n  dup2\n  sload\n  dup2\n  0xffffffffffffffffffffffffffffffffffffffff\n  mul\n  not\n  and\n  swap1\n  dup4\n  0xffffffffffffffffffffffffffffffffffffffff\n  and\n  mul\n  or\n  swap1\n  sstore\n  pop\n    /* \"Ebrahiem/PLSTokenPriceFeed.sol\":60:718  contract PLSTokenPriceFeed {... */\n  dataSize(sub_0)\n  dup1\n  dataOffset(sub_0)\n  0x00\n  codecopy\n  0x00\n  return\nstop\n\nsub_0: assembly {\n        /* \"Ebrahiem/PLSTokenPriceFeed.sol\":60:718  contract PLSTokenPriceFeed {... */\n      mstore(0x40, 0x80)\n      callvalue\n      dup1\n      iszero\n      tag_1\n      jumpi\n      0x00\n      dup1\n      revert\n    tag_1:\n      pop\n      jumpi(tag_2, lt(calldatasize, 0x04))\n      shr(0xe0, calldataload(0x00))\n      dup1\n      0x8d6cc56d\n      eq\n      tag_3\n      jumpi\n      dup1\n      0x98d5fdca\n      eq\n      tag_4\n      jumpi\n    tag_2:\n      0x00\n      dup1\n      revert\n        /* \"Ebrahiem/PLSTokenPriceFeed.sol\":505:617  function updatePrice(uint256 _newPriceInUSD) external onlyBackend {... */\n    tag_3:\n      tag_5\n      0x04\n      dup1\n      calldatasize\n      sub\n      dup2\n      add\n      swap1\n      tag_6\n      swap2\n      swap1\n      tag_7\n      jump\t// in\n    tag_6:\n      tag_8\n      jump\t// in\n    tag_5:\n      stop\n        /* \"Ebrahiem/PLSTokenPriceFeed.sol\":625:713  function getPrice() external view returns (uint256) {... */\n    tag_4:\n      tag_9\n      tag_10\n      jump\t// in\n    tag_9:\n      mload(0x40)\n      tag_11\n      swap2\n      swap1\n      tag_12\n      jump\t// in\n    tag_11:\n      mload(0x40)\n      dup1\n      swap2\n      sub\n      swap1\n      return\n        /* \"Ebrahiem/PLSTokenPriceFeed.sol\":505:617  function updatePrice(uint256 _newPriceInUSD) external onlyBackend {... */\n    tag_8:\n        /* \"Ebrahiem/PLSTokenPriceFeed.sol\":405:428  BackendOperationAddress */\n      0x01\n      0x00\n      swap1\n      sload\n      swap1\n      0x0100\n      exp\n      swap1\n      div\n      0xffffffffffffffffffffffffffffffffffffffff\n      and\n        /* \"Ebrahiem/PLSTokenPriceFeed.sol\":391:428  msg.sender == BackendOperationAddress */\n      0xffffffffffffffffffffffffffffffffffffffff\n      and\n        /* \"Ebrahiem/PLSTokenPriceFeed.sol\":391:401  msg.sender */\n      caller\n        /* \"Ebrahiem/PLSTokenPriceFeed.sol\":391:428  msg.sender == BackendOperationAddress */\n      0xffffffffffffffffffffffffffffffffffffffff\n      and\n      eq\n        /* \"Ebrahiem/PLSTokenPriceFeed.sol\":383:479  require(msg.sender == BackendOperationAddress, \"Only backend operation can call this function.\") */\n      tag_14\n      jumpi\n      mload(0x40)\n      0x08c379a000000000000000000000000000000000000000000000000000000000\n      dup2\n      mstore\n      0x04\n      add\n      tag_15\n      swap1\n      tag_16\n      jump\t// in\n    tag_15:\n      mload(0x40)\n      dup1\n      swap2\n      sub\n      swap1\n      revert\n    tag_14:\n        /* \"Ebrahiem/PLSTokenPriceFeed.sol\":595:609  _newPriceInUSD */\n      dup1\n        /* \"Ebrahiem/PLSTokenPriceFeed.sol\":582:592  priceInUSD */\n      0x00\n        /* \"Ebrahiem/PLSTokenPriceFeed.sol\":582:609  priceInUSD = _newPriceInUSD */\n      dup2\n      swap1\n      sstore\n      pop\n        /* \"Ebrahiem/PLSTokenPriceFeed.sol\":505:617  function updatePrice(uint256 _newPriceInUSD) external onlyBackend {... */\n      pop\n      jump\t// out\n        /* \"Ebrahiem/PLSTokenPriceFeed.sol\":625:713  function getPrice() external view returns (uint256) {... */\n    tag_10:\n        /* \"Ebrahiem/PLSTokenPriceFeed.sol\":668:675  uint256 */\n      0x00\n        /* \"Ebrahiem/PLSTokenPriceFeed.sol\":695:705  priceInUSD */\n      dup1\n      sload\n        /* \"Ebrahiem/PLSTokenPriceFeed.sol\":688:705  return priceInUSD */\n      swap1\n      pop\n        /* \"Ebrahiem/PLSTokenPriceFeed.sol\":625:713  function getPrice() external view returns (uint256) {... */\n      swap1\n      jump\t// out\n        /* \"#utility.yul\":88:205   */\n    tag_20:\n        /* \"#utility.yul\":197:198   */\n      0x00\n        /* \"#utility.yul\":194:195   */\n      dup1\n        /* \"#utility.yul\":187:199   */\n      revert\n        /* \"#utility.yul\":334:411   */\n    tag_22:\n        /* \"#utility.yul\":371:378   */\n      0x00\n        /* \"#utility.yul\":400:405   */\n      dup2\n        /* \"#utility.yul\":389:405   */\n      swap1\n      pop\n        /* \"#utility.yul\":334:411   */\n      swap2\n      swap1\n      pop\n      jump\t// out\n        /* \"#utility.yul\":417:539   */\n    tag_23:\n        /* \"#utility.yul\":490:514   */\n      tag_35\n        /* \"#utility.yul\":508:513   */\n      dup2\n        /* \"#utility.yul\":490:514   */\n      tag_22\n      jump\t// in\n    tag_35:\n        /* \"#utility.yul\":483:488   */\n      dup2\n        /* \"#utility.yul\":480:515   */\n      eq\n        /* \"#utility.yul\":470:533   */\n      tag_36\n      jumpi\n        /* \"#utility.yul\":529:530   */\n      0x00\n        /* \"#utility.yul\":526:527   */\n      dup1\n        /* \"#utility.yul\":519:531   */\n      revert\n        /* \"#utility.yul\":470:533   */\n    tag_36:\n        /* \"#utility.yul\":417:539   */\n      pop\n      jump\t// out\n        /* \"#utility.yul\":545:684   */\n    tag_24:\n        /* \"#utility.yul\":591:596   */\n      0x00\n        /* \"#utility.yul\":629:635   */\n      dup2\n        /* \"#utility.yul\":616:636   */\n      calldataload\n        /* \"#utility.yul\":607:636   */\n      swap1\n      pop\n        /* \"#utility.yul\":645:678   */\n      tag_38\n        /* \"#utility.yul\":672:677   */\n      dup2\n        /* \"#utility.yul\":645:678   */\n      tag_23\n      jump\t// in\n    tag_38:\n        /* \"#utility.yul\":545:684   */\n      swap3\n      swap2\n      pop\n      pop\n      jump\t// out\n        /* \"#utility.yul\":690:1019   */\n    tag_7:\n        /* \"#utility.yul\":749:755   */\n      0x00\n        /* \"#utility.yul\":798:800   */\n      0x20\n        /* \"#utility.yul\":786:795   */\n      dup3\n        /* \"#utility.yul\":777:784   */\n      dup5\n        /* \"#utility.yul\":773:796   */\n      sub\n        /* \"#utility.yul\":769:801   */\n      slt\n        /* \"#utility.yul\":766:885   */\n      iszero\n      tag_40\n      jumpi\n        /* \"#utility.yul\":804:883   */\n      tag_41\n      tag_20\n      jump\t// in\n    tag_41:\n        /* \"#utility.yul\":766:885   */\n    tag_40:\n        /* \"#utility.yul\":924:925   */\n      0x00\n        /* \"#utility.yul\":949:1002   */\n      tag_42\n        /* \"#utility.yul\":994:1001   */\n      dup5\n        /* \"#utility.yul\":985:991   */\n      dup3\n        /* \"#utility.yul\":974:983   */\n      dup6\n        /* \"#utility.yul\":970:992   */\n      add\n        /* \"#utility.yul\":949:1002   */\n      tag_24\n      jump\t// in\n    tag_42:\n        /* \"#utility.yul\":939:1002   */\n      swap2\n      pop\n        /* \"#utility.yul\":895:1012   */\n      pop\n        /* \"#utility.yul\":690:1019   */\n      swap3\n      swap2\n      pop\n      pop\n      jump\t// out\n        /* \"#utility.yul\":1025:1143   */\n    tag_25:\n        /* \"#utility.yul\":1112:1136   */\n      tag_44\n        /* \"#utility.yul\":1130:1135   */\n      dup2\n        /* \"#utility.yul\":1112:1136   */\n      tag_22\n      jump\t// in\n    tag_44:\n        /* \"#utility.yul\":1107:1110   */\n      dup3\n        /* \"#utility.yul\":1100:1137   */\n      mstore\n        /* \"#utility.yul\":1025:1143   */\n      pop\n      pop\n      jump\t// out\n        /* \"#utility.yul\":1149:1371   */\n    tag_12:\n        /* \"#utility.yul\":1242:1246   */\n      0x00\n        /* \"#utility.yul\":1280:1282   */\n      0x20\n        /* \"#utility.yul\":1269:1278   */\n      dup3\n        /* \"#utility.yul\":1265:1283   */\n      add\n        /* \"#utility.yul\":1257:1283   */\n      swap1\n      pop\n        /* \"#utility.yul\":1293:1364   */\n      tag_46\n        /* \"#utility.yul\":1361:1362   */\n      0x00\n        /* \"#utility.yul\":1350:1359   */\n      dup4\n        /* \"#utility.yul\":1346:1363   */\n      add\n        /* \"#utility.yul\":1337:1343   */\n      dup5\n        /* \"#utility.yul\":1293:1364   */\n      tag_25\n      jump\t// in\n    tag_46:\n        /* \"#utility.yul\":1149:1371   */\n      swap3\n      swap2\n      pop\n      pop\n      jump\t// out\n        /* \"#utility.yul\":1377:1546   */\n    tag_26:\n        /* \"#utility.yul\":1461:1472   */\n      0x00\n        /* \"#utility.yul\":1495:1501   */\n      dup3\n        /* \"#utility.yul\":1490:1493   */\n      dup3\n        /* \"#utility.yul\":1483:1502   */\n      mstore\n        /* \"#utility.yul\":1535:1539   */\n      0x20\n        /* \"#utility.yul\":1530:1533   */\n      dup3\n        /* \"#utility.yul\":1526:1540   */\n      add\n        /* \"#utility.yul\":1511:1540   */\n      swap1\n      pop\n        /* \"#utility.yul\":1377:1546   */\n      swap3\n      swap2\n      pop\n      pop\n      jump\t// out\n        /* \"#utility.yul\":1552:1785   */\n    tag_27:\n        /* \"#utility.yul\":1692:1726   */\n      0x4f6e6c79206261636b656e64206f7065726174696f6e2063616e2063616c6c20\n        /* \"#utility.yul\":1688:1689   */\n      0x00\n        /* \"#utility.yul\":1680:1686   */\n      dup3\n        /* \"#utility.yul\":1676:1690   */\n      add\n        /* \"#utility.yul\":1669:1727   */\n      mstore\n        /* \"#utility.yul\":1761:1777   */\n      0x746869732066756e6374696f6e2e000000000000000000000000000000000000\n        /* \"#utility.yul\":1756:1758   */\n      0x20\n        /* \"#utility.yul\":1748:1754   */\n      dup3\n        /* \"#utility.yul\":1744:1759   */\n      add\n        /* \"#utility.yul\":1737:1778   */\n      mstore\n        /* \"#utility.yul\":1552:1785   */\n      pop\n      jump\t// out\n        /* \"#utility.yul\":1791:2157   */\n    tag_28:\n        /* \"#utility.yul\":1933:1936   */\n      0x00\n        /* \"#utility.yul\":1954:2021   */\n      tag_50\n        /* \"#utility.yul\":2018:2020   */\n      0x2e\n        /* \"#utility.yul\":2013:2016   */\n      dup4\n        /* \"#utility.yul\":1954:2021   */\n      tag_26\n      jump\t// in\n    tag_50:\n        /* \"#utility.yul\":1947:2021   */\n      swap2\n      pop\n        /* \"#utility.yul\":2030:2123   */\n      tag_51\n        /* \"#utility.yul\":2119:2122   */\n      dup3\n        /* \"#utility.yul\":2030:2123   */\n      tag_27\n      jump\t// in\n    tag_51:\n        /* \"#utility.yul\":2148:2150   */\n      0x40\n        /* \"#utility.yul\":2143:2146   */\n      dup3\n        /* \"#utility.yul\":2139:2151   */\n      add\n        /* \"#utility.yul\":2132:2151   */\n      swap1\n      pop\n        /* \"#utility.yul\":1791:2157   */\n      swap2\n      swap1\n      pop\n      jump\t// out\n        /* \"#utility.yul\":2163:2582   */\n    tag_16:\n        /* \"#utility.yul\":2329:2333   */\n      0x00\n        /* \"#utility.yul\":2367:2369   */\n      0x20\n        /* \"#utility.yul\":2356:2365   */\n      dup3\n        /* \"#utility.yul\":2352:2370   */\n      add\n        /* \"#utility.yul\":2344:2370   */\n      swap1\n      pop\n        /* \"#utility.yul\":2416:2425   */\n      dup2\n        /* \"#utility.yul\":2410:2414   */\n      dup2\n        /* \"#utility.yul\":2406:2426   */\n      sub\n        /* \"#utility.yul\":2402:2403   */\n      0x00\n        /* \"#utility.yul\":2391:2400   */\n      dup4\n        /* \"#utility.yul\":2387:2404   */\n      add\n        /* \"#utility.yul\":2380:2427   */\n      mstore\n        /* \"#utility.yul\":2444:2575   */\n      tag_53\n        /* \"#utility.yul\":2570:2574   */\n      dup2\n        /* \"#utility.yul\":2444:2575   */\n      tag_28\n      jump\t// in\n    tag_53:\n        /* \"#utility.yul\":2436:2575   */\n      swap1\n      pop\n        /* \"#utility.yul\":2163:2582   */\n      swap2\n      swap1\n      pop\n      jump\t// out\n\n    auxdata: 0xa26469706673582212203b4b6e34a88f837509ff673e9ce73d488a8d92d3e8d7a4cd77b15c52341413e064736f6c63430008180033\n}\n",
				"bytecode": {
					"linkReferences": {},
					"object": "608060405234801561000f575f80fd5b5066038d7ea4c680005f8190555073b9b2c57e5428e31ffa21b302aed689f4ca2447fe60015f6101000a81548173ffffffffffffffffffffffffffffffffffffffff021916908373ffffffffffffffffffffffffffffffffffffffff1602179055506102708061007e5f395ff3fe608060405234801561000f575f80fd5b5060043610610034575f3560e01c80638d6cc56d1461003857806398d5fdca14610054575b5f80fd5b610052600480360381019061004d9190610149565b610072565b005b61005c61010a565b6040516100699190610183565b60405180910390f35b60015f9054906101000a900473ffffffffffffffffffffffffffffffffffffffff1673ffffffffffffffffffffffffffffffffffffffff163373ffffffffffffffffffffffffffffffffffffffff1614610101576040517f08c379a00000000000000000000000000000000000000000000000000000000081526004016100f89061021c565b60405180910390fd5b805f8190555050565b5f8054905090565b5f80fd5b5f819050919050565b61012881610116565b8114610132575f80fd5b50565b5f813590506101438161011f565b92915050565b5f6020828403121561015e5761015d610112565b5b5f61016b84828501610135565b91505092915050565b61017d81610116565b82525050565b5f6020820190506101965f830184610174565b92915050565b5f82825260208201905092915050565b7f4f6e6c79206261636b656e64206f7065726174696f6e2063616e2063616c6c205f8201527f746869732066756e6374696f6e2e000000000000000000000000000000000000602082015250565b5f610206602e8361019c565b9150610211826101ac565b604082019050919050565b5f6020820190508181035f830152610233816101fa565b905091905056fea26469706673582212203b4b6e34a88f837509ff673e9ce73d488a8d92d3e8d7a4cd77b15c52341413e064736f6c63430008180033",
					"opcodes": "PUSH1 0x80 PUSH1 0x40 MSTORE CALLVALUE DUP1 ISZERO PUSH2 0xF JUMPI PUSH0 DUP1 REVERT JUMPDEST POP PUSH7 0x38D7EA4C68000 PUSH0 DUP2 SWAP1 SSTORE POP PUSH20 0xB9B2C57E5428E31FFA21B302AED689F4CA2447FE PUSH1 0x1 PUSH0 PUSH2 0x100 EXP DUP2 SLOAD DUP2 PUSH20 0xFFFFFFFFFFFFFFFFFFFFFFFFFFFFFFFFFFFFFFFF MUL NOT AND SWAP1 DUP4 PUSH20 0xFFFFFFFFFFFFFFFFFFFFFFFFFFFFFFFFFFFFFFFF AND MUL OR SWAP1 SSTORE POP PUSH2 0x270 DUP1 PUSH2 0x7E PUSH0 CODECOPY PUSH0 RETURN INVALID PUSH1 0x80 PUSH1 0x40 MSTORE CALLVALUE DUP1 ISZERO PUSH2 0xF JUMPI PUSH0 DUP1 REVERT JUMPDEST POP PUSH1 0x4 CALLDATASIZE LT PUSH2 0x34 JUMPI PUSH0 CALLDATALOAD PUSH1 0xE0 SHR DUP1 PUSH4 0x8D6CC56D EQ PUSH2 0x38 JUMPI DUP1 PUSH4 0x98D5FDCA EQ PUSH2 0x54 JUMPI JUMPDEST PUSH0 DUP1 REVERT JUMPDEST PUSH2 0x52 PUSH1 0x4 DUP1 CALLDATASIZE SUB DUP2 ADD SWAP1 PUSH2 0x4D SWAP2 SWAP1 PUSH2 0x149 JUMP JUMPDEST PUSH2 0x72 JUMP JUMPDEST STOP JUMPDEST PUSH2 0x5C PUSH2 0x10A JUMP JUMPDEST PUSH1 0x40 MLOAD PUSH2 0x69 SWAP2 SWAP1 PUSH2 0x183 JUMP JUMPDEST PUSH1 0x40 MLOAD DUP1 SWAP2 SUB SWAP1 RETURN JUMPDEST PUSH1 0x1 PUSH0 SWAP1 SLOAD SWAP1 PUSH2 0x100 EXP SWAP1 DIV PUSH20 0xFFFFFFFFFFFFFFFFFFFFFFFFFFFFFFFFFFFFFFFF AND PUSH20 0xFFFFFFFFFFFFFFFFFFFFFFFFFFFFFFFFFFFFFFFF AND CALLER PUSH20 0xFFFFFFFFFFFFFFFFFFFFFFFFFFFFFFFFFFFFFFFF AND EQ PUSH2 0x101 JUMPI PUSH1 0x40 MLOAD PUSH32 0x8C379A000000000000000000000000000000000000000000000000000000000 DUP2 MSTORE PUSH1 0x4 ADD PUSH2 0xF8 SWAP1 PUSH2 0x21C JUMP JUMPDEST PUSH1 0x40 MLOAD DUP1 SWAP2 SUB SWAP1 REVERT JUMPDEST DUP1 PUSH0 DUP2 SWAP1 SSTORE POP POP JUMP JUMPDEST PUSH0 DUP1 SLOAD SWAP1 POP SWAP1 JUMP JUMPDEST PUSH0 DUP1 REVERT JUMPDEST PUSH0 DUP2 SWAP1 POP SWAP2 SWAP1 POP JUMP JUMPDEST PUSH2 0x128 DUP2 PUSH2 0x116 JUMP JUMPDEST DUP2 EQ PUSH2 0x132 JUMPI PUSH0 DUP1 REVERT JUMPDEST POP JUMP JUMPDEST PUSH0 DUP2 CALLDATALOAD SWAP1 POP PUSH2 0x143 DUP2 PUSH2 0x11F JUMP JUMPDEST SWAP3 SWAP2 POP POP JUMP JUMPDEST PUSH0 PUSH1 0x20 DUP3 DUP5 SUB SLT ISZERO PUSH2 0x15E JUMPI PUSH2 0x15D PUSH2 0x112 JUMP JUMPDEST JUMPDEST PUSH0 PUSH2 0x16B DUP5 DUP3 DUP6 ADD PUSH2 0x135 JUMP JUMPDEST SWAP2 POP POP SWAP3 SWAP2 POP POP JUMP JUMPDEST PUSH2 0x17D DUP2 PUSH2 0x116 JUMP JUMPDEST DUP3 MSTORE POP POP JUMP JUMPDEST PUSH0 PUSH1 0x20 DUP3 ADD SWAP1 POP PUSH2 0x196 PUSH0 DUP4 ADD DUP5 PUSH2 0x174 JUMP JUMPDEST SWAP3 SWAP2 POP POP JUMP JUMPDEST PUSH0 DUP3 DUP3 MSTORE PUSH1 0x20 DUP3 ADD SWAP1 POP SWAP3 SWAP2 POP POP JUMP JUMPDEST PUSH32 0x4F6E6C79206261636B656E64206F7065726174696F6E2063616E2063616C6C20 PUSH0 DUP3 ADD MSTORE PUSH32 0x746869732066756E6374696F6E2E000000000000000000000000000000000000 PUSH1 0x20 DUP3 ADD MSTORE POP JUMP JUMPDEST PUSH0 PUSH2 0x206 PUSH1 0x2E DUP4 PUSH2 0x19C JUMP JUMPDEST SWAP2 POP PUSH2 0x211 DUP3 PUSH2 0x1AC JUMP JUMPDEST PUSH1 0x40 DUP3 ADD SWAP1 POP SWAP2 SWAP1 POP JUMP JUMPDEST PUSH0 PUSH1 0x20 DUP3 ADD SWAP1 POP DUP2 DUP2 SUB PUSH0 DUP4 ADD MSTORE PUSH2 0x233 DUP2 PUSH2 0x1FA JUMP JUMPDEST SWAP1 POP SWAP2 SWAP1 POP JUMP INVALID LOG2 PUSH5 0x6970667358 0x22 SLT KECCAK256 EXTCODESIZE 0x4B PUSH15 0x34A88F837509FF673E9CE73D488A8D SWAP3 0xD3 0xE8 0xD7 LOG4 0xCD PUSH24 0xB15C52341413E064736F6C63430008180033000000000000 "
				},
				"gasEstimates": {
					"creation": {
						"codeDepositCost": "124800",
						"executionCost": "46548",
						"totalCost": "171348"
					},
					"external": {
						"getPrice()": "2432",
						"updatePrice(uint256)": "24661"
					}
				},
				"methodIdentifiers": {
					"getPrice()": "98d5fdca",
					"updatePrice(uint256)": "8d6cc56d"
				}
			},
			"storageLayout": {
				"storage": [
					{
						"astId": 3,
						"contract": "Ebrahiem/PLSTokenPriceFeed.sol:PLSTokenPriceFeed",
						"label": "priceInUSD",
						"offset": 0,
						"slot": "0",
						"type": "t_uint256"
					},
					{
						"astId": 5,
						"contract": "Ebrahiem/PLSTokenPriceFeed.sol:PLSTokenPriceFeed",
						"label": "BackendOperationAddress",
						"offset": 0,
						"slot": "1",
						"type": "t_address"
					}
				],
				"types": {
					"t_address": {
						"encoding": "inplace",
						"label": "address",
						"numberOfBytes": "20"
					},
					"t_uint256": {
						"encoding": "inplace",
						"label": "uint256",
						"numberOfBytes": "32"
					}
				}
			},
			"userdoc": {
				"kind": "user",
				"methods": {},
				"version": 1
			}
		}
	}
}