{
	"data": {
		"bytecode": {
			"linkReferences": {},
			"object": "6080604052600160065534801562000015575f80fd5b50335f73ffffffffffffffffffffffffffffffffffffffff168173ffffffffffffffffffffffffffffffffffffffff16036200008a575f6040517f1e4fbdf700000000000000000000000000000000000000000000000000000000815260040162000081919062000362565b60405180910390fd5b6200009b816200025e60201b60201c565b507331348cdcfb26cc8e3abc5205fb47c74f8da757d660035f6101000a81548173ffffffffffffffffffffffffffffffffffffffff021916908373ffffffffffffffffffffffffffffffffffffffff160217905550735e19e86f1d10c59ed9290cb986e587d2541e942c60055f6101000a81548173ffffffffffffffffffffffffffffffffffffffff021916908373ffffffffffffffffffffffffffffffffffffffff16021790555073b9b2c57e5428e31ffa21b302aed689f4ca2447fe60045f6101000a81548173ffffffffffffffffffffffffffffffffffffffff021916908373ffffffffffffffffffffffffffffffffffffffff1602179055507368d0934f1e1f0347aad5632084d153cdbfe0799260015f6101000a81548173ffffffffffffffffffffffffffffffffffffffff021916908373ffffffffffffffffffffffffffffffffffffffff16021790555073733336a32b75113935945288e3a4166373eec31260025f6101000a81548173ffffffffffffffffffffffffffffffffffffffff021916908373ffffffffffffffffffffffffffffffffffffffff16021790555062000251336200025e60201b60201c565b42600b819055506200037d565b5f805f9054906101000a900473ffffffffffffffffffffffffffffffffffffffff169050815f806101000a81548173ffffffffffffffffffffffffffffffffffffffff021916908373ffffffffffffffffffffffffffffffffffffffff1602179055508173ffffffffffffffffffffffffffffffffffffffff168173ffffffffffffffffffffffffffffffffffffffff167f8be0079c531659141344cd1fd0a4f28419497f9722a3daafe3b4186f6b6457e060405160405180910390a35050565b5f73ffffffffffffffffffffffffffffffffffffffff82169050919050565b5f6200034a826200031f565b9050919050565b6200035c816200033e565b82525050565b5f602082019050620003775f83018462000351565b92915050565b6147c3806200038b5f395ff3fe608060405260043610610212575f3560e01c80637a458d7a11610117578063b3cea2171161009f578063df75c7cf1161006e578063df75c7cf1461078d578063e242b394146107b7578063f29804b0146107f5578063f2fde38b14610831578063f5648a4f1461085957610219565b8063b3cea217146106e1578063c349c7961461070b578063d0e30db014610747578063d4f13def1461075157610219565b8063921c9964116100e6578063921c99641461060b57806397273000146106355780639848c7291461065f578063a035b1fe14610689578063a39fac12146106b357610219565b80637a458d7a1461056557806382c23f7c1461058f5780638a623d86146105cb5780638da5cb5b146105e157610219565b806356797cd11161019a5780636c24fa69116101695780636c24fa69146104835780636c7b7f2e146104bf5780636f9fb98a146104e9578063715018a61461051357806377ca25481461052957610219565b806356797cd1146103b95780635dd68acd146103f55780635ef371e31461041d57806368ef5fa31461045957610219565b80632972dc79116101e15780632972dc79146102d7578063316050d0146103135780634f802dfd1461034f578063512914f71461037957806354366808146103a357610219565b80630a992e0c1461021d5780630b0885ad1461025b5780631a0d58ed1461028557806329415a591461029b57610219565b3661021957005b5f80fd5b348015610228575f80fd5b50610243600480360381019061023e919061379c565b61086f565b604051610252939291906137ee565b60405180910390f35b348015610266575f80fd5b5061026f610941565b60405161027c9190613823565b60405180910390f35b348015610290575f80fd5b50610299610947565b005b3480156102a6575f80fd5b506102c160048036038101906102bc919061379c565b610d90565b6040516102ce919061398e565b60405180910390f35b3480156102e2575f80fd5b506102fd60048036038101906102f8919061379c565b610eb9565b60405161030a9190613ae9565b60405180910390f35b34801561031e575f80fd5b506103396004803603810190610334919061379c565b610fe8565b6040516103469190613823565b60405180910390f35b34801561035a575f80fd5b50610363610ffd565b6040516103709190613823565b60405180910390f35b348015610384575f80fd5b5061038d611006565b60405161039a9190613823565b60405180910390f35b3480156103ae575f80fd5b506103b761100f565b005b3480156103c4575f80fd5b506103df60048036038101906103da919061379c565b611412565b6040516103ec9190613823565b60405180910390f35b348015610400575f80fd5b5061041b60048036038101906104169190613b09565b611427565b005b348015610428575f80fd5b50610443600480360381019061043e919061379c565b611576565b6040516104509190613823565b60405180910390f35b348015610464575f80fd5b5061046d61158b565b60405161047a9190613823565b60405180910390f35b34801561048e575f80fd5b506104a960048036038101906104a4919061379c565b611591565b6040516104b69190613823565b60405180910390f35b3480156104ca575f80fd5b506104d36115d7565b6040516104e09190613c28565b60405180910390f35b3480156104f4575f80fd5b506104fd611662565b60405161050a9190613823565b60405180910390f35b34801561051e575f80fd5b50610527611669565b005b348015610534575f80fd5b5061054f600480360381019061054a919061379c565b61167c565b60405161055c9190613823565b60405180910390f35b348015610570575f80fd5b50610579611691565b6040516105869190613823565b60405180910390f35b34801561059a575f80fd5b506105b560048036038101906105b0919061379c565b611698565b6040516105c29190613823565b60405180910390f35b3480156105d6575f80fd5b506105df6116de565b005b3480156105ec575f80fd5b506105f5611bb9565b6040516106029190613c48565b60405180910390f35b348015610616575f80fd5b5061061f611be0565b60405161062c9190613823565b60405180910390f35b348015610640575f80fd5b50610649611be9565b6040516106569190613823565b60405180910390f35b34801561066a575f80fd5b50610673611bf2565b6040516106809190613823565b60405180910390f35b348015610694575f80fd5b5061069d611bf8565b6040516106aa9190613823565b60405180910390f35b3480156106be575f80fd5b506106c7611c8c565b6040516106d8959493929190613c61565b60405180910390f35b3480156106ec575f80fd5b506106f5611d4c565b6040516107029190613823565b60405180910390f35b348015610716575f80fd5b50610731600480360381019061072c919061379c565b611d52565b60405161073e9190613823565b60405180910390f35b61074f611d67565b005b34801561075c575f80fd5b506107776004803603810190610772919061379c565b61238a565b6040516107849190613823565b60405180910390f35b348015610798575f80fd5b506107a16123d0565b6040516107ae9190613823565b60405180910390f35b3480156107c2575f80fd5b506107dd60048036038101906107d8919061379c565b612417565b6040516107ec939291906137ee565b60405180910390f35b348015610800575f80fd5b5061081b60048036038101906108169190613cdc565b6124e9565b6040516108289190613e50565b60405180910390f35b34801561083c575f80fd5b506108576004803603810190610852919061379c565b612601565b005b348015610864575f80fd5b5061086d612685565b005b5f805f8060115f8673ffffffffffffffffffffffffffffffffffffffff1673ffffffffffffffffffffffffffffffffffffffff1681526020019081526020015f206040518060600160405290815f82015f9054906101000a900473ffffffffffffffffffffffffffffffffffffffff1673ffffffffffffffffffffffffffffffffffffffff1673ffffffffffffffffffffffffffffffffffffffff168152602001600182015481526020016002820154815250509050805f015181602001518260400151935093509350509193909250565b600c5481565b60045f9054906101000a900473ffffffffffffffffffffffffffffffffffffffff1673ffffffffffffffffffffffffffffffffffffffff163373ffffffffffffffffffffffffffffffffffffffff16146109d6576040517f08c379a00000000000000000000000000000000000000000000000000000000081526004016109cd90613ef0565b60405180910390fd5b5f5b601280549050811015610d8d575f601282815481106109fa576109f9613f0e565b5b905f5260205f20015f9054906101000a900473ffffffffffffffffffffffffffffffffffffffff1690505f610a2d611bf8565b90505f5b600e5f8473ffffffffffffffffffffffffffffffffffffffff1673ffffffffffffffffffffffffffffffffffffffff1681526020019081526020015f2080549050811015610d7d575f600e5f8573ffffffffffffffffffffffffffffffffffffffff1673ffffffffffffffffffffffffffffffffffffffff1681526020019081526020015f208281548110610ac957610ac8613f0e565b5b905f5260205f209060070201905082816004015411610d6f578060050154600d5f828254610af79190613f68565b925050819055505f60028260010154610b109190613fc8565b90505f60028360020154610b249190613fc8565b905081471015610b69576040517f08c379a0000000000000000000000000000000000000000000000000000000008152600401610b6090614042565b60405180910390fd5b5f5b601280549050811015610cad575f60128281548110610b8d57610b8c613f0e565b5b905f5260205f20015f9054906101000a900473ffffffffffffffffffffffffffffffffffffffff1690505f600754612710620f424060185f8673ffffffffffffffffffffffffffffffffffffffff1673ffffffffffffffffffffffffffffffffffffffff1681526020019081526020015f2054610c0a9190614060565b610c149190614060565b610c1e9190613fc8565b90505f620f4240612710610c329190614060565b8287610c3e9190614060565b610c489190613fc8565b90508060165f8573ffffffffffffffffffffffffffffffffffffffff1673ffffffffffffffffffffffffffffffffffffffff1681526020019081526020015f205f828254610c969190613f68565b925050819055505050508080600101915050610b6b565b5081836001015f828254610cc191906140a1565b9250508190555080836002015f828254610cdb91906140a1565b9250508190555084836003018190555060028360040154610cfc9190614060565b8360040181905550428360060181905550680ad78ebc5ac62000008360050154610d269190613f68565b83600501819055507f827e906cbceeec35976093a58e10220e0195715ee3032a9afaf05b14999516fb8282876001604051610d6494939291906140e3565b60405180910390a150505b508080600101915050610a31565b50505080806001019150506109d8565b50565b6060600e5f8373ffffffffffffffffffffffffffffffffffffffff1673ffffffffffffffffffffffffffffffffffffffff1681526020019081526020015f20805480602002602001604051908101604052809291908181526020015f905b82821015610eae578382905f5260205f2090600702016040518060e00160405290815f82015f9054906101000a900473ffffffffffffffffffffffffffffffffffffffff1673ffffffffffffffffffffffffffffffffffffffff1673ffffffffffffffffffffffffffffffffffffffff168152602001600182015481526020016002820154815260200160038201548152602001600482015481526020016005820154815260200160068201548152505081526020019060010190610dee565b505050509050919050565b6060600f5f8373ffffffffffffffffffffffffffffffffffffffff1673ffffffffffffffffffffffffffffffffffffffff1681526020019081526020015f20805480602002602001604051908101604052809291908181526020015f905b82821015610fdd578382905f5260205f2090600602016040518060c00160405290815f82015f9054906101000a900473ffffffffffffffffffffffffffffffffffffffff1673ffffffffffffffffffffffffffffffffffffffff1673ffffffffffffffffffffffffffffffffffffffff16815260200160018201548152602001600282015481526020016003820154815260200160048201548152602001600582015f9054906101000a900460ff16151515158152505081526020019060010190610f17565b505050509050919050565b6014602052805f5260405f205f915090505481565b5f600a54905090565b5f600854905090565b60045f9054906101000a900473ffffffffffffffffffffffffffffffffffffffff1673ffffffffffffffffffffffffffffffffffffffff163373ffffffffffffffffffffffffffffffffffffffff161461109e576040517f08c379a000000000000000000000000000000000000000000000000000000000815260040161109590613ef0565b60405180910390fd5b5f805f90505b6012805490508110156113d4575f601282815481106110c6576110c5613f0e565b5b905f5260205f20015f9054906101000a900473ffffffffffffffffffffffffffffffffffffffff1690505f5b600f5f8373ffffffffffffffffffffffffffffffffffffffff1673ffffffffffffffffffffffffffffffffffffffff1681526020019081526020015f20805490508110156113c5575f600f5f8473ffffffffffffffffffffffffffffffffffffffff1673ffffffffffffffffffffffffffffffffffffffff1681526020019081526020015f20828154811061118a57611189613f0e565b5b905f5260205f2090600602019050806005015f9054906101000a900460ff161580156111c1575080600301546111be611bf8565b10155b156113b7575f600a670de0b6b3a764000083600201546111e19190614060565b6111eb9190613fc8565b905080600d5f8282546111fe9190613f68565b925050819055505f5b6012805490508110156113b4575f6012828154811061122957611228613f0e565b5b905f5260205f20015f9054906101000a900473ffffffffffffffffffffffffffffffffffffffff1690505f600754612710620f424060185f8673ffffffffffffffffffffffffffffffffffffffff1673ffffffffffffffffffffffffffffffffffffffff1681526020019081526020015f20546112a69190614060565b6112b09190614060565b6112ba9190613fc8565b90505f620f42406127106112ce9190614060565b8287600101546112de9190614060565b6112e89190613fc8565b90506001866005015f6101000a81548160ff0219169083151502179055508060165f8573ffffffffffffffffffffffffffffffffffffffff1673ffffffffffffffffffffffffffffffffffffffff1681526020019081526020015f205f8282546113529190613f68565b92505081905550808a6113659190613f68565b99507f0c6aae9b432a347364f1123f9a1139afb1c0d8b0fccd0a1ce46ffcd3703d0c488888858460405161139c9493929190614126565b60405180910390a15050508080600101915050611207565b50505b5080806001019150506110f2565b505080806001019150506110a4565b507f9efc1e924efbe602ccc06b63620b1348865adf701de83a2f71dee2217fdd77f7816040516114049190613823565b60405180910390a15f905050565b6015602052805f5260405f205f915090505481565b61142f612725565b8460055f6101000a81548173ffffffffffffffffffffffffffffffffffffffff021916908373ffffffffffffffffffffffffffffffffffffffff1602179055508360035f6101000a81548173ffffffffffffffffffffffffffffffffffffffff021916908373ffffffffffffffffffffffffffffffffffffffff1602179055508260045f6101000a81548173ffffffffffffffffffffffffffffffffffffffff021916908373ffffffffffffffffffffffffffffffffffffffff1602179055508160025f6101000a81548173ffffffffffffffffffffffffffffffffffffffff021916908373ffffffffffffffffffffffffffffffffffffffff1602179055508060015f6101000a81548173ffffffffffffffffffffffffffffffffffffffff021916908373ffffffffffffffffffffffffffffffffffffffff1602179055505050505050565b6017602052805f5260405f205f915090505481565b600d5481565b5f601b5f8373ffffffffffffffffffffffffffffffffffffffff1673ffffffffffffffffffffffffffffffffffffffff1681526020019081526020015f20549050919050565b6060601280548060200260200160405190810160405280929190818152602001828054801561165857602002820191905f5260205f20905b815f9054906101000a900473ffffffffffffffffffffffffffffffffffffffff1673ffffffffffffffffffffffffffffffffffffffff168152602001906001019080831161160f575b5050505050905090565b5f47905090565b611671612725565b61167a5f6127ac565b565b6016602052805f5260405f205f915090505481565b620f424081565b5f601a5f8373ffffffffffffffffffffffffffffffffffffffff1673ffffffffffffffffffffffffffffffffffffffff1681526020019081526020015f20549050919050565b5f3390505f60165f8373ffffffffffffffffffffffffffffffffffffffff1673ffffffffffffffffffffffffffffffffffffffff1681526020019081526020015f205490505f60105f8473ffffffffffffffffffffffffffffffffffffffff1673ffffffffffffffffffffffffffffffffffffffff1681526020019081526020015f206002015490505f60115f8573ffffffffffffffffffffffffffffffffffffffff1673ffffffffffffffffffffffffffffffffffffffff1681526020019081526020015f206001015490505f8183856117b99190613f68565b6117c39190613f68565b90505f8111611807576040517f08c379a00000000000000000000000000000000000000000000000000000000081526004016117fe906141d9565b60405180910390fd5b5f60646063836118179190614060565b6118219190613fc8565b90505f818361183091906140a1565b90505f8773ffffffffffffffffffffffffffffffffffffffff168360405161185790614224565b5f6040518083038185875af1925050503d805f8114611891576040519150601f19603f3d011682016040523d82523d5f602084013e611896565b606091505b50509050806118da576040517f08c379a00000000000000000000000000000000000000000000000000000000081526004016118d190614282565b60405180910390fd5b5f60035f9054906101000a900473ffffffffffffffffffffffffffffffffffffffff1673ffffffffffffffffffffffffffffffffffffffff168360405161192090614224565b5f6040518083038185875af1925050503d805f811461195a576040519150601f19603f3d011682016040523d82523d5f602084013e61195f565b606091505b50509050806119a3576040517f08c379a000000000000000000000000000000000000000000000000000000000815260040161199a906142ea565b60405180910390fd5b8873ffffffffffffffffffffffffffffffffffffffff167f87f3715fcfcfad480f00ce2fca145e04cc410fd52aedbcb40c379082738833a285856040516119eb929190614308565b60405180910390a25f670de0b6b3a7640000611a17611a08611bf8565b8861286d90919063ffffffff16565b611a219190613fc8565b905080601a5f8c73ffffffffffffffffffffffffffffffffffffffff1673ffffffffffffffffffffffffffffffffffffffff1681526020019081526020015f205f828254611a6f9190613f68565b925050819055508560195f8c73ffffffffffffffffffffffffffffffffffffffff1673ffffffffffffffffffffffffffffffffffffffff1681526020019081526020015f205f828254611ac29190613f68565b925050819055508060095f828254611ada91906140a1565b925050819055505f60165f8c73ffffffffffffffffffffffffffffffffffffffff1673ffffffffffffffffffffffffffffffffffffffff1681526020019081526020015f20819055505f60115f8c73ffffffffffffffffffffffffffffffffffffffff1673ffffffffffffffffffffffffffffffffffffffff1681526020019081526020015f20600101819055505f60105f8c73ffffffffffffffffffffffffffffffffffffffff1673ffffffffffffffffffffffffffffffffffffffff1681526020019081526020015f206002018190555050505050505050505050565b5f805f9054906101000a900473ffffffffffffffffffffffffffffffffffffffff16905090565b5f600754905090565b5f600954905090565b600b5481565b5f60015f9054906101000a900473ffffffffffffffffffffffffffffffffffffffff1673ffffffffffffffffffffffffffffffffffffffff166398d5fdca6040518163ffffffff1660e01b8152600401602060405180830381865afa158015611c63573d5f803e3d5ffd5b505050506040513d601f19601f82011682018060405250810190611c879190614343565b905090565b5f805f805f60035f9054906101000a900473ffffffffffffffffffffffffffffffffffffffff1660045f9054906101000a900473ffffffffffffffffffffffffffffffffffffffff1660025f9054906101000a900473ffffffffffffffffffffffffffffffffffffffff1660015f9054906101000a900473ffffffffffffffffffffffffffffffffffffffff1660055f9054906101000a900473ffffffffffffffffffffffffffffffffffffffff16945094509450945094509091929394565b60065481565b6018602052805f5260405f205f915090505481565b5f3490505f8111611dad576040517f08c379a0000000000000000000000000000000000000000000000000000000008152600401611da4906143b8565b60405180910390fd5b5f670de0b6b3a7640000611dd1611dc2611bf8565b8461286d90919063ffffffff16565b611ddb9190613fc8565b905067ca9d9ea558b40000600d5f828254611df69190613f68565b925050819055505f805f805f611e0b87612882565b945094509450945094505f60055f9054906101000a900473ffffffffffffffffffffffffffffffffffffffff1673ffffffffffffffffffffffffffffffffffffffff1682604051611e5b90614224565b5f6040518083038185875af1925050503d805f8114611e95576040519150601f19603f3d011682016040523d82523d5f602084013e611e9a565b606091505b505090505f611ec86103e8611eba6103568b61286d90919063ffffffff16565b61297e90919063ffffffff16565b90505f611ef4612710611ee66103208d61286d90919063ffffffff16565b61297e90919063ffffffff16565b90508160185f3373ffffffffffffffffffffffffffffffffffffffff1673ffffffffffffffffffffffffffffffffffffffff1681526020019081526020015f205f828254611f429190613f68565b925050819055508060175f3373ffffffffffffffffffffffffffffffffffffffff1673ffffffffffffffffffffffffffffffffffffffff1681526020019081526020015f205f828254611f959190613f68565b92505081905550611fa533612993565b61202157601233908060018154018082558091505060019003905f5260205f20015f9091909190916101000a81548173ffffffffffffffffffffffffffffffffffffffff021916908373ffffffffffffffffffffffffffffffffffffffff160217905550600c5f81548092919061201b906143d6565b91905055505b8860145f3373ffffffffffffffffffffffffffffffffffffffff1673ffffffffffffffffffffffffffffffffffffffff1681526020019081526020015f205f82825461206d9190613f68565b925050819055508960155f3373ffffffffffffffffffffffffffffffffffffffff1673ffffffffffffffffffffffffffffffffffffffff1681526020019081526020015f205f8282546120c09190613f68565b925050819055508860095f8282546120d89190613f68565b9250508190555089600a5f8282546120f09190613f68565b9250508190555060135f60065481526020019081526020015f206040518061010001604052803373ffffffffffffffffffffffffffffffffffffffff1681526020018c81526020018b81526020018a81526020018881526020018981526020018781526020015f1515815250908060018154018082558091505060019003905f5260205f2090600802015f909190919091505f820151815f015f6101000a81548173ffffffffffffffffffffffffffffffffffffffff021916908373ffffffffffffffffffffffffffffffffffffffff1602179055506020820151816001015560408201518160020155606082015181600301556080820151816004015560a0820151816005015560c0820151816006015560e0820151816007015f6101000a81548160ff021916908315150217905550505061222d3389612a35565b3373ffffffffffffffffffffffffffffffffffffffff167f58e88a38078e18b32597bf4f0bd15497beb83f983639abb26d3c1c5dc2f2795460065485348d60405161227b949392919061441d565b60405180910390a25f670de0b6b3a76400006122a7612298611bf8565b8a61286d90919063ffffffff16565b6122b19190613fc8565b90507f7eee8605074429ab386c2fcb471bcf0c8580632a35aab6d197dccbe52992f8f58b8a8a8a8a8a876040516122ee9796959493929190614460565b60405180910390a15f6002612301611bf8565b61230b9190614060565b9050612321338a8461231b611bf8565b85612c14565b8360075f8282546123329190613f68565b925050819055508260085f82825461234a9190613f68565b9250508190555061235a88612d57565b61236387613109565b600160065f8282546123759190613f68565b92505081905550505050505050505050505050565b5f60195f8373ffffffffffffffffffffffffffffffffffffffff1673ffffffffffffffffffffffffffffffffffffffff1681526020019081526020015f20549050919050565b5f600f5f3373ffffffffffffffffffffffffffffffffffffffff1673ffffffffffffffffffffffffffffffffffffffff1681526020019081526020015f2080549050905090565b5f805f8060105f8673ffffffffffffffffffffffffffffffffffffffff1673ffffffffffffffffffffffffffffffffffffffff1681526020019081526020015f206040518060600160405290815f82015f9054906101000a900473ffffffffffffffffffffffffffffffffffffffff1673ffffffffffffffffffffffffffffffffffffffff1673ffffffffffffffffffffffffffffffffffffffff168152602001600182015481526020016002820154815250509050805f015181602001518260400151935093509350509193909250565b606060135f8381526020019081526020015f20805480602002602001604051908101604052809291908181526020015f905b828210156125f6578382905f5260205f209060080201604051806101000160405290815f82015f9054906101000a900473ffffffffffffffffffffffffffffffffffffffff1673ffffffffffffffffffffffffffffffffffffffff1673ffffffffffffffffffffffffffffffffffffffff168152602001600182015481526020016002820154815260200160038201548152602001600482015481526020016005820154815260200160068201548152602001600782015f9054906101000a900460ff1615151515815250508152602001906001019061251b565b505050509050919050565b612609612725565b5f73ffffffffffffffffffffffffffffffffffffffff168173ffffffffffffffffffffffffffffffffffffffff1603612679575f6040517f1e4fbdf70000000000000000000000000000000000000000000000000000000081526004016126709190613c48565b60405180910390fd5b612682816127ac565b50565b61268d612725565b5f606460634761269d9190614060565b6126a79190613fc8565b90505f6126b2611bb9565b73ffffffffffffffffffffffffffffffffffffffff16826040516126d590614224565b5f6040518083038185875af1925050503d805f811461270f576040519150601f19603f3d011682016040523d82523d5f602084013e612714565b606091505b5050905080612721575f80fd5b5050565b61272d613439565b73ffffffffffffffffffffffffffffffffffffffff1661274b611bb9565b73ffffffffffffffffffffffffffffffffffffffff16146127aa5761276e613439565b6040517f118cdaa70000000000000000000000000000000000000000000000000000000081526004016127a19190613c48565b60405180910390fd5b565b5f805f9054906101000a900473ffffffffffffffffffffffffffffffffffffffff169050815f806101000a81548173ffffffffffffffffffffffffffffffffffffffff021916908373ffffffffffffffffffffffffffffffffffffffff1602179055508173ffffffffffffffffffffffffffffffffffffffff168173ffffffffffffffffffffffffffffffffffffffff167f8be0079c531659141344cd1fd0a4f28419497f9722a3daafe3b4186f6b6457e060405160405180910390a35050565b5f818361287a9190614060565b905092915050565b5f805f805f806128b16103e86128a361026a8a61286d90919063ffffffff16565b61297e90919063ffffffff16565b90505f6128dc6103e86128ce60ec8b61286d90919063ffffffff16565b61297e90919063ffffffff16565b90505f6129086127106128fa6103208c61286d90919063ffffffff16565b61297e90919063ffffffff16565b90505f6129346127106129266102308d61286d90919063ffffffff16565b61297e90919063ffffffff16565b90505f61295f61271061295160648e61286d90919063ffffffff16565b61297e90919063ffffffff16565b9050848484848499509950995099509950505050505091939590929450565b5f818361298b9190613fc8565b905092915050565b5f805f90505b601280549050811015612a2b578273ffffffffffffffffffffffffffffffffffffffff16601282815481106129d1576129d0613f0e565b5b905f5260205f20015f9054906101000a900473ffffffffffffffffffffffffffffffffffffffff1673ffffffffffffffffffffffffffffffffffffffff1603612a1e576001915050612a30565b8080600101915050612999565b505f90505b919050565b5f600f5f8473ffffffffffffffffffffffffffffffffffffffff1673ffffffffffffffffffffffffffffffffffffffff1681526020019081526020015f2090505f6040518060c0016040528060ec61ffff16815260200161017e61ffff1681526020016101f461ffff16815260200161026a61ffff16815260200161031261ffff1681526020016103e861ffff1681525090505f600684612ad69190613fc8565b90505f5b6006811015612c0c57836040518060c001604052808873ffffffffffffffffffffffffffffffffffffffff168152602001848152602001858460068110612b2457612b23613f0e565b5b602002015161ffff168152602001612b3b84613440565b81526020014281526020015f1515815250908060018154018082558091505060019003905f5260205f2090600602015f909190919091505f820151815f015f6101000a81548173ffffffffffffffffffffffffffffffffffffffff021916908373ffffffffffffffffffffffffffffffffffffffff1602179055506020820151816001015560408201518160020155606082015181600301556080820151816004015560a0820151816005015f6101000a81548160ff02191690831515021790555050508080600101915050612ada565b505050505050565b5f600e5f8773ffffffffffffffffffffffffffffffffffffffff1673ffffffffffffffffffffffffffffffffffffffff1681526020019081526020015f209050806040518060e001604052808873ffffffffffffffffffffffffffffffffffffffff16815260200187815260200186815260200185815260200184815260200168056bc75e2d63100000815260200142815250908060018154018082558091505060019003905f5260205f2090600702015f909190919091505f820151815f015f6101000a81548173ffffffffffffffffffffffffffffffffffffffff021916908373ffffffffffffffffffffffffffffffffffffffff1602179055506020820151816001015560408201518160020155606082015181600301556080820151816004015560a0820151816005015560c082015181600601555050505050505050565b5f8181612d649190613f68565b90505f5b601280549050811015613040575f60128281548110612d8a57612d89613f0e565b5b905f5260205f20015f9054906101000a900473ffffffffffffffffffffffffffffffffffffffff1690505f60105f8373ffffffffffffffffffffffffffffffffffffffff1673ffffffffffffffffffffffffffffffffffffffff1681526020019081526020015f209050601b5f8373ffffffffffffffffffffffffffffffffffffffff1673ffffffffffffffffffffffffffffffffffffffff1681526020019081526020015f205460155f8473ffffffffffffffffffffffffffffffffffffffff1673ffffffffffffffffffffffffffffffffffffffff1681526020019081526020015f20541115613031575f600854612710620f424060175f8773ffffffffffffffffffffffffffffffffffffffff1673ffffffffffffffffffffffffffffffffffffffff1681526020019081526020015f2054612ec99190614060565b612ed39190614060565b612edd9190613fc8565b90505f620f4240612710612ef19190614060565b8288612efd9190614060565b612f079190613fc8565b90508086612f1591906140a1565b955083835f015f6101000a81548173ffffffffffffffffffffffffffffffffffffffff021916908373ffffffffffffffffffffffffffffffffffffffff160217905550612f6f81846001015461354190919063ffffffff16565b8360010181905550612f8e81846002015461354190919063ffffffff16565b836002018190555080601b5f8673ffffffffffffffffffffffffffffffffffffffff1673ffffffffffffffffffffffffffffffffffffffff1681526020019081526020015f205f828254612fe29190613f68565b925050819055507f271e0003fe7675b82aa8a904f75460c874200f17424cdd73c061638f46234107836001015460085484848b6040516130269594939291906144cd565b60405180910390a150505b50508080600101915050612d68565b505f60035f9054906101000a900473ffffffffffffffffffffffffffffffffffffffff1673ffffffffffffffffffffffffffffffffffffffff168260405161308790614224565b5f6040518083038185875af1925050503d805f81146130c1576040519150601f19603f3d011682016040523d82523d5f602084013e6130c6565b606091505b505090507f020baf09a572aa0dc0fa7b702b94ab94e1f833165fa58e9191a01420e98e9e46816040516130f9919061451e565b60405180910390a15f9150505050565b5f81816131169190613f68565b90505f60025f9054906101000a900473ffffffffffffffffffffffffffffffffffffffff1673ffffffffffffffffffffffffffffffffffffffff1663243bac7d6040518163ffffffff1660e01b8152600401602060405180830381865afa158015613183573d5f803e3d5ffd5b505050506040513d601f19601f820116820180604052508101906131a79190614343565b90506060806131b4613556565b80925081935050505f8251111561336e575f5b825181101561336c575f8382815181106131e4576131e3613f0e565b5b602002602001015190505f83838151811061320257613201613f0e565b5b602002602001015190505f86612710620f4240846132209190614060565b61322a9190614060565b6132349190613fc8565b90505f620f42406127106132489190614060565b828b6132549190614060565b61325e9190613fc8565b9050808961326c91906140a1565b98505f60115f8673ffffffffffffffffffffffffffffffffffffffff1673ffffffffffffffffffffffffffffffffffffffff1681526020019081526020015f20905084815f015f6101000a81548173ffffffffffffffffffffffffffffffffffffffff021916908373ffffffffffffffffffffffffffffffffffffffff16021790555061330682826001015461354190919063ffffffff16565b81600101819055508381600201819055507f9b49392c3bcbe0318fb2ef8d79d3c19c0dbf7672b4ac27628e6a48bfe1c33aa6816001015460075485856040516133529493929190614537565b60405180910390a1505050505080806001019150506131c7565b505b5f60035f9054906101000a900473ffffffffffffffffffffffffffffffffffffffff1673ffffffffffffffffffffffffffffffffffffffff16856040516133b490614224565b5f6040518083038185875af1925050503d805f81146133ee576040519150601f19603f3d011682016040523d82523d5f602084013e6133f3565b606091505b505090507f020baf09a572aa0dc0fa7b702b94ab94e1f833165fa58e9191a01420e98e9e4681604051613426919061451e565b60405180910390a15f9450505050505050565b5f33905090565b5f808260ff1610158015613457575060068260ff16105b613496576040517f08c379a000000000000000000000000000000000000000000000000000000000815260040161348d906145c4565b60405180910390fd5b5f6040518060c0016040528060ec61ffff16815260200161017e61ffff1681526020016101f461ffff16815260200161026a61ffff16815260200161031261ffff1681526020016103e861ffff1681525090505f818460ff1660068110613500576134ff613f0e565b5b602002015161ffff1690506103e8816103e861351c9190613f68565b613524611bf8565b61352e9190614060565b6135389190613fc8565b92505050919050565b5f818361354e9190613f68565b905092915050565b6060805f60025f9054906101000a900473ffffffffffffffffffffffffffffffffffffffff1673ffffffffffffffffffffffffffffffffffffffff16635fe8e7cc6040518163ffffffff1660e01b81526004015f60405180830381865afa1580156135c3573d5f803e3d5ffd5b505050506040513d5f823e3d601f19601f820116820180604052508101906135eb9190614746565b90505f815167ffffffffffffffff811115613609576136086145f6565b5b6040519080825280602002602001820160405280156136375781602001602082028036833780820191505090505b5090505f5b82518110156137245760025f9054906101000a900473ffffffffffffffffffffffffffffffffffffffff1673ffffffffffffffffffffffffffffffffffffffff166370a0823184838151811061369557613694613f0e565b5b60200260200101516040518263ffffffff1660e01b81526004016136b99190613c48565b602060405180830381865afa1580156136d4573d5f803e3d5ffd5b505050506040513d601f19601f820116820180604052508101906136f89190614343565b82828151811061370b5761370a613f0e565b5b602002602001018181525050808060010191505061363c565b5081819350935050509091565b5f604051905090565b5f80fd5b5f80fd5b5f73ffffffffffffffffffffffffffffffffffffffff82169050919050565b5f61376b82613742565b9050919050565b61377b81613761565b8114613785575f80fd5b50565b5f8135905061379681613772565b92915050565b5f602082840312156137b1576137b061373a565b5b5f6137be84828501613788565b91505092915050565b6137d081613761565b82525050565b5f819050919050565b6137e8816137d6565b82525050565b5f6060820190506138015f8301866137c7565b61380e60208301856137df565b61381b60408301846137df565b949350505050565b5f6020820190506138365f8301846137df565b92915050565b5f81519050919050565b5f82825260208201905092915050565b5f819050602082019050919050565b61386e81613761565b82525050565b61387d816137d6565b82525050565b60e082015f8201516138975f850182613865565b5060208201516138aa6020850182613874565b5060408201516138bd6040850182613874565b5060608201516138d06060850182613874565b5060808201516138e36080850182613874565b5060a08201516138f660a0850182613874565b5060c082015161390960c0850182613874565b50505050565b5f61391a8383613883565b60e08301905092915050565b5f602082019050919050565b5f61393c8261383c565b6139468185613846565b935061395183613856565b805f5b83811015613981578151613968888261390f565b975061397383613926565b925050600181019050613954565b5085935050505092915050565b5f6020820190508181035f8301526139a68184613932565b905092915050565b5f81519050919050565b5f82825260208201905092915050565b5f819050602082019050919050565b5f8115159050919050565b6139eb816139d7565b82525050565b60c082015f820151613a055f850182613865565b506020820151613a186020850182613874565b506040820151613a2b6040850182613874565b506060820151613a3e6060850182613874565b506080820151613a516080850182613874565b5060a0820151613a6460a08501826139e2565b50505050565b5f613a7583836139f1565b60c08301905092915050565b5f602082019050919050565b5f613a97826139ae565b613aa181856139b8565b9350613aac836139c8565b805f5b83811015613adc578151613ac38882613a6a565b9750613ace83613a81565b925050600181019050613aaf565b5085935050505092915050565b5f6020820190508181035f830152613b018184613a8d565b905092915050565b5f805f805f60a08688031215613b2257613b2161373a565b5b5f613b2f88828901613788565b9550506020613b4088828901613788565b9450506040613b5188828901613788565b9350506060613b6288828901613788565b9250506080613b7388828901613788565b9150509295509295909350565b5f81519050919050565b5f82825260208201905092915050565b5f819050602082019050919050565b5f613bb48383613865565b60208301905092915050565b5f602082019050919050565b5f613bd682613b80565b613be08185613b8a565b9350613beb83613b9a565b805f5b83811015613c1b578151613c028882613ba9565b9750613c0d83613bc0565b925050600181019050613bee565b5085935050505092915050565b5f6020820190508181035f830152613c408184613bcc565b905092915050565b5f602082019050613c5b5f8301846137c7565b92915050565b5f60a082019050613c745f8301886137c7565b613c8160208301876137c7565b613c8e60408301866137c7565b613c9b60608301856137c7565b613ca860808301846137c7565b9695505050505050565b613cbb816137d6565b8114613cc5575f80fd5b50565b5f81359050613cd681613cb2565b92915050565b5f60208284031215613cf157613cf061373a565b5b5f613cfe84828501613cc8565b91505092915050565b5f81519050919050565b5f82825260208201905092915050565b5f819050602082019050919050565b61010082015f820151613d455f850182613865565b506020820151613d586020850182613874565b506040820151613d6b6040850182613874565b506060820151613d7e6060850182613874565b506080820151613d916080850182613874565b5060a0820151613da460a0850182613874565b5060c0820151613db760c0850182613874565b5060e0820151613dca60e08501826139e2565b50505050565b5f613ddb8383613d30565b6101008301905092915050565b5f602082019050919050565b5f613dfe82613d07565b613e088185613d11565b9350613e1383613d21565b805f5b83811015613e43578151613e2a8882613dd0565b9750613e3583613de8565b925050600181019050613e16565b5085935050505092915050565b5f6020820190508181035f830152613e688184613df4565b905092915050565b5f82825260208201905092915050565b7f4f6e6c79206261636b656e64206f7065726174696f6e2063616e2063616c6c205f8201527f746869732066756e6374696f6e2e000000000000000000000000000000000000602082015250565b5f613eda602e83613e70565b9150613ee582613e80565b604082019050919050565b5f6020820190508181035f830152613f0781613ece565b9050919050565b7f4e487b71000000000000000000000000000000000000000000000000000000005f52603260045260245ffd5b7f4e487b71000000000000000000000000000000000000000000000000000000005f52601160045260245ffd5b5f613f72826137d6565b9150613f7d836137d6565b9250828201905080821115613f9557613f94613f3b565b5b92915050565b7f4e487b71000000000000000000000000000000000000000000000000000000005f52601260045260245ffd5b5f613fd2826137d6565b9150613fdd836137d6565b925082613fed57613fec613f9b565b5b828204905092915050565b7f496e73756666696369656e7420636f6e74726163742062616c616e63650000005f82015250565b5f61402c601d83613e70565b915061403782613ff8565b602082019050919050565b5f6020820190508181035f83015261405981614020565b9050919050565b5f61406a826137d6565b9150614075836137d6565b9250828202614083816137d6565b9150828204841483151761409a57614099613f3b565b5b5092915050565b5f6140ab826137d6565b91506140b6836137d6565b92508282039050818111156140ce576140cd613f3b565b5b92915050565b6140dd816139d7565b82525050565b5f6080820190506140f65f8301876137df565b61410360208301866137df565b61411060408301856137df565b61411d60608301846140d4565b95945050505050565b5f6080820190506141395f8301876137c7565b61414660208301866137df565b61415360408301856137c7565b61416060608301846137df565b95945050505050565b7f4e6f2066756e647320617661696c61626c6520696e20796f75722072657761725f8201527f642e000000000000000000000000000000000000000000000000000000000000602082015250565b5f6141c3602283613e70565b91506141ce82614169565b604082019050919050565b5f6020820190508181035f8301526141f0816141b7565b9050919050565b5f81905092915050565b50565b5f61420f5f836141f7565b915061421a82614201565b5f82019050919050565b5f61422e82614204565b9150819050919050565b7f55736572207472616e73616374696f6e206661696c65642e00000000000000005f82015250565b5f61426c601883613e70565b915061427782614238565b602082019050919050565b5f6020820190508181035f83015261429981614260565b9050919050565b7f41646d696e207472616e73616374696f6e206661696c65642e000000000000005f82015250565b5f6142d4601983613e70565b91506142df826142a0565b602082019050919050565b5f6020820190508181035f830152614301816142c8565b9050919050565b5f60408201905061431b5f8301856137df565b61432860208301846137df565b9392505050565b5f8151905061433d81613cb2565b92915050565b5f602082840312156143585761435761373a565b5b5f6143658482850161432f565b91505092915050565b7f456e74657220612076616c696420616d6f756e740000000000000000000000005f82015250565b5f6143a2601483613e70565b91506143ad8261436e565b602082019050919050565b5f6020820190508181035f8301526143cf81614396565b9050919050565b5f6143e0826137d6565b91507fffffffffffffffffffffffffffffffffffffffffffffffffffffffffffffffff820361441257614411613f3b565b5b600182019050919050565b5f6080820190506144305f8301876137df565b61443d60208301866140d4565b61444a60408301856137df565b61445760608301846137df565b95945050505050565b5f60e0820190506144735f83018a6137df565b61448060208301896137df565b61448d60408301886137df565b61449a60608301876137df565b6144a760808301866137df565b6144b460a08301856137df565b6144c160c08301846137df565b98975050505050505050565b5f60a0820190506144e05f8301886137df565b6144ed60208301876137df565b6144fa60408301866137df565b61450760608301856137df565b61451460808301846137df565b9695505050505050565b5f6020820190506145315f8301846140d4565b92915050565b5f60808201905061454a5f8301876137df565b61455760208301866137df565b61456460408301856137df565b61457160608301846137df565b95945050505050565b7f496e76616c6964204669626f6e6163636920696e6465780000000000000000005f82015250565b5f6145ae601783613e70565b91506145b98261457a565b602082019050919050565b5f6020820190508181035f8301526145db816145a2565b9050919050565b5f80fd5b5f601f19601f8301169050919050565b7f4e487b71000000000000000000000000000000000000000000000000000000005f52604160045260245ffd5b61462c826145e6565b810181811067ffffffffffffffff8211171561464b5761464a6145f6565b5b80604052505050565b5f61465d613731565b90506146698282614623565b919050565b5f67ffffffffffffffff821115614688576146876145f6565b5b602082029050602081019050919050565b5f80fd5b5f815190506146ab81613772565b92915050565b5f6146c36146be8461466e565b614654565b905080838252602082019050602084028301858111156146e6576146e5614699565b5b835b8181101561470f57806146fb888261469d565b8452602084019350506020810190506146e8565b5050509392505050565b5f82601f83011261472d5761472c6145e2565b5b815161473d8482602086016146b1565b91505092915050565b5f6020828403121561475b5761475a61373a565b5b5f82015167ffffffffffffffff8111156147785761477761373e565b5b61478484828501614719565b9150509291505056fea26469706673582212204614814e993e3f5b2bd47daf219083026020655532aad5e4bcc10223a6efd28c64736f6c63430008180033",
			"opcodes": "PUSH1 0x80 PUSH1 0x40 MSTORE PUSH1 0x1 PUSH1 0x6 SSTORE CALLVALUE DUP1 ISZERO PUSH3 0x15 JUMPI PUSH0 DUP1 REVERT JUMPDEST POP CALLER PUSH0 PUSH20 0xFFFFFFFFFFFFFFFFFFFFFFFFFFFFFFFFFFFFFFFF AND DUP2 PUSH20 0xFFFFFFFFFFFFFFFFFFFFFFFFFFFFFFFFFFFFFFFF AND SUB PUSH3 0x8A JUMPI PUSH0 PUSH1 0x40 MLOAD PUSH32 0x1E4FBDF700000000000000000000000000000000000000000000000000000000 DUP2 MSTORE PUSH1 0x4 ADD PUSH3 0x81 SWAP2 SWAP1 PUSH3 0x362 JUMP JUMPDEST PUSH1 0x40 MLOAD DUP1 SWAP2 SUB SWAP1 REVERT JUMPDEST PUSH3 0x9B DUP2 PUSH3 0x25E PUSH1 0x20 SHL PUSH1 0x20 SHR JUMP JUMPDEST POP PUSH20 0x31348CDCFB26CC8E3ABC5205FB47C74F8DA757D6 PUSH1 0x3 PUSH0 PUSH2 0x100 EXP DUP2 SLOAD DUP2 PUSH20 0xFFFFFFFFFFFFFFFFFFFFFFFFFFFFFFFFFFFFFFFF MUL NOT AND SWAP1 DUP4 PUSH20 0xFFFFFFFFFFFFFFFFFFFFFFFFFFFFFFFFFFFFFFFF AND MUL OR SWAP1 SSTORE POP PUSH20 0x5E19E86F1D10C59ED9290CB986E587D2541E942C PUSH1 0x5 PUSH0 PUSH2 0x100 EXP DUP2 SLOAD DUP2 PUSH20 0xFFFFFFFFFFFFFFFFFFFFFFFFFFFFFFFFFFFFFFFF MUL NOT AND SWAP1 DUP4 PUSH20 0xFFFFFFFFFFFFFFFFFFFFFFFFFFFFFFFFFFFFFFFF AND MUL OR SWAP1 SSTORE POP PUSH20 0xB9B2C57E5428E31FFA21B302AED689F4CA2447FE PUSH1 0x4 PUSH0 PUSH2 0x100 EXP DUP2 SLOAD DUP2 PUSH20 0xFFFFFFFFFFFFFFFFFFFFFFFFFFFFFFFFFFFFFFFF MUL NOT AND SWAP1 DUP4 PUSH20 0xFFFFFFFFFFFFFFFFFFFFFFFFFFFFFFFFFFFFFFFF AND MUL OR SWAP1 SSTORE POP PUSH20 0x68D0934F1E1F0347AAD5632084D153CDBFE07992 PUSH1 0x1 PUSH0 PUSH2 0x100 EXP DUP2 SLOAD DUP2 PUSH20 0xFFFFFFFFFFFFFFFFFFFFFFFFFFFFFFFFFFFFFFFF MUL NOT AND SWAP1 DUP4 PUSH20 0xFFFFFFFFFFFFFFFFFFFFFFFFFFFFFFFFFFFFFFFF AND MUL OR SWAP1 SSTORE POP PUSH20 0x733336A32B75113935945288E3A4166373EEC312 PUSH1 0x2 PUSH0 PUSH2 0x100 EXP DUP2 SLOAD DUP2 PUSH20 0xFFFFFFFFFFFFFFFFFFFFFFFFFFFFFFFFFFFFFFFF MUL NOT AND SWAP1 DUP4 PUSH20 0xFFFFFFFFFFFFFFFFFFFFFFFFFFFFFFFFFFFFFFFF AND MUL OR SWAP1 SSTORE POP PUSH3 0x251 CALLER PUSH3 0x25E PUSH1 0x20 SHL PUSH1 0x20 SHR JUMP JUMPDEST TIMESTAMP PUSH1 0xB DUP2 SWAP1 SSTORE POP PUSH3 0x37D JUMP JUMPDEST PUSH0 DUP1 PUSH0 SWAP1 SLOAD SWAP1 PUSH2 0x100 EXP SWAP1 DIV PUSH20 0xFFFFFFFFFFFFFFFFFFFFFFFFFFFFFFFFFFFFFFFF AND SWAP1 POP DUP2 PUSH0 DUP1 PUSH2 0x100 EXP DUP2 SLOAD DUP2 PUSH20 0xFFFFFFFFFFFFFFFFFFFFFFFFFFFFFFFFFFFFFFFF MUL NOT AND SWAP1 DUP4 PUSH20 0xFFFFFFFFFFFFFFFFFFFFFFFFFFFFFFFFFFFFFFFF AND MUL OR SWAP1 SSTORE POP DUP2 PUSH20 0xFFFFFFFFFFFFFFFFFFFFFFFFFFFFFFFFFFFFFFFF AND DUP2 PUSH20 0xFFFFFFFFFFFFFFFFFFFFFFFFFFFFFFFFFFFFFFFF AND PUSH32 0x8BE0079C531659141344CD1FD0A4F28419497F9722A3DAAFE3B4186F6B6457E0 PUSH1 0x40 MLOAD PUSH1 0x40 MLOAD DUP1 SWAP2 SUB SWAP1 LOG3 POP POP JUMP JUMPDEST PUSH0 PUSH20 0xFFFFFFFFFFFFFFFFFFFFFFFFFFFFFFFFFFFFFFFF DUP3 AND SWAP1 POP SWAP2 SWAP1 POP JUMP JUMPDEST PUSH0 PUSH3 0x34A DUP3 PUSH3 0x31F JUMP JUMPDEST SWAP1 POP SWAP2 SWAP1 POP JUMP JUMPDEST PUSH3 0x35C DUP2 PUSH3 0x33E JUMP JUMPDEST DUP3 MSTORE POP POP JUMP JUMPDEST PUSH0 PUSH1 0x20 DUP3 ADD SWAP1 POP PUSH3 0x377 PUSH0 DUP4 ADD DUP5 PUSH3 0x351 JUMP JUMPDEST SWAP3 SWAP2 POP POP JUMP JUMPDEST PUSH2 0x47C3 DUP1 PUSH3 0x38B PUSH0 CODECOPY PUSH0 RETURN INVALID PUSH1 0x80 PUSH1 0x40 MSTORE PUSH1 0x4 CALLDATASIZE LT PUSH2 0x212 JUMPI PUSH0 CALLDATALOAD PUSH1 0xE0 SHR DUP1 PUSH4 0x7A458D7A GT PUSH2 0x117 JUMPI DUP1 PUSH4 0xB3CEA217 GT PUSH2 0x9F JUMPI DUP1 PUSH4 0xDF75C7CF GT PUSH2 0x6E JUMPI DUP1 PUSH4 0xDF75C7CF EQ PUSH2 0x78D JUMPI DUP1 PUSH4 0xE242B394 EQ PUSH2 0x7B7 JUMPI DUP1 PUSH4 0xF29804B0 EQ PUSH2 0x7F5 JUMPI DUP1 PUSH4 0xF2FDE38B EQ PUSH2 0x831 JUMPI DUP1 PUSH4 0xF5648A4F EQ PUSH2 0x859 JUMPI PUSH2 0x219 JUMP JUMPDEST DUP1 PUSH4 0xB3CEA217 EQ PUSH2 0x6E1 JUMPI DUP1 PUSH4 0xC349C796 EQ PUSH2 0x70B JUMPI DUP1 PUSH4 0xD0E30DB0 EQ PUSH2 0x747 JUMPI DUP1 PUSH4 0xD4F13DEF EQ PUSH2 0x751 JUMPI PUSH2 0x219 JUMP JUMPDEST DUP1 PUSH4 0x921C9964 GT PUSH2 0xE6 JUMPI DUP1 PUSH4 0x921C9964 EQ PUSH2 0x60B JUMPI DUP1 PUSH4 0x97273000 EQ PUSH2 0x635 JUMPI DUP1 PUSH4 0x9848C729 EQ PUSH2 0x65F JUMPI DUP1 PUSH4 0xA035B1FE EQ PUSH2 0x689 JUMPI DUP1 PUSH4 0xA39FAC12 EQ PUSH2 0x6B3 JUMPI PUSH2 0x219 JUMP JUMPDEST DUP1 PUSH4 0x7A458D7A EQ PUSH2 0x565 JUMPI DUP1 PUSH4 0x82C23F7C EQ PUSH2 0x58F JUMPI DUP1 PUSH4 0x8A623D86 EQ PUSH2 0x5CB JUMPI DUP1 PUSH4 0x8DA5CB5B EQ PUSH2 0x5E1 JUMPI PUSH2 0x219 JUMP JUMPDEST DUP1 PUSH4 0x56797CD1 GT PUSH2 0x19A JUMPI DUP1 PUSH4 0x6C24FA69 GT PUSH2 0x169 JUMPI DUP1 PUSH4 0x6C24FA69 EQ PUSH2 0x483 JUMPI DUP1 PUSH4 0x6C7B7F2E EQ PUSH2 0x4BF JUMPI DUP1 PUSH4 0x6F9FB98A EQ PUSH2 0x4E9 JUMPI DUP1 PUSH4 0x715018A6 EQ PUSH2 0x513 JUMPI DUP1 PUSH4 0x77CA2548 EQ PUSH2 0x529 JUMPI PUSH2 0x219 JUMP JUMPDEST DUP1 PUSH4 0x56797CD1 EQ PUSH2 0x3B9 JUMPI DUP1 PUSH4 0x5DD68ACD EQ PUSH2 0x3F5 JUMPI DUP1 PUSH4 0x5EF371E3 EQ PUSH2 0x41D JUMPI DUP1 PUSH4 0x68EF5FA3 EQ PUSH2 0x459 JUMPI PUSH2 0x219 JUMP JUMPDEST DUP1 PUSH4 0x2972DC79 GT PUSH2 0x1E1 JUMPI DUP1 PUSH4 0x2972DC79 EQ PUSH2 0x2D7 JUMPI DUP1 PUSH4 0x316050D0 EQ PUSH2 0x313 JUMPI DUP1 PUSH4 0x4F802DFD EQ PUSH2 0x34F JUMPI DUP1 PUSH4 0x512914F7 EQ PUSH2 0x379 JUMPI DUP1 PUSH4 0x54366808 EQ PUSH2 0x3A3 JUMPI PUSH2 0x219 JUMP JUMPDEST DUP1 PUSH4 0xA992E0C EQ PUSH2 0x21D JUMPI DUP1 PUSH4 0xB0885AD EQ PUSH2 0x25B JUMPI DUP1 PUSH4 0x1A0D58ED EQ PUSH2 0x285 JUMPI DUP1 PUSH4 0x29415A59 EQ PUSH2 0x29B JUMPI PUSH2 0x219 JUMP JUMPDEST CALLDATASIZE PUSH2 0x219 JUMPI STOP JUMPDEST PUSH0 DUP1 REVERT JUMPDEST CALLVALUE DUP1 ISZERO PUSH2 0x228 JUMPI PUSH0 DUP1 REVERT JUMPDEST POP PUSH2 0x243 PUSH1 0x4 DUP1 CALLDATASIZE SUB DUP2 ADD SWAP1 PUSH2 0x23E SWAP2 SWAP1 PUSH2 0x379C JUMP JUMPDEST PUSH2 0x86F JUMP JUMPDEST PUSH1 0x40 MLOAD PUSH2 0x252 SWAP4 SWAP3 SWAP2 SWAP1 PUSH2 0x37EE JUMP JUMPDEST PUSH1 0x40 MLOAD DUP1 SWAP2 SUB SWAP1 RETURN JUMPDEST CALLVALUE DUP1 ISZERO PUSH2 0x266 JUMPI PUSH0 DUP1 REVERT JUMPDEST POP PUSH2 0x26F PUSH2 0x941 JUMP JUMPDEST PUSH1 0x40 MLOAD PUSH2 0x27C SWAP2 SWAP1 PUSH2 0x3823 JUMP JUMPDEST PUSH1 0x40 MLOAD DUP1 SWAP2 SUB SWAP1 RETURN JUMPDEST CALLVALUE DUP1 ISZERO PUSH2 0x290 JUMPI PUSH0 DUP1 REVERT JUMPDEST POP PUSH2 0x299 PUSH2 0x947 JUMP JUMPDEST STOP JUMPDEST CALLVALUE DUP1 ISZERO PUSH2 0x2A6 JUMPI PUSH0 DUP1 REVERT JUMPDEST POP PUSH2 0x2C1 PUSH1 0x4 DUP1 CALLDATASIZE SUB DUP2 ADD SWAP1 PUSH2 0x2BC SWAP2 SWAP1 PUSH2 0x379C JUMP JUMPDEST PUSH2 0xD90 JUMP JUMPDEST PUSH1 0x40 MLOAD PUSH2 0x2CE SWAP2 SWAP1 PUSH2 0x398E JUMP JUMPDEST PUSH1 0x40 MLOAD DUP1 SWAP2 SUB SWAP1 RETURN JUMPDEST CALLVALUE DUP1 ISZERO PUSH2 0x2E2 JUMPI PUSH0 DUP1 REVERT JUMPDEST POP PUSH2 0x2FD PUSH1 0x4 DUP1 CALLDATASIZE SUB DUP2 ADD SWAP1 PUSH2 0x2F8 SWAP2 SWAP1 PUSH2 0x379C JUMP JUMPDEST PUSH2 0xEB9 JUMP JUMPDEST PUSH1 0x40 MLOAD PUSH2 0x30A SWAP2 SWAP1 PUSH2 0x3AE9 JUMP JUMPDEST PUSH1 0x40 MLOAD DUP1 SWAP2 SUB SWAP1 RETURN JUMPDEST CALLVALUE DUP1 ISZERO PUSH2 0x31E JUMPI PUSH0 DUP1 REVERT JUMPDEST POP PUSH2 0x339 PUSH1 0x4 DUP1 CALLDATASIZE SUB DUP2 ADD SWAP1 PUSH2 0x334 SWAP2 SWAP1 PUSH2 0x379C JUMP JUMPDEST PUSH2 0xFE8 JUMP JUMPDEST PUSH1 0x40 MLOAD PUSH2 0x346 SWAP2 SWAP1 PUSH2 0x3823 JUMP JUMPDEST PUSH1 0x40 MLOAD DUP1 SWAP2 SUB SWAP1 RETURN JUMPDEST CALLVALUE DUP1 ISZERO PUSH2 0x35A JUMPI PUSH0 DUP1 REVERT JUMPDEST POP PUSH2 0x363 PUSH2 0xFFD JUMP JUMPDEST PUSH1 0x40 MLOAD PUSH2 0x370 SWAP2 SWAP1 PUSH2 0x3823 JUMP JUMPDEST PUSH1 0x40 MLOAD DUP1 SWAP2 SUB SWAP1 RETURN JUMPDEST CALLVALUE DUP1 ISZERO PUSH2 0x384 JUMPI PUSH0 DUP1 REVERT JUMPDEST POP PUSH2 0x38D PUSH2 0x1006 JUMP JUMPDEST PUSH1 0x40 MLOAD PUSH2 0x39A SWAP2 SWAP1 PUSH2 0x3823 JUMP JUMPDEST PUSH1 0x40 MLOAD DUP1 SWAP2 SUB SWAP1 RETURN JUMPDEST CALLVALUE DUP1 ISZERO PUSH2 0x3AE JUMPI PUSH0 DUP1 REVERT JUMPDEST POP PUSH2 0x3B7 PUSH2 0x100F JUMP JUMPDEST STOP JUMPDEST CALLVALUE DUP1 ISZERO PUSH2 0x3C4 JUMPI PUSH0 DUP1 REVERT JUMPDEST POP PUSH2 0x3DF PUSH1 0x4 DUP1 CALLDATASIZE SUB DUP2 ADD SWAP1 PUSH2 0x3DA SWAP2 SWAP1 PUSH2 0x379C JUMP JUMPDEST PUSH2 0x1412 JUMP JUMPDEST PUSH1 0x40 MLOAD PUSH2 0x3EC SWAP2 SWAP1 PUSH2 0x3823 JUMP JUMPDEST PUSH1 0x40 MLOAD DUP1 SWAP2 SUB SWAP1 RETURN JUMPDEST CALLVALUE DUP1 ISZERO PUSH2 0x400 JUMPI PUSH0 DUP1 REVERT JUMPDEST POP PUSH2 0x41B PUSH1 0x4 DUP1 CALLDATASIZE SUB DUP2 ADD SWAP1 PUSH2 0x416 SWAP2 SWAP1 PUSH2 0x3B09 JUMP JUMPDEST PUSH2 0x1427 JUMP JUMPDEST STOP JUMPDEST CALLVALUE DUP1 ISZERO PUSH2 0x428 JUMPI PUSH0 DUP1 REVERT JUMPDEST POP PUSH2 0x443 PUSH1 0x4 DUP1 CALLDATASIZE SUB DUP2 ADD SWAP1 PUSH2 0x43E SWAP2 SWAP1 PUSH2 0x379C JUMP JUMPDEST PUSH2 0x1576 JUMP JUMPDEST PUSH1 0x40 MLOAD PUSH2 0x450 SWAP2 SWAP1 PUSH2 0x3823 JUMP JUMPDEST PUSH1 0x40 MLOAD DUP1 SWAP2 SUB SWAP1 RETURN JUMPDEST CALLVALUE DUP1 ISZERO PUSH2 0x464 JUMPI PUSH0 DUP1 REVERT JUMPDEST POP PUSH2 0x46D PUSH2 0x158B JUMP JUMPDEST PUSH1 0x40 MLOAD PUSH2 0x47A SWAP2 SWAP1 PUSH2 0x3823 JUMP JUMPDEST PUSH1 0x40 MLOAD DUP1 SWAP2 SUB SWAP1 RETURN JUMPDEST CALLVALUE DUP1 ISZERO PUSH2 0x48E JUMPI PUSH0 DUP1 REVERT JUMPDEST POP PUSH2 0x4A9 PUSH1 0x4 DUP1 CALLDATASIZE SUB DUP2 ADD SWAP1 PUSH2 0x4A4 SWAP2 SWAP1 PUSH2 0x379C JUMP JUMPDEST PUSH2 0x1591 JUMP JUMPDEST PUSH1 0x40 MLOAD PUSH2 0x4B6 SWAP2 SWAP1 PUSH2 0x3823 JUMP JUMPDEST PUSH1 0x40 MLOAD DUP1 SWAP2 SUB SWAP1 RETURN JUMPDEST CALLVALUE DUP1 ISZERO PUSH2 0x4CA JUMPI PUSH0 DUP1 REVERT JUMPDEST POP PUSH2 0x4D3 PUSH2 0x15D7 JUMP JUMPDEST PUSH1 0x40 MLOAD PUSH2 0x4E0 SWAP2 SWAP1 PUSH2 0x3C28 JUMP JUMPDEST PUSH1 0x40 MLOAD DUP1 SWAP2 SUB SWAP1 RETURN JUMPDEST CALLVALUE DUP1 ISZERO PUSH2 0x4F4 JUMPI PUSH0 DUP1 REVERT JUMPDEST POP PUSH2 0x4FD PUSH2 0x1662 JUMP JUMPDEST PUSH1 0x40 MLOAD PUSH2 0x50A SWAP2 SWAP1 PUSH2 0x3823 JUMP JUMPDEST PUSH1 0x40 MLOAD DUP1 SWAP2 SUB SWAP1 RETURN JUMPDEST CALLVALUE DUP1 ISZERO PUSH2 0x51E JUMPI PUSH0 DUP1 REVERT JUMPDEST POP PUSH2 0x527 PUSH2 0x1669 JUMP JUMPDEST STOP JUMPDEST CALLVALUE DUP1 ISZERO PUSH2 0x534 JUMPI PUSH0 DUP1 REVERT JUMPDEST POP PUSH2 0x54F PUSH1 0x4 DUP1 CALLDATASIZE SUB DUP2 ADD SWAP1 PUSH2 0x54A SWAP2 SWAP1 PUSH2 0x379C JUMP JUMPDEST PUSH2 0x167C JUMP JUMPDEST PUSH1 0x40 MLOAD PUSH2 0x55C SWAP2 SWAP1 PUSH2 0x3823 JUMP JUMPDEST PUSH1 0x40 MLOAD DUP1 SWAP2 SUB SWAP1 RETURN JUMPDEST CALLVALUE DUP1 ISZERO PUSH2 0x570 JUMPI PUSH0 DUP1 REVERT JUMPDEST POP PUSH2 0x579 PUSH2 0x1691 JUMP JUMPDEST PUSH1 0x40 MLOAD PUSH2 0x586 SWAP2 SWAP1 PUSH2 0x3823 JUMP JUMPDEST PUSH1 0x40 MLOAD DUP1 SWAP2 SUB SWAP1 RETURN JUMPDEST CALLVALUE DUP1 ISZERO PUSH2 0x59A JUMPI PUSH0 DUP1 REVERT JUMPDEST POP PUSH2 0x5B5 PUSH1 0x4 DUP1 CALLDATASIZE SUB DUP2 ADD SWAP1 PUSH2 0x5B0 SWAP2 SWAP1 PUSH2 0x379C JUMP JUMPDEST PUSH2 0x1698 JUMP JUMPDEST PUSH1 0x40 MLOAD PUSH2 0x5C2 SWAP2 SWAP1 PUSH2 0x3823 JUMP JUMPDEST PUSH1 0x40 MLOAD DUP1 SWAP2 SUB SWAP1 RETURN JUMPDEST CALLVALUE DUP1 ISZERO PUSH2 0x5D6 JUMPI PUSH0 DUP1 REVERT JUMPDEST POP PUSH2 0x5DF PUSH2 0x16DE JUMP JUMPDEST STOP JUMPDEST CALLVALUE DUP1 ISZERO PUSH2 0x5EC JUMPI PUSH0 DUP1 REVERT JUMPDEST POP PUSH2 0x5F5 PUSH2 0x1BB9 JUMP JUMPDEST PUSH1 0x40 MLOAD PUSH2 0x602 SWAP2 SWAP1 PUSH2 0x3C48 JUMP JUMPDEST PUSH1 0x40 MLOAD DUP1 SWAP2 SUB SWAP1 RETURN JUMPDEST CALLVALUE DUP1 ISZERO PUSH2 0x616 JUMPI PUSH0 DUP1 REVERT JUMPDEST POP PUSH2 0x61F PUSH2 0x1BE0 JUMP JUMPDEST PUSH1 0x40 MLOAD PUSH2 0x62C SWAP2 SWAP1 PUSH2 0x3823 JUMP JUMPDEST PUSH1 0x40 MLOAD DUP1 SWAP2 SUB SWAP1 RETURN JUMPDEST CALLVALUE DUP1 ISZERO PUSH2 0x640 JUMPI PUSH0 DUP1 REVERT JUMPDEST POP PUSH2 0x649 PUSH2 0x1BE9 JUMP JUMPDEST PUSH1 0x40 MLOAD PUSH2 0x656 SWAP2 SWAP1 PUSH2 0x3823 JUMP JUMPDEST PUSH1 0x40 MLOAD DUP1 SWAP2 SUB SWAP1 RETURN JUMPDEST CALLVALUE DUP1 ISZERO PUSH2 0x66A JUMPI PUSH0 DUP1 REVERT JUMPDEST POP PUSH2 0x673 PUSH2 0x1BF2 JUMP JUMPDEST PUSH1 0x40 MLOAD PUSH2 0x680 SWAP2 SWAP1 PUSH2 0x3823 JUMP JUMPDEST PUSH1 0x40 MLOAD DUP1 SWAP2 SUB SWAP1 RETURN JUMPDEST CALLVALUE DUP1 ISZERO PUSH2 0x694 JUMPI PUSH0 DUP1 REVERT JUMPDEST POP PUSH2 0x69D PUSH2 0x1BF8 JUMP JUMPDEST PUSH1 0x40 MLOAD PUSH2 0x6AA SWAP2 SWAP1 PUSH2 0x3823 JUMP JUMPDEST PUSH1 0x40 MLOAD DUP1 SWAP2 SUB SWAP1 RETURN JUMPDEST CALLVALUE DUP1 ISZERO PUSH2 0x6BE JUMPI PUSH0 DUP1 REVERT JUMPDEST POP PUSH2 0x6C7 PUSH2 0x1C8C JUMP JUMPDEST PUSH1 0x40 MLOAD PUSH2 0x6D8 SWAP6 SWAP5 SWAP4 SWAP3 SWAP2 SWAP1 PUSH2 0x3C61 JUMP JUMPDEST PUSH1 0x40 MLOAD DUP1 SWAP2 SUB SWAP1 RETURN JUMPDEST CALLVALUE DUP1 ISZERO PUSH2 0x6EC JUMPI PUSH0 DUP1 REVERT JUMPDEST POP PUSH2 0x6F5 PUSH2 0x1D4C JUMP JUMPDEST PUSH1 0x40 MLOAD PUSH2 0x702 SWAP2 SWAP1 PUSH2 0x3823 JUMP JUMPDEST PUSH1 0x40 MLOAD DUP1 SWAP2 SUB SWAP1 RETURN JUMPDEST CALLVALUE DUP1 ISZERO PUSH2 0x716 JUMPI PUSH0 DUP1 REVERT JUMPDEST POP PUSH2 0x731 PUSH1 0x4 DUP1 CALLDATASIZE SUB DUP2 ADD SWAP1 PUSH2 0x72C SWAP2 SWAP1 PUSH2 0x379C JUMP JUMPDEST PUSH2 0x1D52 JUMP JUMPDEST PUSH1 0x40 MLOAD PUSH2 0x73E SWAP2 SWAP1 PUSH2 0x3823 JUMP JUMPDEST PUSH1 0x40 MLOAD DUP1 SWAP2 SUB SWAP1 RETURN JUMPDEST PUSH2 0x74F PUSH2 0x1D67 JUMP JUMPDEST STOP JUMPDEST CALLVALUE DUP1 ISZERO PUSH2 0x75C JUMPI PUSH0 DUP1 REVERT JUMPDEST POP PUSH2 0x777 PUSH1 0x4 DUP1 CALLDATASIZE SUB DUP2 ADD SWAP1 PUSH2 0x772 SWAP2 SWAP1 PUSH2 0x379C JUMP JUMPDEST PUSH2 0x238A JUMP JUMPDEST PUSH1 0x40 MLOAD PUSH2 0x784 SWAP2 SWAP1 PUSH2 0x3823 JUMP JUMPDEST PUSH1 0x40 MLOAD DUP1 SWAP2 SUB SWAP1 RETURN JUMPDEST CALLVALUE DUP1 ISZERO PUSH2 0x798 JUMPI PUSH0 DUP1 REVERT JUMPDEST POP PUSH2 0x7A1 PUSH2 0x23D0 JUMP JUMPDEST PUSH1 0x40 MLOAD PUSH2 0x7AE SWAP2 SWAP1 PUSH2 0x3823 JUMP JUMPDEST PUSH1 0x40 MLOAD DUP1 SWAP2 SUB SWAP1 RETURN JUMPDEST CALLVALUE DUP1 ISZERO PUSH2 0x7C2 JUMPI PUSH0 DUP1 REVERT JUMPDEST POP PUSH2 0x7DD PUSH1 0x4 DUP1 CALLDATASIZE SUB DUP2 ADD SWAP1 PUSH2 0x7D8 SWAP2 SWAP1 PUSH2 0x379C JUMP JUMPDEST PUSH2 0x2417 JUMP JUMPDEST PUSH1 0x40 MLOAD PUSH2 0x7EC SWAP4 SWAP3 SWAP2 SWAP1 PUSH2 0x37EE JUMP JUMPDEST PUSH1 0x40 MLOAD DUP1 SWAP2 SUB SWAP1 RETURN JUMPDEST CALLVALUE DUP1 ISZERO PUSH2 0x800 JUMPI PUSH0 DUP1 REVERT JUMPDEST POP PUSH2 0x81B PUSH1 0x4 DUP1 CALLDATASIZE SUB DUP2 ADD SWAP1 PUSH2 0x816 SWAP2 SWAP1 PUSH2 0x3CDC JUMP JUMPDEST PUSH2 0x24E9 JUMP JUMPDEST PUSH1 0x40 MLOAD PUSH2 0x828 SWAP2 SWAP1 PUSH2 0x3E50 JUMP JUMPDEST PUSH1 0x40 MLOAD DUP1 SWAP2 SUB SWAP1 RETURN JUMPDEST CALLVALUE DUP1 ISZERO PUSH2 0x83C JUMPI PUSH0 DUP1 REVERT JUMPDEST POP PUSH2 0x857 PUSH1 0x4 DUP1 CALLDATASIZE SUB DUP2 ADD SWAP1 PUSH2 0x852 SWAP2 SWAP1 PUSH2 0x379C JUMP JUMPDEST PUSH2 0x2601 JUMP JUMPDEST STOP JUMPDEST CALLVALUE DUP1 ISZERO PUSH2 0x864 JUMPI PUSH0 DUP1 REVERT JUMPDEST POP PUSH2 0x86D PUSH2 0x2685 JUMP JUMPDEST STOP JUMPDEST PUSH0 DUP1 PUSH0 DUP1 PUSH1 0x11 PUSH0 DUP7 PUSH20 0xFFFFFFFFFFFFFFFFFFFFFFFFFFFFFFFFFFFFFFFF AND PUSH20 0xFFFFFFFFFFFFFFFFFFFFFFFFFFFFFFFFFFFFFFFF AND DUP2 MSTORE PUSH1 0x20 ADD SWAP1 DUP2 MSTORE PUSH1 0x20 ADD PUSH0 KECCAK256 PUSH1 0x40 MLOAD DUP1 PUSH1 0x60 ADD PUSH1 0x40 MSTORE SWAP1 DUP2 PUSH0 DUP3 ADD PUSH0 SWAP1 SLOAD SWAP1 PUSH2 0x100 EXP SWAP1 DIV PUSH20 0xFFFFFFFFFFFFFFFFFFFFFFFFFFFFFFFFFFFFFFFF AND PUSH20 0xFFFFFFFFFFFFFFFFFFFFFFFFFFFFFFFFFFFFFFFF AND PUSH20 0xFFFFFFFFFFFFFFFFFFFFFFFFFFFFFFFFFFFFFFFF AND DUP2 MSTORE PUSH1 0x20 ADD PUSH1 0x1 DUP3 ADD SLOAD DUP2 MSTORE PUSH1 0x20 ADD PUSH1 0x2 DUP3 ADD SLOAD DUP2 MSTORE POP POP SWAP1 POP DUP1 PUSH0 ADD MLOAD DUP2 PUSH1 0x20 ADD MLOAD DUP3 PUSH1 0x40 ADD MLOAD SWAP4 POP SWAP4 POP SWAP4 POP POP SWAP2 SWAP4 SWAP1 SWAP3 POP JUMP JUMPDEST PUSH1 0xC SLOAD DUP2 JUMP JUMPDEST PUSH1 0x4 PUSH0 SWAP1 SLOAD SWAP1 PUSH2 0x100 EXP SWAP1 DIV PUSH20 0xFFFFFFFFFFFFFFFFFFFFFFFFFFFFFFFFFFFFFFFF AND PUSH20 0xFFFFFFFFFFFFFFFFFFFFFFFFFFFFFFFFFFFFFFFF AND CALLER PUSH20 0xFFFFFFFFFFFFFFFFFFFFFFFFFFFFFFFFFFFFFFFF AND EQ PUSH2 0x9D6 JUMPI PUSH1 0x40 MLOAD PUSH32 0x8C379A000000000000000000000000000000000000000000000000000000000 DUP2 MSTORE PUSH1 0x4 ADD PUSH2 0x9CD SWAP1 PUSH2 0x3EF0 JUMP JUMPDEST PUSH1 0x40 MLOAD DUP1 SWAP2 SUB SWAP1 REVERT JUMPDEST PUSH0 JUMPDEST PUSH1 0x12 DUP1 SLOAD SWAP1 POP DUP2 LT ISZERO PUSH2 0xD8D JUMPI PUSH0 PUSH1 0x12 DUP3 DUP2 SLOAD DUP2 LT PUSH2 0x9FA JUMPI PUSH2 0x9F9 PUSH2 0x3F0E JUMP JUMPDEST JUMPDEST SWAP1 PUSH0 MSTORE PUSH1 0x20 PUSH0 KECCAK256 ADD PUSH0 SWAP1 SLOAD SWAP1 PUSH2 0x100 EXP SWAP1 DIV PUSH20 0xFFFFFFFFFFFFFFFFFFFFFFFFFFFFFFFFFFFFFFFF AND SWAP1 POP PUSH0 PUSH2 0xA2D PUSH2 0x1BF8 JUMP JUMPDEST SWAP1 POP PUSH0 JUMPDEST PUSH1 0xE PUSH0 DUP5 PUSH20 0xFFFFFFFFFFFFFFFFFFFFFFFFFFFFFFFFFFFFFFFF AND PUSH20 0xFFFFFFFFFFFFFFFFFFFFFFFFFFFFFFFFFFFFFFFF AND DUP2 MSTORE PUSH1 0x20 ADD SWAP1 DUP2 MSTORE PUSH1 0x20 ADD PUSH0 KECCAK256 DUP1 SLOAD SWAP1 POP DUP2 LT ISZERO PUSH2 0xD7D JUMPI PUSH0 PUSH1 0xE PUSH0 DUP6 PUSH20 0xFFFFFFFFFFFFFFFFFFFFFFFFFFFFFFFFFFFFFFFF AND PUSH20 0xFFFFFFFFFFFFFFFFFFFFFFFFFFFFFFFFFFFFFFFF AND DUP2 MSTORE PUSH1 0x20 ADD SWAP1 DUP2 MSTORE PUSH1 0x20 ADD PUSH0 KECCAK256 DUP3 DUP2 SLOAD DUP2 LT PUSH2 0xAC9 JUMPI PUSH2 0xAC8 PUSH2 0x3F0E JUMP JUMPDEST JUMPDEST SWAP1 PUSH0 MSTORE PUSH1 0x20 PUSH0 KECCAK256 SWAP1 PUSH1 0x7 MUL ADD SWAP1 POP DUP3 DUP2 PUSH1 0x4 ADD SLOAD GT PUSH2 0xD6F JUMPI DUP1 PUSH1 0x5 ADD SLOAD PUSH1 0xD PUSH0 DUP3 DUP3 SLOAD PUSH2 0xAF7 SWAP2 SWAP1 PUSH2 0x3F68 JUMP JUMPDEST SWAP3 POP POP DUP2 SWAP1 SSTORE POP PUSH0 PUSH1 0x2 DUP3 PUSH1 0x1 ADD SLOAD PUSH2 0xB10 SWAP2 SWAP1 PUSH2 0x3FC8 JUMP JUMPDEST SWAP1 POP PUSH0 PUSH1 0x2 DUP4 PUSH1 0x2 ADD SLOAD PUSH2 0xB24 SWAP2 SWAP1 PUSH2 0x3FC8 JUMP JUMPDEST SWAP1 POP DUP2 SELFBALANCE LT ISZERO PUSH2 0xB69 JUMPI PUSH1 0x40 MLOAD PUSH32 0x8C379A000000000000000000000000000000000000000000000000000000000 DUP2 MSTORE PUSH1 0x4 ADD PUSH2 0xB60 SWAP1 PUSH2 0x4042 JUMP JUMPDEST PUSH1 0x40 MLOAD DUP1 SWAP2 SUB SWAP1 REVERT JUMPDEST PUSH0 JUMPDEST PUSH1 0x12 DUP1 SLOAD SWAP1 POP DUP2 LT ISZERO PUSH2 0xCAD JUMPI PUSH0 PUSH1 0x12 DUP3 DUP2 SLOAD DUP2 LT PUSH2 0xB8D JUMPI PUSH2 0xB8C PUSH2 0x3F0E JUMP JUMPDEST JUMPDEST SWAP1 PUSH0 MSTORE PUSH1 0x20 PUSH0 KECCAK256 ADD PUSH0 SWAP1 SLOAD SWAP1 PUSH2 0x100 EXP SWAP1 DIV PUSH20 0xFFFFFFFFFFFFFFFFFFFFFFFFFFFFFFFFFFFFFFFF AND SWAP1 POP PUSH0 PUSH1 0x7 SLOAD PUSH2 0x2710 PUSH3 0xF4240 PUSH1 0x18 PUSH0 DUP7 PUSH20 0xFFFFFFFFFFFFFFFFFFFFFFFFFFFFFFFFFFFFFFFF AND PUSH20 0xFFFFFFFFFFFFFFFFFFFFFFFFFFFFFFFFFFFFFFFF AND DUP2 MSTORE PUSH1 0x20 ADD SWAP1 DUP2 MSTORE PUSH1 0x20 ADD PUSH0 KECCAK256 SLOAD PUSH2 0xC0A SWAP2 SWAP1 PUSH2 0x4060 JUMP JUMPDEST PUSH2 0xC14 SWAP2 SWAP1 PUSH2 0x4060 JUMP JUMPDEST PUSH2 0xC1E SWAP2 SWAP1 PUSH2 0x3FC8 JUMP JUMPDEST SWAP1 POP PUSH0 PUSH3 0xF4240 PUSH2 0x2710 PUSH2 0xC32 SWAP2 SWAP1 PUSH2 0x4060 JUMP JUMPDEST DUP3 DUP8 PUSH2 0xC3E SWAP2 SWAP1 PUSH2 0x4060 JUMP JUMPDEST PUSH2 0xC48 SWAP2 SWAP1 PUSH2 0x3FC8 JUMP JUMPDEST SWAP1 POP DUP1 PUSH1 0x16 PUSH0 DUP6 PUSH20 0xFFFFFFFFFFFFFFFFFFFFFFFFFFFFFFFFFFFFFFFF AND PUSH20 0xFFFFFFFFFFFFFFFFFFFFFFFFFFFFFFFFFFFFFFFF AND DUP2 MSTORE PUSH1 0x20 ADD SWAP1 DUP2 MSTORE PUSH1 0x20 ADD PUSH0 KECCAK256 PUSH0 DUP3 DUP3 SLOAD PUSH2 0xC96 SWAP2 SWAP1 PUSH2 0x3F68 JUMP JUMPDEST SWAP3 POP POP DUP2 SWAP1 SSTORE POP POP POP POP DUP1 DUP1 PUSH1 0x1 ADD SWAP2 POP POP PUSH2 0xB6B JUMP JUMPDEST POP DUP2 DUP4 PUSH1 0x1 ADD PUSH0 DUP3 DUP3 SLOAD PUSH2 0xCC1 SWAP2 SWAP1 PUSH2 0x40A1 JUMP JUMPDEST SWAP3 POP POP DUP2 SWAP1 SSTORE POP DUP1 DUP4 PUSH1 0x2 ADD PUSH0 DUP3 DUP3 SLOAD PUSH2 0xCDB SWAP2 SWAP1 PUSH2 0x40A1 JUMP JUMPDEST SWAP3 POP POP DUP2 SWAP1 SSTORE POP DUP5 DUP4 PUSH1 0x3 ADD DUP2 SWAP1 SSTORE POP PUSH1 0x2 DUP4 PUSH1 0x4 ADD SLOAD PUSH2 0xCFC SWAP2 SWAP1 PUSH2 0x4060 JUMP JUMPDEST DUP4 PUSH1 0x4 ADD DUP2 SWAP1 SSTORE POP TIMESTAMP DUP4 PUSH1 0x6 ADD DUP2 SWAP1 SSTORE POP PUSH9 0xAD78EBC5AC6200000 DUP4 PUSH1 0x5 ADD SLOAD PUSH2 0xD26 SWAP2 SWAP1 PUSH2 0x3F68 JUMP JUMPDEST DUP4 PUSH1 0x5 ADD DUP2 SWAP1 SSTORE POP PUSH32 0x827E906CBCEEEC35976093A58E10220E0195715EE3032A9AFAF05B14999516FB DUP3 DUP3 DUP8 PUSH1 0x1 PUSH1 0x40 MLOAD PUSH2 0xD64 SWAP5 SWAP4 SWAP3 SWAP2 SWAP1 PUSH2 0x40E3 JUMP JUMPDEST PUSH1 0x40 MLOAD DUP1 SWAP2 SUB SWAP1 LOG1 POP POP JUMPDEST POP DUP1 DUP1 PUSH1 0x1 ADD SWAP2 POP POP PUSH2 0xA31 JUMP JUMPDEST POP POP POP DUP1 DUP1 PUSH1 0x1 ADD SWAP2 POP POP PUSH2 0x9D8 JUMP JUMPDEST POP JUMP JUMPDEST PUSH1 0x60 PUSH1 0xE PUSH0 DUP4 PUSH20 0xFFFFFFFFFFFFFFFFFFFFFFFFFFFFFFFFFFFFFFFF AND PUSH20 0xFFFFFFFFFFFFFFFFFFFFFFFFFFFFFFFFFFFFFFFF AND DUP2 MSTORE PUSH1 0x20 ADD SWAP1 DUP2 MSTORE PUSH1 0x20 ADD PUSH0 KECCAK256 DUP1 SLOAD DUP1 PUSH1 0x20 MUL PUSH1 0x20 ADD PUSH1 0x40 MLOAD SWAP1 DUP2 ADD PUSH1 0x40 MSTORE DUP1 SWAP3 SWAP2 SWAP1 DUP2 DUP2 MSTORE PUSH1 0x20 ADD PUSH0 SWAP1 JUMPDEST DUP3 DUP3 LT ISZERO PUSH2 0xEAE JUMPI DUP4 DUP3 SWAP1 PUSH0 MSTORE PUSH1 0x20 PUSH0 KECCAK256 SWAP1 PUSH1 0x7 MUL ADD PUSH1 0x40 MLOAD DUP1 PUSH1 0xE0 ADD PUSH1 0x40 MSTORE SWAP1 DUP2 PUSH0 DUP3 ADD PUSH0 SWAP1 SLOAD SWAP1 PUSH2 0x100 EXP SWAP1 DIV PUSH20 0xFFFFFFFFFFFFFFFFFFFFFFFFFFFFFFFFFFFFFFFF AND PUSH20 0xFFFFFFFFFFFFFFFFFFFFFFFFFFFFFFFFFFFFFFFF AND PUSH20 0xFFFFFFFFFFFFFFFFFFFFFFFFFFFFFFFFFFFFFFFF AND DUP2 MSTORE PUSH1 0x20 ADD PUSH1 0x1 DUP3 ADD SLOAD DUP2 MSTORE PUSH1 0x20 ADD PUSH1 0x2 DUP3 ADD SLOAD DUP2 MSTORE PUSH1 0x20 ADD PUSH1 0x3 DUP3 ADD SLOAD DUP2 MSTORE PUSH1 0x20 ADD PUSH1 0x4 DUP3 ADD SLOAD DUP2 MSTORE PUSH1 0x20 ADD PUSH1 0x5 DUP3 ADD SLOAD DUP2 MSTORE PUSH1 0x20 ADD PUSH1 0x6 DUP3 ADD SLOAD DUP2 MSTORE POP POP DUP2 MSTORE PUSH1 0x20 ADD SWAP1 PUSH1 0x1 ADD SWAP1 PUSH2 0xDEE JUMP JUMPDEST POP POP POP POP SWAP1 POP SWAP2 SWAP1 POP JUMP JUMPDEST PUSH1 0x60 PUSH1 0xF PUSH0 DUP4 PUSH20 0xFFFFFFFFFFFFFFFFFFFFFFFFFFFFFFFFFFFFFFFF AND PUSH20 0xFFFFFFFFFFFFFFFFFFFFFFFFFFFFFFFFFFFFFFFF AND DUP2 MSTORE PUSH1 0x20 ADD SWAP1 DUP2 MSTORE PUSH1 0x20 ADD PUSH0 KECCAK256 DUP1 SLOAD DUP1 PUSH1 0x20 MUL PUSH1 0x20 ADD PUSH1 0x40 MLOAD SWAP1 DUP2 ADD PUSH1 0x40 MSTORE DUP1 SWAP3 SWAP2 SWAP1 DUP2 DUP2 MSTORE PUSH1 0x20 ADD PUSH0 SWAP1 JUMPDEST DUP3 DUP3 LT ISZERO PUSH2 0xFDD JUMPI DUP4 DUP3 SWAP1 PUSH0 MSTORE PUSH1 0x20 PUSH0 KECCAK256 SWAP1 PUSH1 0x6 MUL ADD PUSH1 0x40 MLOAD DUP1 PUSH1 0xC0 ADD PUSH1 0x40 MSTORE SWAP1 DUP2 PUSH0 DUP3 ADD PUSH0 SWAP1 SLOAD SWAP1 PUSH2 0x100 EXP SWAP1 DIV PUSH20 0xFFFFFFFFFFFFFFFFFFFFFFFFFFFFFFFFFFFFFFFF AND PUSH20 0xFFFFFFFFFFFFFFFFFFFFFFFFFFFFFFFFFFFFFFFF AND PUSH20 0xFFFFFFFFFFFFFFFFFFFFFFFFFFFFFFFFFFFFFFFF AND DUP2 MSTORE PUSH1 0x20 ADD PUSH1 0x1 DUP3 ADD SLOAD DUP2 MSTORE PUSH1 0x20 ADD PUSH1 0x2 DUP3 ADD SLOAD DUP2 MSTORE PUSH1 0x20 ADD PUSH1 0x3 DUP3 ADD SLOAD DUP2 MSTORE PUSH1 0x20 ADD PUSH1 0x4 DUP3 ADD SLOAD DUP2 MSTORE PUSH1 0x20 ADD PUSH1 0x5 DUP3 ADD PUSH0 SWAP1 SLOAD SWAP1 PUSH2 0x100 EXP SWAP1 DIV PUSH1 0xFF AND ISZERO ISZERO ISZERO ISZERO DUP2 MSTORE POP POP DUP2 MSTORE PUSH1 0x20 ADD SWAP1 PUSH1 0x1 ADD SWAP1 PUSH2 0xF17 JUMP JUMPDEST POP POP POP POP SWAP1 POP SWAP2 SWAP1 POP JUMP JUMPDEST PUSH1 0x14 PUSH1 0x20 MSTORE DUP1 PUSH0 MSTORE PUSH1 0x40 PUSH0 KECCAK256 PUSH0 SWAP2 POP SWAP1 POP SLOAD DUP2 JUMP JUMPDEST PUSH0 PUSH1 0xA SLOAD SWAP1 POP SWAP1 JUMP JUMPDEST PUSH0 PUSH1 0x8 SLOAD SWAP1 POP SWAP1 JUMP JUMPDEST PUSH1 0x4 PUSH0 SWAP1 SLOAD SWAP1 PUSH2 0x100 EXP SWAP1 DIV PUSH20 0xFFFFFFFFFFFFFFFFFFFFFFFFFFFFFFFFFFFFFFFF AND PUSH20 0xFFFFFFFFFFFFFFFFFFFFFFFFFFFFFFFFFFFFFFFF AND CALLER PUSH20 0xFFFFFFFFFFFFFFFFFFFFFFFFFFFFFFFFFFFFFFFF AND EQ PUSH2 0x109E JUMPI PUSH1 0x40 MLOAD PUSH32 0x8C379A000000000000000000000000000000000000000000000000000000000 DUP2 MSTORE PUSH1 0x4 ADD PUSH2 0x1095 SWAP1 PUSH2 0x3EF0 JUMP JUMPDEST PUSH1 0x40 MLOAD DUP1 SWAP2 SUB SWAP1 REVERT JUMPDEST PUSH0 DUP1 PUSH0 SWAP1 POP JUMPDEST PUSH1 0x12 DUP1 SLOAD SWAP1 POP DUP2 LT ISZERO PUSH2 0x13D4 JUMPI PUSH0 PUSH1 0x12 DUP3 DUP2 SLOAD DUP2 LT PUSH2 0x10C6 JUMPI PUSH2 0x10C5 PUSH2 0x3F0E JUMP JUMPDEST JUMPDEST SWAP1 PUSH0 MSTORE PUSH1 0x20 PUSH0 KECCAK256 ADD PUSH0 SWAP1 SLOAD SWAP1 PUSH2 0x100 EXP SWAP1 DIV PUSH20 0xFFFFFFFFFFFFFFFFFFFFFFFFFFFFFFFFFFFFFFFF AND SWAP1 POP PUSH0 JUMPDEST PUSH1 0xF PUSH0 DUP4 PUSH20 0xFFFFFFFFFFFFFFFFFFFFFFFFFFFFFFFFFFFFFFFF AND PUSH20 0xFFFFFFFFFFFFFFFFFFFFFFFFFFFFFFFFFFFFFFFF AND DUP2 MSTORE PUSH1 0x20 ADD SWAP1 DUP2 MSTORE PUSH1 0x20 ADD PUSH0 KECCAK256 DUP1 SLOAD SWAP1 POP DUP2 LT ISZERO PUSH2 0x13C5 JUMPI PUSH0 PUSH1 0xF PUSH0 DUP5 PUSH20 0xFFFFFFFFFFFFFFFFFFFFFFFFFFFFFFFFFFFFFFFF AND PUSH20 0xFFFFFFFFFFFFFFFFFFFFFFFFFFFFFFFFFFFFFFFF AND DUP2 MSTORE PUSH1 0x20 ADD SWAP1 DUP2 MSTORE PUSH1 0x20 ADD PUSH0 KECCAK256 DUP3 DUP2 SLOAD DUP2 LT PUSH2 0x118A JUMPI PUSH2 0x1189 PUSH2 0x3F0E JUMP JUMPDEST JUMPDEST SWAP1 PUSH0 MSTORE PUSH1 0x20 PUSH0 KECCAK256 SWAP1 PUSH1 0x6 MUL ADD SWAP1 POP DUP1 PUSH1 0x5 ADD PUSH0 SWAP1 SLOAD SWAP1 PUSH2 0x100 EXP SWAP1 DIV PUSH1 0xFF AND ISZERO DUP1 ISZERO PUSH2 0x11C1 JUMPI POP DUP1 PUSH1 0x3 ADD SLOAD PUSH2 0x11BE PUSH2 0x1BF8 JUMP JUMPDEST LT ISZERO JUMPDEST ISZERO PUSH2 0x13B7 JUMPI PUSH0 PUSH1 0xA PUSH8 0xDE0B6B3A7640000 DUP4 PUSH1 0x2 ADD SLOAD PUSH2 0x11E1 SWAP2 SWAP1 PUSH2 0x4060 JUMP JUMPDEST PUSH2 0x11EB SWAP2 SWAP1 PUSH2 0x3FC8 JUMP JUMPDEST SWAP1 POP DUP1 PUSH1 0xD PUSH0 DUP3 DUP3 SLOAD PUSH2 0x11FE SWAP2 SWAP1 PUSH2 0x3F68 JUMP JUMPDEST SWAP3 POP POP DUP2 SWAP1 SSTORE POP PUSH0 JUMPDEST PUSH1 0x12 DUP1 SLOAD SWAP1 POP DUP2 LT ISZERO PUSH2 0x13B4 JUMPI PUSH0 PUSH1 0x12 DUP3 DUP2 SLOAD DUP2 LT PUSH2 0x1229 JUMPI PUSH2 0x1228 PUSH2 0x3F0E JUMP JUMPDEST JUMPDEST SWAP1 PUSH0 MSTORE PUSH1 0x20 PUSH0 KECCAK256 ADD PUSH0 SWAP1 SLOAD SWAP1 PUSH2 0x100 EXP SWAP1 DIV PUSH20 0xFFFFFFFFFFFFFFFFFFFFFFFFFFFFFFFFFFFFFFFF AND SWAP1 POP PUSH0 PUSH1 0x7 SLOAD PUSH2 0x2710 PUSH3 0xF4240 PUSH1 0x18 PUSH0 DUP7 PUSH20 0xFFFFFFFFFFFFFFFFFFFFFFFFFFFFFFFFFFFFFFFF AND PUSH20 0xFFFFFFFFFFFFFFFFFFFFFFFFFFFFFFFFFFFFFFFF AND DUP2 MSTORE PUSH1 0x20 ADD SWAP1 DUP2 MSTORE PUSH1 0x20 ADD PUSH0 KECCAK256 SLOAD PUSH2 0x12A6 SWAP2 SWAP1 PUSH2 0x4060 JUMP JUMPDEST PUSH2 0x12B0 SWAP2 SWAP1 PUSH2 0x4060 JUMP JUMPDEST PUSH2 0x12BA SWAP2 SWAP1 PUSH2 0x3FC8 JUMP JUMPDEST SWAP1 POP PUSH0 PUSH3 0xF4240 PUSH2 0x2710 PUSH2 0x12CE SWAP2 SWAP1 PUSH2 0x4060 JUMP JUMPDEST DUP3 DUP8 PUSH1 0x1 ADD SLOAD PUSH2 0x12DE SWAP2 SWAP1 PUSH2 0x4060 JUMP JUMPDEST PUSH2 0x12E8 SWAP2 SWAP1 PUSH2 0x3FC8 JUMP JUMPDEST SWAP1 POP PUSH1 0x1 DUP7 PUSH1 0x5 ADD PUSH0 PUSH2 0x100 EXP DUP2 SLOAD DUP2 PUSH1 0xFF MUL NOT AND SWAP1 DUP4 ISZERO ISZERO MUL OR SWAP1 SSTORE POP DUP1 PUSH1 0x16 PUSH0 DUP6 PUSH20 0xFFFFFFFFFFFFFFFFFFFFFFFFFFFFFFFFFFFFFFFF AND PUSH20 0xFFFFFFFFFFFFFFFFFFFFFFFFFFFFFFFFFFFFFFFF AND DUP2 MSTORE PUSH1 0x20 ADD SWAP1 DUP2 MSTORE PUSH1 0x20 ADD PUSH0 KECCAK256 PUSH0 DUP3 DUP3 SLOAD PUSH2 0x1352 SWAP2 SWAP1 PUSH2 0x3F68 JUMP JUMPDEST SWAP3 POP POP DUP2 SWAP1 SSTORE POP DUP1 DUP11 PUSH2 0x1365 SWAP2 SWAP1 PUSH2 0x3F68 JUMP JUMPDEST SWAP10 POP PUSH32 0xC6AAE9B432A347364F1123F9A1139AFB1C0D8B0FCCD0A1CE46FFCD3703D0C48 DUP9 DUP9 DUP6 DUP5 PUSH1 0x40 MLOAD PUSH2 0x139C SWAP5 SWAP4 SWAP3 SWAP2 SWAP1 PUSH2 0x4126 JUMP JUMPDEST PUSH1 0x40 MLOAD DUP1 SWAP2 SUB SWAP1 LOG1 POP POP POP DUP1 DUP1 PUSH1 0x1 ADD SWAP2 POP POP PUSH2 0x1207 JUMP JUMPDEST POP POP JUMPDEST POP DUP1 DUP1 PUSH1 0x1 ADD SWAP2 POP POP PUSH2 0x10F2 JUMP JUMPDEST POP POP DUP1 DUP1 PUSH1 0x1 ADD SWAP2 POP POP PUSH2 0x10A4 JUMP JUMPDEST POP PUSH32 0x9EFC1E924EFBE602CCC06B63620B1348865ADF701DE83A2F71DEE2217FDD77F7 DUP2 PUSH1 0x40 MLOAD PUSH2 0x1404 SWAP2 SWAP1 PUSH2 0x3823 JUMP JUMPDEST PUSH1 0x40 MLOAD DUP1 SWAP2 SUB SWAP1 LOG1 PUSH0 SWAP1 POP POP JUMP JUMPDEST PUSH1 0x15 PUSH1 0x20 MSTORE DUP1 PUSH0 MSTORE PUSH1 0x40 PUSH0 KECCAK256 PUSH0 SWAP2 POP SWAP1 POP SLOAD DUP2 JUMP JUMPDEST PUSH2 0x142F PUSH2 0x2725 JUMP JUMPDEST DUP5 PUSH1 0x5 PUSH0 PUSH2 0x100 EXP DUP2 SLOAD DUP2 PUSH20 0xFFFFFFFFFFFFFFFFFFFFFFFFFFFFFFFFFFFFFFFF MUL NOT AND SWAP1 DUP4 PUSH20 0xFFFFFFFFFFFFFFFFFFFFFFFFFFFFFFFFFFFFFFFF AND MUL OR SWAP1 SSTORE POP DUP4 PUSH1 0x3 PUSH0 PUSH2 0x100 EXP DUP2 SLOAD DUP2 PUSH20 0xFFFFFFFFFFFFFFFFFFFFFFFFFFFFFFFFFFFFFFFF MUL NOT AND SWAP1 DUP4 PUSH20 0xFFFFFFFFFFFFFFFFFFFFFFFFFFFFFFFFFFFFFFFF AND MUL OR SWAP1 SSTORE POP DUP3 PUSH1 0x4 PUSH0 PUSH2 0x100 EXP DUP2 SLOAD DUP2 PUSH20 0xFFFFFFFFFFFFFFFFFFFFFFFFFFFFFFFFFFFFFFFF MUL NOT AND SWAP1 DUP4 PUSH20 0xFFFFFFFFFFFFFFFFFFFFFFFFFFFFFFFFFFFFFFFF AND MUL OR SWAP1 SSTORE POP DUP2 PUSH1 0x2 PUSH0 PUSH2 0x100 EXP DUP2 SLOAD DUP2 PUSH20 0xFFFFFFFFFFFFFFFFFFFFFFFFFFFFFFFFFFFFFFFF MUL NOT AND SWAP1 DUP4 PUSH20 0xFFFFFFFFFFFFFFFFFFFFFFFFFFFFFFFFFFFFFFFF AND MUL OR SWAP1 SSTORE POP DUP1 PUSH1 0x1 PUSH0 PUSH2 0x100 EXP DUP2 SLOAD DUP2 PUSH20 0xFFFFFFFFFFFFFFFFFFFFFFFFFFFFFFFFFFFFFFFF MUL NOT AND SWAP1 DUP4 PUSH20 0xFFFFFFFFFFFFFFFFFFFFFFFFFFFFFFFFFFFFFFFF AND MUL OR SWAP1 SSTORE POP POP POP POP POP POP JUMP JUMPDEST PUSH1 0x17 PUSH1 0x20 MSTORE DUP1 PUSH0 MSTORE PUSH1 0x40 PUSH0 KECCAK256 PUSH0 SWAP2 POP SWAP1 POP SLOAD DUP2 JUMP JUMPDEST PUSH1 0xD SLOAD DUP2 JUMP JUMPDEST PUSH0 PUSH1 0x1B PUSH0 DUP4 PUSH20 0xFFFFFFFFFFFFFFFFFFFFFFFFFFFFFFFFFFFFFFFF AND PUSH20 0xFFFFFFFFFFFFFFFFFFFFFFFFFFFFFFFFFFFFFFFF AND DUP2 MSTORE PUSH1 0x20 ADD SWAP1 DUP2 MSTORE PUSH1 0x20 ADD PUSH0 KECCAK256 SLOAD SWAP1 POP SWAP2 SWAP1 POP JUMP JUMPDEST PUSH1 0x60 PUSH1 0x12 DUP1 SLOAD DUP1 PUSH1 0x20 MUL PUSH1 0x20 ADD PUSH1 0x40 MLOAD SWAP1 DUP2 ADD PUSH1 0x40 MSTORE DUP1 SWAP3 SWAP2 SWAP1 DUP2 DUP2 MSTORE PUSH1 0x20 ADD DUP3 DUP1 SLOAD DUP1 ISZERO PUSH2 0x1658 JUMPI PUSH1 0x20 MUL DUP3 ADD SWAP2 SWAP1 PUSH0 MSTORE PUSH1 0x20 PUSH0 KECCAK256 SWAP1 JUMPDEST DUP2 PUSH0 SWAP1 SLOAD SWAP1 PUSH2 0x100 EXP SWAP1 DIV PUSH20 0xFFFFFFFFFFFFFFFFFFFFFFFFFFFFFFFFFFFFFFFF AND PUSH20 0xFFFFFFFFFFFFFFFFFFFFFFFFFFFFFFFFFFFFFFFF AND DUP2 MSTORE PUSH1 0x20 ADD SWAP1 PUSH1 0x1 ADD SWAP1 DUP1 DUP4 GT PUSH2 0x160F JUMPI JUMPDEST POP POP POP POP POP SWAP1 POP SWAP1 JUMP JUMPDEST PUSH0 SELFBALANCE SWAP1 POP SWAP1 JUMP JUMPDEST PUSH2 0x1671 PUSH2 0x2725 JUMP JUMPDEST PUSH2 0x167A PUSH0 PUSH2 0x27AC JUMP JUMPDEST JUMP JUMPDEST PUSH1 0x16 PUSH1 0x20 MSTORE DUP1 PUSH0 MSTORE PUSH1 0x40 PUSH0 KECCAK256 PUSH0 SWAP2 POP SWAP1 POP SLOAD DUP2 JUMP JUMPDEST PUSH3 0xF4240 DUP2 JUMP JUMPDEST PUSH0 PUSH1 0x1A PUSH0 DUP4 PUSH20 0xFFFFFFFFFFFFFFFFFFFFFFFFFFFFFFFFFFFFFFFF AND PUSH20 0xFFFFFFFFFFFFFFFFFFFFFFFFFFFFFFFFFFFFFFFF AND DUP2 MSTORE PUSH1 0x20 ADD SWAP1 DUP2 MSTORE PUSH1 0x20 ADD PUSH0 KECCAK256 SLOAD SWAP1 POP SWAP2 SWAP1 POP JUMP JUMPDEST PUSH0 CALLER SWAP1 POP PUSH0 PUSH1 0x16 PUSH0 DUP4 PUSH20 0xFFFFFFFFFFFFFFFFFFFFFFFFFFFFFFFFFFFFFFFF AND PUSH20 0xFFFFFFFFFFFFFFFFFFFFFFFFFFFFFFFFFFFFFFFF AND DUP2 MSTORE PUSH1 0x20 ADD SWAP1 DUP2 MSTORE PUSH1 0x20 ADD PUSH0 KECCAK256 SLOAD SWAP1 POP PUSH0 PUSH1 0x10 PUSH0 DUP5 PUSH20 0xFFFFFFFFFFFFFFFFFFFFFFFFFFFFFFFFFFFFFFFF AND PUSH20 0xFFFFFFFFFFFFFFFFFFFFFFFFFFFFFFFFFFFFFFFF AND DUP2 MSTORE PUSH1 0x20 ADD SWAP1 DUP2 MSTORE PUSH1 0x20 ADD PUSH0 KECCAK256 PUSH1 0x2 ADD SLOAD SWAP1 POP PUSH0 PUSH1 0x11 PUSH0 DUP6 PUSH20 0xFFFFFFFFFFFFFFFFFFFFFFFFFFFFFFFFFFFFFFFF AND PUSH20 0xFFFFFFFFFFFFFFFFFFFFFFFFFFFFFFFFFFFFFFFF AND DUP2 MSTORE PUSH1 0x20 ADD SWAP1 DUP2 MSTORE PUSH1 0x20 ADD PUSH0 KECCAK256 PUSH1 0x1 ADD SLOAD SWAP1 POP PUSH0 DUP2 DUP4 DUP6 PUSH2 0x17B9 SWAP2 SWAP1 PUSH2 0x3F68 JUMP JUMPDEST PUSH2 0x17C3 SWAP2 SWAP1 PUSH2 0x3F68 JUMP JUMPDEST SWAP1 POP PUSH0 DUP2 GT PUSH2 0x1807 JUMPI PUSH1 0x40 MLOAD PUSH32 0x8C379A000000000000000000000000000000000000000000000000000000000 DUP2 MSTORE PUSH1 0x4 ADD PUSH2 0x17FE SWAP1 PUSH2 0x41D9 JUMP JUMPDEST PUSH1 0x40 MLOAD DUP1 SWAP2 SUB SWAP1 REVERT JUMPDEST PUSH0 PUSH1 0x64 PUSH1 0x63 DUP4 PUSH2 0x1817 SWAP2 SWAP1 PUSH2 0x4060 JUMP JUMPDEST PUSH2 0x1821 SWAP2 SWAP1 PUSH2 0x3FC8 JUMP JUMPDEST SWAP1 POP PUSH0 DUP2 DUP4 PUSH2 0x1830 SWAP2 SWAP1 PUSH2 0x40A1 JUMP JUMPDEST SWAP1 POP PUSH0 DUP8 PUSH20 0xFFFFFFFFFFFFFFFFFFFFFFFFFFFFFFFFFFFFFFFF AND DUP4 PUSH1 0x40 MLOAD PUSH2 0x1857 SWAP1 PUSH2 0x4224 JUMP JUMPDEST PUSH0 PUSH1 0x40 MLOAD DUP1 DUP4 SUB DUP2 DUP6 DUP8 GAS CALL SWAP3 POP POP POP RETURNDATASIZE DUP1 PUSH0 DUP2 EQ PUSH2 0x1891 JUMPI PUSH1 0x40 MLOAD SWAP2 POP PUSH1 0x1F NOT PUSH1 0x3F RETURNDATASIZE ADD AND DUP3 ADD PUSH1 0x40 MSTORE RETURNDATASIZE DUP3 MSTORE RETURNDATASIZE PUSH0 PUSH1 0x20 DUP5 ADD RETURNDATACOPY PUSH2 0x1896 JUMP JUMPDEST PUSH1 0x60 SWAP2 POP JUMPDEST POP POP SWAP1 POP DUP1 PUSH2 0x18DA JUMPI PUSH1 0x40 MLOAD PUSH32 0x8C379A000000000000000000000000000000000000000000000000000000000 DUP2 MSTORE PUSH1 0x4 ADD PUSH2 0x18D1 SWAP1 PUSH2 0x4282 JUMP JUMPDEST PUSH1 0x40 MLOAD DUP1 SWAP2 SUB SWAP1 REVERT JUMPDEST PUSH0 PUSH1 0x3 PUSH0 SWAP1 SLOAD SWAP1 PUSH2 0x100 EXP SWAP1 DIV PUSH20 0xFFFFFFFFFFFFFFFFFFFFFFFFFFFFFFFFFFFFFFFF AND PUSH20 0xFFFFFFFFFFFFFFFFFFFFFFFFFFFFFFFFFFFFFFFF AND DUP4 PUSH1 0x40 MLOAD PUSH2 0x1920 SWAP1 PUSH2 0x4224 JUMP JUMPDEST PUSH0 PUSH1 0x40 MLOAD DUP1 DUP4 SUB DUP2 DUP6 DUP8 GAS CALL SWAP3 POP POP POP RETURNDATASIZE DUP1 PUSH0 DUP2 EQ PUSH2 0x195A JUMPI PUSH1 0x40 MLOAD SWAP2 POP PUSH1 0x1F NOT PUSH1 0x3F RETURNDATASIZE ADD AND DUP3 ADD PUSH1 0x40 MSTORE RETURNDATASIZE DUP3 MSTORE RETURNDATASIZE PUSH0 PUSH1 0x20 DUP5 ADD RETURNDATACOPY PUSH2 0x195F JUMP JUMPDEST PUSH1 0x60 SWAP2 POP JUMPDEST POP POP SWAP1 POP DUP1 PUSH2 0x19A3 JUMPI PUSH1 0x40 MLOAD PUSH32 0x8C379A000000000000000000000000000000000000000000000000000000000 DUP2 MSTORE PUSH1 0x4 ADD PUSH2 0x199A SWAP1 PUSH2 0x42EA JUMP JUMPDEST PUSH1 0x40 MLOAD DUP1 SWAP2 SUB SWAP1 REVERT JUMPDEST DUP9 PUSH20 0xFFFFFFFFFFFFFFFFFFFFFFFFFFFFFFFFFFFFFFFF AND PUSH32 0x87F3715FCFCFAD480F00CE2FCA145E04CC410FD52AEDBCB40C379082738833A2 DUP6 DUP6 PUSH1 0x40 MLOAD PUSH2 0x19EB SWAP3 SWAP2 SWAP1 PUSH2 0x4308 JUMP JUMPDEST PUSH1 0x40 MLOAD DUP1 SWAP2 SUB SWAP1 LOG2 PUSH0 PUSH8 0xDE0B6B3A7640000 PUSH2 0x1A17 PUSH2 0x1A08 PUSH2 0x1BF8 JUMP JUMPDEST DUP9 PUSH2 0x286D SWAP1 SWAP2 SWAP1 PUSH4 0xFFFFFFFF AND JUMP JUMPDEST PUSH2 0x1A21 SWAP2 SWAP1 PUSH2 0x3FC8 JUMP JUMPDEST SWAP1 POP DUP1 PUSH1 0x1A PUSH0 DUP13 PUSH20 0xFFFFFFFFFFFFFFFFFFFFFFFFFFFFFFFFFFFFFFFF AND PUSH20 0xFFFFFFFFFFFFFFFFFFFFFFFFFFFFFFFFFFFFFFFF AND DUP2 MSTORE PUSH1 0x20 ADD SWAP1 DUP2 MSTORE PUSH1 0x20 ADD PUSH0 KECCAK256 PUSH0 DUP3 DUP3 SLOAD PUSH2 0x1A6F SWAP2 SWAP1 PUSH2 0x3F68 JUMP JUMPDEST SWAP3 POP POP DUP2 SWAP1 SSTORE POP DUP6 PUSH1 0x19 PUSH0 DUP13 PUSH20 0xFFFFFFFFFFFFFFFFFFFFFFFFFFFFFFFFFFFFFFFF AND PUSH20 0xFFFFFFFFFFFFFFFFFFFFFFFFFFFFFFFFFFFFFFFF AND DUP2 MSTORE PUSH1 0x20 ADD SWAP1 DUP2 MSTORE PUSH1 0x20 ADD PUSH0 KECCAK256 PUSH0 DUP3 DUP3 SLOAD PUSH2 0x1AC2 SWAP2 SWAP1 PUSH2 0x3F68 JUMP JUMPDEST SWAP3 POP POP DUP2 SWAP1 SSTORE POP DUP1 PUSH1 0x9 PUSH0 DUP3 DUP3 SLOAD PUSH2 0x1ADA SWAP2 SWAP1 PUSH2 0x40A1 JUMP JUMPDEST SWAP3 POP POP DUP2 SWAP1 SSTORE POP PUSH0 PUSH1 0x16 PUSH0 DUP13 PUSH20 0xFFFFFFFFFFFFFFFFFFFFFFFFFFFFFFFFFFFFFFFF AND PUSH20 0xFFFFFFFFFFFFFFFFFFFFFFFFFFFFFFFFFFFFFFFF AND DUP2 MSTORE PUSH1 0x20 ADD SWAP1 DUP2 MSTORE PUSH1 0x20 ADD PUSH0 KECCAK256 DUP2 SWAP1 SSTORE POP PUSH0 PUSH1 0x11 PUSH0 DUP13 PUSH20 0xFFFFFFFFFFFFFFFFFFFFFFFFFFFFFFFFFFFFFFFF AND PUSH20 0xFFFFFFFFFFFFFFFFFFFFFFFFFFFFFFFFFFFFFFFF AND DUP2 MSTORE PUSH1 0x20 ADD SWAP1 DUP2 MSTORE PUSH1 0x20 ADD PUSH0 KECCAK256 PUSH1 0x1 ADD DUP2 SWAP1 SSTORE POP PUSH0 PUSH1 0x10 PUSH0 DUP13 PUSH20 0xFFFFFFFFFFFFFFFFFFFFFFFFFFFFFFFFFFFFFFFF AND PUSH20 0xFFFFFFFFFFFFFFFFFFFFFFFFFFFFFFFFFFFFFFFF AND DUP2 MSTORE PUSH1 0x20 ADD SWAP1 DUP2 MSTORE PUSH1 0x20 ADD PUSH0 KECCAK256 PUSH1 0x2 ADD DUP2 SWAP1 SSTORE POP POP POP POP POP POP POP POP POP POP POP JUMP JUMPDEST PUSH0 DUP1 PUSH0 SWAP1 SLOAD SWAP1 PUSH2 0x100 EXP SWAP1 DIV PUSH20 0xFFFFFFFFFFFFFFFFFFFFFFFFFFFFFFFFFFFFFFFF AND SWAP1 POP SWAP1 JUMP JUMPDEST PUSH0 PUSH1 0x7 SLOAD SWAP1 POP SWAP1 JUMP JUMPDEST PUSH0 PUSH1 0x9 SLOAD SWAP1 POP SWAP1 JUMP JUMPDEST PUSH1 0xB SLOAD DUP2 JUMP JUMPDEST PUSH0 PUSH1 0x1 PUSH0 SWAP1 SLOAD SWAP1 PUSH2 0x100 EXP SWAP1 DIV PUSH20 0xFFFFFFFFFFFFFFFFFFFFFFFFFFFFFFFFFFFFFFFF AND PUSH20 0xFFFFFFFFFFFFFFFFFFFFFFFFFFFFFFFFFFFFFFFF AND PUSH4 0x98D5FDCA PUSH1 0x40 MLOAD DUP2 PUSH4 0xFFFFFFFF AND PUSH1 0xE0 SHL DUP2 MSTORE PUSH1 0x4 ADD PUSH1 0x20 PUSH1 0x40 MLOAD DUP1 DUP4 SUB DUP2 DUP7 GAS STATICCALL ISZERO DUP1 ISZERO PUSH2 0x1C63 JUMPI RETURNDATASIZE PUSH0 DUP1 RETURNDATACOPY RETURNDATASIZE PUSH0 REVERT JUMPDEST POP POP POP POP PUSH1 0x40 MLOAD RETURNDATASIZE PUSH1 0x1F NOT PUSH1 0x1F DUP3 ADD AND DUP3 ADD DUP1 PUSH1 0x40 MSTORE POP DUP2 ADD SWAP1 PUSH2 0x1C87 SWAP2 SWAP1 PUSH2 0x4343 JUMP JUMPDEST SWAP1 POP SWAP1 JUMP JUMPDEST PUSH0 DUP1 PUSH0 DUP1 PUSH0 PUSH1 0x3 PUSH0 SWAP1 SLOAD SWAP1 PUSH2 0x100 EXP SWAP1 DIV PUSH20 0xFFFFFFFFFFFFFFFFFFFFFFFFFFFFFFFFFFFFFFFF AND PUSH1 0x4 PUSH0 SWAP1 SLOAD SWAP1 PUSH2 0x100 EXP SWAP1 DIV PUSH20 0xFFFFFFFFFFFFFFFFFFFFFFFFFFFFFFFFFFFFFFFF AND PUSH1 0x2 PUSH0 SWAP1 SLOAD SWAP1 PUSH2 0x100 EXP SWAP1 DIV PUSH20 0xFFFFFFFFFFFFFFFFFFFFFFFFFFFFFFFFFFFFFFFF AND PUSH1 0x1 PUSH0 SWAP1 SLOAD SWAP1 PUSH2 0x100 EXP SWAP1 DIV PUSH20 0xFFFFFFFFFFFFFFFFFFFFFFFFFFFFFFFFFFFFFFFF AND PUSH1 0x5 PUSH0 SWAP1 SLOAD SWAP1 PUSH2 0x100 EXP SWAP1 DIV PUSH20 0xFFFFFFFFFFFFFFFFFFFFFFFFFFFFFFFFFFFFFFFF AND SWAP5 POP SWAP5 POP SWAP5 POP SWAP5 POP SWAP5 POP SWAP1 SWAP2 SWAP3 SWAP4 SWAP5 JUMP JUMPDEST PUSH1 0x6 SLOAD DUP2 JUMP JUMPDEST PUSH1 0x18 PUSH1 0x20 MSTORE DUP1 PUSH0 MSTORE PUSH1 0x40 PUSH0 KECCAK256 PUSH0 SWAP2 POP SWAP1 POP SLOAD DUP2 JUMP JUMPDEST PUSH0 CALLVALUE SWAP1 POP PUSH0 DUP2 GT PUSH2 0x1DAD JUMPI PUSH1 0x40 MLOAD PUSH32 0x8C379A000000000000000000000000000000000000000000000000000000000 DUP2 MSTORE PUSH1 0x4 ADD PUSH2 0x1DA4 SWAP1 PUSH2 0x43B8 JUMP JUMPDEST PUSH1 0x40 MLOAD DUP1 SWAP2 SUB SWAP1 REVERT JUMPDEST PUSH0 PUSH8 0xDE0B6B3A7640000 PUSH2 0x1DD1 PUSH2 0x1DC2 PUSH2 0x1BF8 JUMP JUMPDEST DUP5 PUSH2 0x286D SWAP1 SWAP2 SWAP1 PUSH4 0xFFFFFFFF AND JUMP JUMPDEST PUSH2 0x1DDB SWAP2 SWAP1 PUSH2 0x3FC8 JUMP JUMPDEST SWAP1 POP PUSH8 0xCA9D9EA558B40000 PUSH1 0xD PUSH0 DUP3 DUP3 SLOAD PUSH2 0x1DF6 SWAP2 SWAP1 PUSH2 0x3F68 JUMP JUMPDEST SWAP3 POP POP DUP2 SWAP1 SSTORE POP PUSH0 DUP1 PUSH0 DUP1 PUSH0 PUSH2 0x1E0B DUP8 PUSH2 0x2882 JUMP JUMPDEST SWAP5 POP SWAP5 POP SWAP5 POP SWAP5 POP SWAP5 POP PUSH0 PUSH1 0x5 PUSH0 SWAP1 SLOAD SWAP1 PUSH2 0x100 EXP SWAP1 DIV PUSH20 0xFFFFFFFFFFFFFFFFFFFFFFFFFFFFFFFFFFFFFFFF AND PUSH20 0xFFFFFFFFFFFFFFFFFFFFFFFFFFFFFFFFFFFFFFFF AND DUP3 PUSH1 0x40 MLOAD PUSH2 0x1E5B SWAP1 PUSH2 0x4224 JUMP JUMPDEST PUSH0 PUSH1 0x40 MLOAD DUP1 DUP4 SUB DUP2 DUP6 DUP8 GAS CALL SWAP3 POP POP POP RETURNDATASIZE DUP1 PUSH0 DUP2 EQ PUSH2 0x1E95 JUMPI PUSH1 0x40 MLOAD SWAP2 POP PUSH1 0x1F NOT PUSH1 0x3F RETURNDATASIZE ADD AND DUP3 ADD PUSH1 0x40 MSTORE RETURNDATASIZE DUP3 MSTORE RETURNDATASIZE PUSH0 PUSH1 0x20 DUP5 ADD RETURNDATACOPY PUSH2 0x1E9A JUMP JUMPDEST PUSH1 0x60 SWAP2 POP JUMPDEST POP POP SWAP1 POP PUSH0 PUSH2 0x1EC8 PUSH2 0x3E8 PUSH2 0x1EBA PUSH2 0x356 DUP12 PUSH2 0x286D SWAP1 SWAP2 SWAP1 PUSH4 0xFFFFFFFF AND JUMP JUMPDEST PUSH2 0x297E SWAP1 SWAP2 SWAP1 PUSH4 0xFFFFFFFF AND JUMP JUMPDEST SWAP1 POP PUSH0 PUSH2 0x1EF4 PUSH2 0x2710 PUSH2 0x1EE6 PUSH2 0x320 DUP14 PUSH2 0x286D SWAP1 SWAP2 SWAP1 PUSH4 0xFFFFFFFF AND JUMP JUMPDEST PUSH2 0x297E SWAP1 SWAP2 SWAP1 PUSH4 0xFFFFFFFF AND JUMP JUMPDEST SWAP1 POP DUP2 PUSH1 0x18 PUSH0 CALLER PUSH20 0xFFFFFFFFFFFFFFFFFFFFFFFFFFFFFFFFFFFFFFFF AND PUSH20 0xFFFFFFFFFFFFFFFFFFFFFFFFFFFFFFFFFFFFFFFF AND DUP2 MSTORE PUSH1 0x20 ADD SWAP1 DUP2 MSTORE PUSH1 0x20 ADD PUSH0 KECCAK256 PUSH0 DUP3 DUP3 SLOAD PUSH2 0x1F42 SWAP2 SWAP1 PUSH2 0x3F68 JUMP JUMPDEST SWAP3 POP POP DUP2 SWAP1 SSTORE POP DUP1 PUSH1 0x17 PUSH0 CALLER PUSH20 0xFFFFFFFFFFFFFFFFFFFFFFFFFFFFFFFFFFFFFFFF AND PUSH20 0xFFFFFFFFFFFFFFFFFFFFFFFFFFFFFFFFFFFFFFFF AND DUP2 MSTORE PUSH1 0x20 ADD SWAP1 DUP2 MSTORE PUSH1 0x20 ADD PUSH0 KECCAK256 PUSH0 DUP3 DUP3 SLOAD PUSH2 0x1F95 SWAP2 SWAP1 PUSH2 0x3F68 JUMP JUMPDEST SWAP3 POP POP DUP2 SWAP1 SSTORE POP PUSH2 0x1FA5 CALLER PUSH2 0x2993 JUMP JUMPDEST PUSH2 0x2021 JUMPI PUSH1 0x12 CALLER SWAP1 DUP1 PUSH1 0x1 DUP2 SLOAD ADD DUP1 DUP3 SSTORE DUP1 SWAP2 POP POP PUSH1 0x1 SWAP1 SUB SWAP1 PUSH0 MSTORE PUSH1 0x20 PUSH0 KECCAK256 ADD PUSH0 SWAP1 SWAP2 SWAP1 SWAP2 SWAP1 SWAP2 PUSH2 0x100 EXP DUP2 SLOAD DUP2 PUSH20 0xFFFFFFFFFFFFFFFFFFFFFFFFFFFFFFFFFFFFFFFF MUL NOT AND SWAP1 DUP4 PUSH20 0xFFFFFFFFFFFFFFFFFFFFFFFFFFFFFFFFFFFFFFFF AND MUL OR SWAP1 SSTORE POP PUSH1 0xC PUSH0 DUP2 SLOAD DUP1 SWAP3 SWAP2 SWAP1 PUSH2 0x201B SWAP1 PUSH2 0x43D6 JUMP JUMPDEST SWAP2 SWAP1 POP SSTORE POP JUMPDEST DUP9 PUSH1 0x14 PUSH0 CALLER PUSH20 0xFFFFFFFFFFFFFFFFFFFFFFFFFFFFFFFFFFFFFFFF AND PUSH20 0xFFFFFFFFFFFFFFFFFFFFFFFFFFFFFFFFFFFFFFFF AND DUP2 MSTORE PUSH1 0x20 ADD SWAP1 DUP2 MSTORE PUSH1 0x20 ADD PUSH0 KECCAK256 PUSH0 DUP3 DUP3 SLOAD PUSH2 0x206D SWAP2 SWAP1 PUSH2 0x3F68 JUMP JUMPDEST SWAP3 POP POP DUP2 SWAP1 SSTORE POP DUP10 PUSH1 0x15 PUSH0 CALLER PUSH20 0xFFFFFFFFFFFFFFFFFFFFFFFFFFFFFFFFFFFFFFFF AND PUSH20 0xFFFFFFFFFFFFFFFFFFFFFFFFFFFFFFFFFFFFFFFF AND DUP2 MSTORE PUSH1 0x20 ADD SWAP1 DUP2 MSTORE PUSH1 0x20 ADD PUSH0 KECCAK256 PUSH0 DUP3 DUP3 SLOAD PUSH2 0x20C0 SWAP2 SWAP1 PUSH2 0x3F68 JUMP JUMPDEST SWAP3 POP POP DUP2 SWAP1 SSTORE POP DUP9 PUSH1 0x9 PUSH0 DUP3 DUP3 SLOAD PUSH2 0x20D8 SWAP2 SWAP1 PUSH2 0x3F68 JUMP JUMPDEST SWAP3 POP POP DUP2 SWAP1 SSTORE POP DUP10 PUSH1 0xA PUSH0 DUP3 DUP3 SLOAD PUSH2 0x20F0 SWAP2 SWAP1 PUSH2 0x3F68 JUMP JUMPDEST SWAP3 POP POP DUP2 SWAP1 SSTORE POP PUSH1 0x13 PUSH0 PUSH1 0x6 SLOAD DUP2 MSTORE PUSH1 0x20 ADD SWAP1 DUP2 MSTORE PUSH1 0x20 ADD PUSH0 KECCAK256 PUSH1 0x40 MLOAD DUP1 PUSH2 0x100 ADD PUSH1 0x40 MSTORE DUP1 CALLER PUSH20 0xFFFFFFFFFFFFFFFFFFFFFFFFFFFFFFFFFFFFFFFF AND DUP2 MSTORE PUSH1 0x20 ADD DUP13 DUP2 MSTORE PUSH1 0x20 ADD DUP12 DUP2 MSTORE PUSH1 0x20 ADD DUP11 DUP2 MSTORE PUSH1 0x20 ADD DUP9 DUP2 MSTORE PUSH1 0x20 ADD DUP10 DUP2 MSTORE PUSH1 0x20 ADD DUP8 DUP2 MSTORE PUSH1 0x20 ADD PUSH0 ISZERO ISZERO DUP2 MSTORE POP SWAP1 DUP1 PUSH1 0x1 DUP2 SLOAD ADD DUP1 DUP3 SSTORE DUP1 SWAP2 POP POP PUSH1 0x1 SWAP1 SUB SWAP1 PUSH0 MSTORE PUSH1 0x20 PUSH0 KECCAK256 SWAP1 PUSH1 0x8 MUL ADD PUSH0 SWAP1 SWAP2 SWAP1 SWAP2 SWAP1 SWAP2 POP PUSH0 DUP3 ADD MLOAD DUP2 PUSH0 ADD PUSH0 PUSH2 0x100 EXP DUP2 SLOAD DUP2 PUSH20 0xFFFFFFFFFFFFFFFFFFFFFFFFFFFFFFFFFFFFFFFF MUL NOT AND SWAP1 DUP4 PUSH20 0xFFFFFFFFFFFFFFFFFFFFFFFFFFFFFFFFFFFFFFFF AND MUL OR SWAP1 SSTORE POP PUSH1 0x20 DUP3 ADD MLOAD DUP2 PUSH1 0x1 ADD SSTORE PUSH1 0x40 DUP3 ADD MLOAD DUP2 PUSH1 0x2 ADD SSTORE PUSH1 0x60 DUP3 ADD MLOAD DUP2 PUSH1 0x3 ADD SSTORE PUSH1 0x80 DUP3 ADD MLOAD DUP2 PUSH1 0x4 ADD SSTORE PUSH1 0xA0 DUP3 ADD MLOAD DUP2 PUSH1 0x5 ADD SSTORE PUSH1 0xC0 DUP3 ADD MLOAD DUP2 PUSH1 0x6 ADD SSTORE PUSH1 0xE0 DUP3 ADD MLOAD DUP2 PUSH1 0x7 ADD PUSH0 PUSH2 0x100 EXP DUP2 SLOAD DUP2 PUSH1 0xFF MUL NOT AND SWAP1 DUP4 ISZERO ISZERO MUL OR SWAP1 SSTORE POP POP POP PUSH2 0x222D CALLER DUP10 PUSH2 0x2A35 JUMP JUMPDEST CALLER PUSH20 0xFFFFFFFFFFFFFFFFFFFFFFFFFFFFFFFFFFFFFFFF AND PUSH32 0x58E88A38078E18B32597BF4F0BD15497BEB83F983639ABB26D3C1C5DC2F27954 PUSH1 0x6 SLOAD DUP6 CALLVALUE DUP14 PUSH1 0x40 MLOAD PUSH2 0x227B SWAP5 SWAP4 SWAP3 SWAP2 SWAP1 PUSH2 0x441D JUMP JUMPDEST PUSH1 0x40 MLOAD DUP1 SWAP2 SUB SWAP1 LOG2 PUSH0 PUSH8 0xDE0B6B3A7640000 PUSH2 0x22A7 PUSH2 0x2298 PUSH2 0x1BF8 JUMP JUMPDEST DUP11 PUSH2 0x286D SWAP1 SWAP2 SWAP1 PUSH4 0xFFFFFFFF AND JUMP JUMPDEST PUSH2 0x22B1 SWAP2 SWAP1 PUSH2 0x3FC8 JUMP JUMPDEST SWAP1 POP PUSH32 0x7EEE8605074429AB386C2FCB471BCF0C8580632A35AAB6D197DCCBE52992F8F5 DUP12 DUP11 DUP11 DUP11 DUP11 DUP11 DUP8 PUSH1 0x40 MLOAD PUSH2 0x22EE SWAP8 SWAP7 SWAP6 SWAP5 SWAP4 SWAP3 SWAP2 SWAP1 PUSH2 0x4460 JUMP JUMPDEST PUSH1 0x40 MLOAD DUP1 SWAP2 SUB SWAP1 LOG1 PUSH0 PUSH1 0x2 PUSH2 0x2301 PUSH2 0x1BF8 JUMP JUMPDEST PUSH2 0x230B SWAP2 SWAP1 PUSH2 0x4060 JUMP JUMPDEST SWAP1 POP PUSH2 0x2321 CALLER DUP11 DUP5 PUSH2 0x231B PUSH2 0x1BF8 JUMP JUMPDEST DUP6 PUSH2 0x2C14 JUMP JUMPDEST DUP4 PUSH1 0x7 PUSH0 DUP3 DUP3 SLOAD PUSH2 0x2332 SWAP2 SWAP1 PUSH2 0x3F68 JUMP JUMPDEST SWAP3 POP POP DUP2 SWAP1 SSTORE POP DUP3 PUSH1 0x8 PUSH0 DUP3 DUP3 SLOAD PUSH2 0x234A SWAP2 SWAP1 PUSH2 0x3F68 JUMP JUMPDEST SWAP3 POP POP DUP2 SWAP1 SSTORE POP PUSH2 0x235A DUP9 PUSH2 0x2D57 JUMP JUMPDEST PUSH2 0x2363 DUP8 PUSH2 0x3109 JUMP JUMPDEST PUSH1 0x1 PUSH1 0x6 PUSH0 DUP3 DUP3 SLOAD PUSH2 0x2375 SWAP2 SWAP1 PUSH2 0x3F68 JUMP JUMPDEST SWAP3 POP POP DUP2 SWAP1 SSTORE POP POP POP POP POP POP POP POP POP POP POP POP POP JUMP JUMPDEST PUSH0 PUSH1 0x19 PUSH0 DUP4 PUSH20 0xFFFFFFFFFFFFFFFFFFFFFFFFFFFFFFFFFFFFFFFF AND PUSH20 0xFFFFFFFFFFFFFFFFFFFFFFFFFFFFFFFFFFFFFFFF AND DUP2 MSTORE PUSH1 0x20 ADD SWAP1 DUP2 MSTORE PUSH1 0x20 ADD PUSH0 KECCAK256 SLOAD SWAP1 POP SWAP2 SWAP1 POP JUMP JUMPDEST PUSH0 PUSH1 0xF PUSH0 CALLER PUSH20 0xFFFFFFFFFFFFFFFFFFFFFFFFFFFFFFFFFFFFFFFF AND PUSH20 0xFFFFFFFFFFFFFFFFFFFFFFFFFFFFFFFFFFFFFFFF AND DUP2 MSTORE PUSH1 0x20 ADD SWAP1 DUP2 MSTORE PUSH1 0x20 ADD PUSH0 KECCAK256 DUP1 SLOAD SWAP1 POP SWAP1 POP SWAP1 JUMP JUMPDEST PUSH0 DUP1 PUSH0 DUP1 PUSH1 0x10 PUSH0 DUP7 PUSH20 0xFFFFFFFFFFFFFFFFFFFFFFFFFFFFFFFFFFFFFFFF AND PUSH20 0xFFFFFFFFFFFFFFFFFFFFFFFFFFFFFFFFFFFFFFFF AND DUP2 MSTORE PUSH1 0x20 ADD SWAP1 DUP2 MSTORE PUSH1 0x20 ADD PUSH0 KECCAK256 PUSH1 0x40 MLOAD DUP1 PUSH1 0x60 ADD PUSH1 0x40 MSTORE SWAP1 DUP2 PUSH0 DUP3 ADD PUSH0 SWAP1 SLOAD SWAP1 PUSH2 0x100 EXP SWAP1 DIV PUSH20 0xFFFFFFFFFFFFFFFFFFFFFFFFFFFFFFFFFFFFFFFF AND PUSH20 0xFFFFFFFFFFFFFFFFFFFFFFFFFFFFFFFFFFFFFFFF AND PUSH20 0xFFFFFFFFFFFFFFFFFFFFFFFFFFFFFFFFFFFFFFFF AND DUP2 MSTORE PUSH1 0x20 ADD PUSH1 0x1 DUP3 ADD SLOAD DUP2 MSTORE PUSH1 0x20 ADD PUSH1 0x2 DUP3 ADD SLOAD DUP2 MSTORE POP POP SWAP1 POP DUP1 PUSH0 ADD MLOAD DUP2 PUSH1 0x20 ADD MLOAD DUP3 PUSH1 0x40 ADD MLOAD SWAP4 POP SWAP4 POP SWAP4 POP POP SWAP2 SWAP4 SWAP1 SWAP3 POP JUMP JUMPDEST PUSH1 0x60 PUSH1 0x13 PUSH0 DUP4 DUP2 MSTORE PUSH1 0x20 ADD SWAP1 DUP2 MSTORE PUSH1 0x20 ADD PUSH0 KECCAK256 DUP1 SLOAD DUP1 PUSH1 0x20 MUL PUSH1 0x20 ADD PUSH1 0x40 MLOAD SWAP1 DUP2 ADD PUSH1 0x40 MSTORE DUP1 SWAP3 SWAP2 SWAP1 DUP2 DUP2 MSTORE PUSH1 0x20 ADD PUSH0 SWAP1 JUMPDEST DUP3 DUP3 LT ISZERO PUSH2 0x25F6 JUMPI DUP4 DUP3 SWAP1 PUSH0 MSTORE PUSH1 0x20 PUSH0 KECCAK256 SWAP1 PUSH1 0x8 MUL ADD PUSH1 0x40 MLOAD DUP1 PUSH2 0x100 ADD PUSH1 0x40 MSTORE SWAP1 DUP2 PUSH0 DUP3 ADD PUSH0 SWAP1 SLOAD SWAP1 PUSH2 0x100 EXP SWAP1 DIV PUSH20 0xFFFFFFFFFFFFFFFFFFFFFFFFFFFFFFFFFFFFFFFF AND PUSH20 0xFFFFFFFFFFFFFFFFFFFFFFFFFFFFFFFFFFFFFFFF AND PUSH20 0xFFFFFFFFFFFFFFFFFFFFFFFFFFFFFFFFFFFFFFFF AND DUP2 MSTORE PUSH1 0x20 ADD PUSH1 0x1 DUP3 ADD SLOAD DUP2 MSTORE PUSH1 0x20 ADD PUSH1 0x2 DUP3 ADD SLOAD DUP2 MSTORE PUSH1 0x20 ADD PUSH1 0x3 DUP3 ADD SLOAD DUP2 MSTORE PUSH1 0x20 ADD PUSH1 0x4 DUP3 ADD SLOAD DUP2 MSTORE PUSH1 0x20 ADD PUSH1 0x5 DUP3 ADD SLOAD DUP2 MSTORE PUSH1 0x20 ADD PUSH1 0x6 DUP3 ADD SLOAD DUP2 MSTORE PUSH1 0x20 ADD PUSH1 0x7 DUP3 ADD PUSH0 SWAP1 SLOAD SWAP1 PUSH2 0x100 EXP SWAP1 DIV PUSH1 0xFF AND ISZERO ISZERO ISZERO ISZERO DUP2 MSTORE POP POP DUP2 MSTORE PUSH1 0x20 ADD SWAP1 PUSH1 0x1 ADD SWAP1 PUSH2 0x251B JUMP JUMPDEST POP POP POP POP SWAP1 POP SWAP2 SWAP1 POP JUMP JUMPDEST PUSH2 0x2609 PUSH2 0x2725 JUMP JUMPDEST PUSH0 PUSH20 0xFFFFFFFFFFFFFFFFFFFFFFFFFFFFFFFFFFFFFFFF AND DUP2 PUSH20 0xFFFFFFFFFFFFFFFFFFFFFFFFFFFFFFFFFFFFFFFF AND SUB PUSH2 0x2679 JUMPI PUSH0 PUSH1 0x40 MLOAD PUSH32 0x1E4FBDF700000000000000000000000000000000000000000000000000000000 DUP2 MSTORE PUSH1 0x4 ADD PUSH2 0x2670 SWAP2 SWAP1 PUSH2 0x3C48 JUMP JUMPDEST PUSH1 0x40 MLOAD DUP1 SWAP2 SUB SWAP1 REVERT JUMPDEST PUSH2 0x2682 DUP2 PUSH2 0x27AC JUMP JUMPDEST POP JUMP JUMPDEST PUSH2 0x268D PUSH2 0x2725 JUMP JUMPDEST PUSH0 PUSH1 0x64 PUSH1 0x63 SELFBALANCE PUSH2 0x269D SWAP2 SWAP1 PUSH2 0x4060 JUMP JUMPDEST PUSH2 0x26A7 SWAP2 SWAP1 PUSH2 0x3FC8 JUMP JUMPDEST SWAP1 POP PUSH0 PUSH2 0x26B2 PUSH2 0x1BB9 JUMP JUMPDEST PUSH20 0xFFFFFFFFFFFFFFFFFFFFFFFFFFFFFFFFFFFFFFFF AND DUP3 PUSH1 0x40 MLOAD PUSH2 0x26D5 SWAP1 PUSH2 0x4224 JUMP JUMPDEST PUSH0 PUSH1 0x40 MLOAD DUP1 DUP4 SUB DUP2 DUP6 DUP8 GAS CALL SWAP3 POP POP POP RETURNDATASIZE DUP1 PUSH0 DUP2 EQ PUSH2 0x270F JUMPI PUSH1 0x40 MLOAD SWAP2 POP PUSH1 0x1F NOT PUSH1 0x3F RETURNDATASIZE ADD AND DUP3 ADD PUSH1 0x40 MSTORE RETURNDATASIZE DUP3 MSTORE RETURNDATASIZE PUSH0 PUSH1 0x20 DUP5 ADD RETURNDATACOPY PUSH2 0x2714 JUMP JUMPDEST PUSH1 0x60 SWAP2 POP JUMPDEST POP POP SWAP1 POP DUP1 PUSH2 0x2721 JUMPI PUSH0 DUP1 REVERT JUMPDEST POP POP JUMP JUMPDEST PUSH2 0x272D PUSH2 0x3439 JUMP JUMPDEST PUSH20 0xFFFFFFFFFFFFFFFFFFFFFFFFFFFFFFFFFFFFFFFF AND PUSH2 0x274B PUSH2 0x1BB9 JUMP JUMPDEST PUSH20 0xFFFFFFFFFFFFFFFFFFFFFFFFFFFFFFFFFFFFFFFF AND EQ PUSH2 0x27AA JUMPI PUSH2 0x276E PUSH2 0x3439 JUMP JUMPDEST PUSH1 0x40 MLOAD PUSH32 0x118CDAA700000000000000000000000000000000000000000000000000000000 DUP2 MSTORE PUSH1 0x4 ADD PUSH2 0x27A1 SWAP2 SWAP1 PUSH2 0x3C48 JUMP JUMPDEST PUSH1 0x40 MLOAD DUP1 SWAP2 SUB SWAP1 REVERT JUMPDEST JUMP JUMPDEST PUSH0 DUP1 PUSH0 SWAP1 SLOAD SWAP1 PUSH2 0x100 EXP SWAP1 DIV PUSH20 0xFFFFFFFFFFFFFFFFFFFFFFFFFFFFFFFFFFFFFFFF AND SWAP1 POP DUP2 PUSH0 DUP1 PUSH2 0x100 EXP DUP2 SLOAD DUP2 PUSH20 0xFFFFFFFFFFFFFFFFFFFFFFFFFFFFFFFFFFFFFFFF MUL NOT AND SWAP1 DUP4 PUSH20 0xFFFFFFFFFFFFFFFFFFFFFFFFFFFFFFFFFFFFFFFF AND MUL OR SWAP1 SSTORE POP DUP2 PUSH20 0xFFFFFFFFFFFFFFFFFFFFFFFFFFFFFFFFFFFFFFFF AND DUP2 PUSH20 0xFFFFFFFFFFFFFFFFFFFFFFFFFFFFFFFFFFFFFFFF AND PUSH32 0x8BE0079C531659141344CD1FD0A4F28419497F9722A3DAAFE3B4186F6B6457E0 PUSH1 0x40 MLOAD PUSH1 0x40 MLOAD DUP1 SWAP2 SUB SWAP1 LOG3 POP POP JUMP JUMPDEST PUSH0 DUP2 DUP4 PUSH2 0x287A SWAP2 SWAP1 PUSH2 0x4060 JUMP JUMPDEST SWAP1 POP SWAP3 SWAP2 POP POP JUMP JUMPDEST PUSH0 DUP1 PUSH0 DUP1 PUSH0 DUP1 PUSH2 0x28B1 PUSH2 0x3E8 PUSH2 0x28A3 PUSH2 0x26A DUP11 PUSH2 0x286D SWAP1 SWAP2 SWAP1 PUSH4 0xFFFFFFFF AND JUMP JUMPDEST PUSH2 0x297E SWAP1 SWAP2 SWAP1 PUSH4 0xFFFFFFFF AND JUMP JUMPDEST SWAP1 POP PUSH0 PUSH2 0x28DC PUSH2 0x3E8 PUSH2 0x28CE PUSH1 0xEC DUP12 PUSH2 0x286D SWAP1 SWAP2 SWAP1 PUSH4 0xFFFFFFFF AND JUMP JUMPDEST PUSH2 0x297E SWAP1 SWAP2 SWAP1 PUSH4 0xFFFFFFFF AND JUMP JUMPDEST SWAP1 POP PUSH0 PUSH2 0x2908 PUSH2 0x2710 PUSH2 0x28FA PUSH2 0x320 DUP13 PUSH2 0x286D SWAP1 SWAP2 SWAP1 PUSH4 0xFFFFFFFF AND JUMP JUMPDEST PUSH2 0x297E SWAP1 SWAP2 SWAP1 PUSH4 0xFFFFFFFF AND JUMP JUMPDEST SWAP1 POP PUSH0 PUSH2 0x2934 PUSH2 0x2710 PUSH2 0x2926 PUSH2 0x230 DUP14 PUSH2 0x286D SWAP1 SWAP2 SWAP1 PUSH4 0xFFFFFFFF AND JUMP JUMPDEST PUSH2 0x297E SWAP1 SWAP2 SWAP1 PUSH4 0xFFFFFFFF AND JUMP JUMPDEST SWAP1 POP PUSH0 PUSH2 0x295F PUSH2 0x2710 PUSH2 0x2951 PUSH1 0x64 DUP15 PUSH2 0x286D SWAP1 SWAP2 SWAP1 PUSH4 0xFFFFFFFF AND JUMP JUMPDEST PUSH2 0x297E SWAP1 SWAP2 SWAP1 PUSH4 0xFFFFFFFF AND JUMP JUMPDEST SWAP1 POP DUP5 DUP5 DUP5 DUP5 DUP5 SWAP10 POP SWAP10 POP SWAP10 POP SWAP10 POP SWAP10 POP POP POP POP POP POP SWAP2 SWAP4 SWAP6 SWAP1 SWAP3 SWAP5 POP JUMP JUMPDEST PUSH0 DUP2 DUP4 PUSH2 0x298B SWAP2 SWAP1 PUSH2 0x3FC8 JUMP JUMPDEST SWAP1 POP SWAP3 SWAP2 POP POP JUMP JUMPDEST PUSH0 DUP1 PUSH0 SWAP1 POP JUMPDEST PUSH1 0x12 DUP1 SLOAD SWAP1 POP DUP2 LT ISZERO PUSH2 0x2A2B JUMPI DUP3 PUSH20 0xFFFFFFFFFFFFFFFFFFFFFFFFFFFFFFFFFFFFFFFF AND PUSH1 0x12 DUP3 DUP2 SLOAD DUP2 LT PUSH2 0x29D1 JUMPI PUSH2 0x29D0 PUSH2 0x3F0E JUMP JUMPDEST JUMPDEST SWAP1 PUSH0 MSTORE PUSH1 0x20 PUSH0 KECCAK256 ADD PUSH0 SWAP1 SLOAD SWAP1 PUSH2 0x100 EXP SWAP1 DIV PUSH20 0xFFFFFFFFFFFFFFFFFFFFFFFFFFFFFFFFFFFFFFFF AND PUSH20 0xFFFFFFFFFFFFFFFFFFFFFFFFFFFFFFFFFFFFFFFF AND SUB PUSH2 0x2A1E JUMPI PUSH1 0x1 SWAP2 POP POP PUSH2 0x2A30 JUMP JUMPDEST DUP1 DUP1 PUSH1 0x1 ADD SWAP2 POP POP PUSH2 0x2999 JUMP JUMPDEST POP PUSH0 SWAP1 POP JUMPDEST SWAP2 SWAP1 POP JUMP JUMPDEST PUSH0 PUSH1 0xF PUSH0 DUP5 PUSH20 0xFFFFFFFFFFFFFFFFFFFFFFFFFFFFFFFFFFFFFFFF AND PUSH20 0xFFFFFFFFFFFFFFFFFFFFFFFFFFFFFFFFFFFFFFFF AND DUP2 MSTORE PUSH1 0x20 ADD SWAP1 DUP2 MSTORE PUSH1 0x20 ADD PUSH0 KECCAK256 SWAP1 POP PUSH0 PUSH1 0x40 MLOAD DUP1 PUSH1 0xC0 ADD PUSH1 0x40 MSTORE DUP1 PUSH1 0xEC PUSH2 0xFFFF AND DUP2 MSTORE PUSH1 0x20 ADD PUSH2 0x17E PUSH2 0xFFFF AND DUP2 MSTORE PUSH1 0x20 ADD PUSH2 0x1F4 PUSH2 0xFFFF AND DUP2 MSTORE PUSH1 0x20 ADD PUSH2 0x26A PUSH2 0xFFFF AND DUP2 MSTORE PUSH1 0x20 ADD PUSH2 0x312 PUSH2 0xFFFF AND DUP2 MSTORE PUSH1 0x20 ADD PUSH2 0x3E8 PUSH2 0xFFFF AND DUP2 MSTORE POP SWAP1 POP PUSH0 PUSH1 0x6 DUP5 PUSH2 0x2AD6 SWAP2 SWAP1 PUSH2 0x3FC8 JUMP JUMPDEST SWAP1 POP PUSH0 JUMPDEST PUSH1 0x6 DUP2 LT ISZERO PUSH2 0x2C0C JUMPI DUP4 PUSH1 0x40 MLOAD DUP1 PUSH1 0xC0 ADD PUSH1 0x40 MSTORE DUP1 DUP9 PUSH20 0xFFFFFFFFFFFFFFFFFFFFFFFFFFFFFFFFFFFFFFFF AND DUP2 MSTORE PUSH1 0x20 ADD DUP5 DUP2 MSTORE PUSH1 0x20 ADD DUP6 DUP5 PUSH1 0x6 DUP2 LT PUSH2 0x2B24 JUMPI PUSH2 0x2B23 PUSH2 0x3F0E JUMP JUMPDEST JUMPDEST PUSH1 0x20 MUL ADD MLOAD PUSH2 0xFFFF AND DUP2 MSTORE PUSH1 0x20 ADD PUSH2 0x2B3B DUP5 PUSH2 0x3440 JUMP JUMPDEST DUP2 MSTORE PUSH1 0x20 ADD TIMESTAMP DUP2 MSTORE PUSH1 0x20 ADD PUSH0 ISZERO ISZERO DUP2 MSTORE POP SWAP1 DUP1 PUSH1 0x1 DUP2 SLOAD ADD DUP1 DUP3 SSTORE DUP1 SWAP2 POP POP PUSH1 0x1 SWAP1 SUB SWAP1 PUSH0 MSTORE PUSH1 0x20 PUSH0 KECCAK256 SWAP1 PUSH1 0x6 MUL ADD PUSH0 SWAP1 SWAP2 SWAP1 SWAP2 SWAP1 SWAP2 POP PUSH0 DUP3 ADD MLOAD DUP2 PUSH0 ADD PUSH0 PUSH2 0x100 EXP DUP2 SLOAD DUP2 PUSH20 0xFFFFFFFFFFFFFFFFFFFFFFFFFFFFFFFFFFFFFFFF MUL NOT AND SWAP1 DUP4 PUSH20 0xFFFFFFFFFFFFFFFFFFFFFFFFFFFFFFFFFFFFFFFF AND MUL OR SWAP1 SSTORE POP PUSH1 0x20 DUP3 ADD MLOAD DUP2 PUSH1 0x1 ADD SSTORE PUSH1 0x40 DUP3 ADD MLOAD DUP2 PUSH1 0x2 ADD SSTORE PUSH1 0x60 DUP3 ADD MLOAD DUP2 PUSH1 0x3 ADD SSTORE PUSH1 0x80 DUP3 ADD MLOAD DUP2 PUSH1 0x4 ADD SSTORE PUSH1 0xA0 DUP3 ADD MLOAD DUP2 PUSH1 0x5 ADD PUSH0 PUSH2 0x100 EXP DUP2 SLOAD DUP2 PUSH1 0xFF MUL NOT AND SWAP1 DUP4 ISZERO ISZERO MUL OR SWAP1 SSTORE POP POP POP DUP1 DUP1 PUSH1 0x1 ADD SWAP2 POP POP PUSH2 0x2ADA JUMP JUMPDEST POP POP POP POP POP POP JUMP JUMPDEST PUSH0 PUSH1 0xE PUSH0 DUP8 PUSH20 0xFFFFFFFFFFFFFFFFFFFFFFFFFFFFFFFFFFFFFFFF AND PUSH20 0xFFFFFFFFFFFFFFFFFFFFFFFFFFFFFFFFFFFFFFFF AND DUP2 MSTORE PUSH1 0x20 ADD SWAP1 DUP2 MSTORE PUSH1 0x20 ADD PUSH0 KECCAK256 SWAP1 POP DUP1 PUSH1 0x40 MLOAD DUP1 PUSH1 0xE0 ADD PUSH1 0x40 MSTORE DUP1 DUP9 PUSH20 0xFFFFFFFFFFFFFFFFFFFFFFFFFFFFFFFFFFFFFFFF AND DUP2 MSTORE PUSH1 0x20 ADD DUP8 DUP2 MSTORE PUSH1 0x20 ADD DUP7 DUP2 MSTORE PUSH1 0x20 ADD DUP6 DUP2 MSTORE PUSH1 0x20 ADD DUP5 DUP2 MSTORE PUSH1 0x20 ADD PUSH9 0x56BC75E2D63100000 DUP2 MSTORE PUSH1 0x20 ADD TIMESTAMP DUP2 MSTORE POP SWAP1 DUP1 PUSH1 0x1 DUP2 SLOAD ADD DUP1 DUP3 SSTORE DUP1 SWAP2 POP POP PUSH1 0x1 SWAP1 SUB SWAP1 PUSH0 MSTORE PUSH1 0x20 PUSH0 KECCAK256 SWAP1 PUSH1 0x7 MUL ADD PUSH0 SWAP1 SWAP2 SWAP1 SWAP2 SWAP1 SWAP2 POP PUSH0 DUP3 ADD MLOAD DUP2 PUSH0 ADD PUSH0 PUSH2 0x100 EXP DUP2 SLOAD DUP2 PUSH20 0xFFFFFFFFFFFFFFFFFFFFFFFFFFFFFFFFFFFFFFFF MUL NOT AND SWAP1 DUP4 PUSH20 0xFFFFFFFFFFFFFFFFFFFFFFFFFFFFFFFFFFFFFFFF AND MUL OR SWAP1 SSTORE POP PUSH1 0x20 DUP3 ADD MLOAD DUP2 PUSH1 0x1 ADD SSTORE PUSH1 0x40 DUP3 ADD MLOAD DUP2 PUSH1 0x2 ADD SSTORE PUSH1 0x60 DUP3 ADD MLOAD DUP2 PUSH1 0x3 ADD SSTORE PUSH1 0x80 DUP3 ADD MLOAD DUP2 PUSH1 0x4 ADD SSTORE PUSH1 0xA0 DUP3 ADD MLOAD DUP2 PUSH1 0x5 ADD SSTORE PUSH1 0xC0 DUP3 ADD MLOAD DUP2 PUSH1 0x6 ADD SSTORE POP POP POP POP POP POP POP POP JUMP JUMPDEST PUSH0 DUP2 DUP2 PUSH2 0x2D64 SWAP2 SWAP1 PUSH2 0x3F68 JUMP JUMPDEST SWAP1 POP PUSH0 JUMPDEST PUSH1 0x12 DUP1 SLOAD SWAP1 POP DUP2 LT ISZERO PUSH2 0x3040 JUMPI PUSH0 PUSH1 0x12 DUP3 DUP2 SLOAD DUP2 LT PUSH2 0x2D8A JUMPI PUSH2 0x2D89 PUSH2 0x3F0E JUMP JUMPDEST JUMPDEST SWAP1 PUSH0 MSTORE PUSH1 0x20 PUSH0 KECCAK256 ADD PUSH0 SWAP1 SLOAD SWAP1 PUSH2 0x100 EXP SWAP1 DIV PUSH20 0xFFFFFFFFFFFFFFFFFFFFFFFFFFFFFFFFFFFFFFFF AND SWAP1 POP PUSH0 PUSH1 0x10 PUSH0 DUP4 PUSH20 0xFFFFFFFFFFFFFFFFFFFFFFFFFFFFFFFFFFFFFFFF AND PUSH20 0xFFFFFFFFFFFFFFFFFFFFFFFFFFFFFFFFFFFFFFFF AND DUP2 MSTORE PUSH1 0x20 ADD SWAP1 DUP2 MSTORE PUSH1 0x20 ADD PUSH0 KECCAK256 SWAP1 POP PUSH1 0x1B PUSH0 DUP4 PUSH20 0xFFFFFFFFFFFFFFFFFFFFFFFFFFFFFFFFFFFFFFFF AND PUSH20 0xFFFFFFFFFFFFFFFFFFFFFFFFFFFFFFFFFFFFFFFF AND DUP2 MSTORE PUSH1 0x20 ADD SWAP1 DUP2 MSTORE PUSH1 0x20 ADD PUSH0 KECCAK256 SLOAD PUSH1 0x15 PUSH0 DUP5 PUSH20 0xFFFFFFFFFFFFFFFFFFFFFFFFFFFFFFFFFFFFFFFF AND PUSH20 0xFFFFFFFFFFFFFFFFFFFFFFFFFFFFFFFFFFFFFFFF AND DUP2 MSTORE PUSH1 0x20 ADD SWAP1 DUP2 MSTORE PUSH1 0x20 ADD PUSH0 KECCAK256 SLOAD GT ISZERO PUSH2 0x3031 JUMPI PUSH0 PUSH1 0x8 SLOAD PUSH2 0x2710 PUSH3 0xF4240 PUSH1 0x17 PUSH0 DUP8 PUSH20 0xFFFFFFFFFFFFFFFFFFFFFFFFFFFFFFFFFFFFFFFF AND PUSH20 0xFFFFFFFFFFFFFFFFFFFFFFFFFFFFFFFFFFFFFFFF AND DUP2 MSTORE PUSH1 0x20 ADD SWAP1 DUP2 MSTORE PUSH1 0x20 ADD PUSH0 KECCAK256 SLOAD PUSH2 0x2EC9 SWAP2 SWAP1 PUSH2 0x4060 JUMP JUMPDEST PUSH2 0x2ED3 SWAP2 SWAP1 PUSH2 0x4060 JUMP JUMPDEST PUSH2 0x2EDD SWAP2 SWAP1 PUSH2 0x3FC8 JUMP JUMPDEST SWAP1 POP PUSH0 PUSH3 0xF4240 PUSH2 0x2710 PUSH2 0x2EF1 SWAP2 SWAP1 PUSH2 0x4060 JUMP JUMPDEST DUP3 DUP9 PUSH2 0x2EFD SWAP2 SWAP1 PUSH2 0x4060 JUMP JUMPDEST PUSH2 0x2F07 SWAP2 SWAP1 PUSH2 0x3FC8 JUMP JUMPDEST SWAP1 POP DUP1 DUP7 PUSH2 0x2F15 SWAP2 SWAP1 PUSH2 0x40A1 JUMP JUMPDEST SWAP6 POP DUP4 DUP4 PUSH0 ADD PUSH0 PUSH2 0x100 EXP DUP2 SLOAD DUP2 PUSH20 0xFFFFFFFFFFFFFFFFFFFFFFFFFFFFFFFFFFFFFFFF MUL NOT AND SWAP1 DUP4 PUSH20 0xFFFFFFFFFFFFFFFFFFFFFFFFFFFFFFFFFFFFFFFF AND MUL OR SWAP1 SSTORE POP PUSH2 0x2F6F DUP2 DUP5 PUSH1 0x1 ADD SLOAD PUSH2 0x3541 SWAP1 SWAP2 SWAP1 PUSH4 0xFFFFFFFF AND JUMP JUMPDEST DUP4 PUSH1 0x1 ADD DUP2 SWAP1 SSTORE POP PUSH2 0x2F8E DUP2 DUP5 PUSH1 0x2 ADD SLOAD PUSH2 0x3541 SWAP1 SWAP2 SWAP1 PUSH4 0xFFFFFFFF AND JUMP JUMPDEST DUP4 PUSH1 0x2 ADD DUP2 SWAP1 SSTORE POP DUP1 PUSH1 0x1B PUSH0 DUP7 PUSH20 0xFFFFFFFFFFFFFFFFFFFFFFFFFFFFFFFFFFFFFFFF AND PUSH20 0xFFFFFFFFFFFFFFFFFFFFFFFFFFFFFFFFFFFFFFFF AND DUP2 MSTORE PUSH1 0x20 ADD SWAP1 DUP2 MSTORE PUSH1 0x20 ADD PUSH0 KECCAK256 PUSH0 DUP3 DUP3 SLOAD PUSH2 0x2FE2 SWAP2 SWAP1 PUSH2 0x3F68 JUMP JUMPDEST SWAP3 POP POP DUP2 SWAP1 SSTORE POP PUSH32 0x271E0003FE7675B82AA8A904F75460C874200F17424CDD73C061638F46234107 DUP4 PUSH1 0x1 ADD SLOAD PUSH1 0x8 SLOAD DUP5 DUP5 DUP12 PUSH1 0x40 MLOAD PUSH2 0x3026 SWAP6 SWAP5 SWAP4 SWAP3 SWAP2 SWAP1 PUSH2 0x44CD JUMP JUMPDEST PUSH1 0x40 MLOAD DUP1 SWAP2 SUB SWAP1 LOG1 POP POP JUMPDEST POP POP DUP1 DUP1 PUSH1 0x1 ADD SWAP2 POP POP PUSH2 0x2D68 JUMP JUMPDEST POP PUSH0 PUSH1 0x3 PUSH0 SWAP1 SLOAD SWAP1 PUSH2 0x100 EXP SWAP1 DIV PUSH20 0xFFFFFFFFFFFFFFFFFFFFFFFFFFFFFFFFFFFFFFFF AND PUSH20 0xFFFFFFFFFFFFFFFFFFFFFFFFFFFFFFFFFFFFFFFF AND DUP3 PUSH1 0x40 MLOAD PUSH2 0x3087 SWAP1 PUSH2 0x4224 JUMP JUMPDEST PUSH0 PUSH1 0x40 MLOAD DUP1 DUP4 SUB DUP2 DUP6 DUP8 GAS CALL SWAP3 POP POP POP RETURNDATASIZE DUP1 PUSH0 DUP2 EQ PUSH2 0x30C1 JUMPI PUSH1 0x40 MLOAD SWAP2 POP PUSH1 0x1F NOT PUSH1 0x3F RETURNDATASIZE ADD AND DUP3 ADD PUSH1 0x40 MSTORE RETURNDATASIZE DUP3 MSTORE RETURNDATASIZE PUSH0 PUSH1 0x20 DUP5 ADD RETURNDATACOPY PUSH2 0x30C6 JUMP JUMPDEST PUSH1 0x60 SWAP2 POP JUMPDEST POP POP SWAP1 POP PUSH32 0x20BAF09A572AA0DC0FA7B702B94AB94E1F833165FA58E9191A01420E98E9E46 DUP2 PUSH1 0x40 MLOAD PUSH2 0x30F9 SWAP2 SWAP1 PUSH2 0x451E JUMP JUMPDEST PUSH1 0x40 MLOAD DUP1 SWAP2 SUB SWAP1 LOG1 PUSH0 SWAP2 POP POP POP POP JUMP JUMPDEST PUSH0 DUP2 DUP2 PUSH2 0x3116 SWAP2 SWAP1 PUSH2 0x3F68 JUMP JUMPDEST SWAP1 POP PUSH0 PUSH1 0x2 PUSH0 SWAP1 SLOAD SWAP1 PUSH2 0x100 EXP SWAP1 DIV PUSH20 0xFFFFFFFFFFFFFFFFFFFFFFFFFFFFFFFFFFFFFFFF AND PUSH20 0xFFFFFFFFFFFFFFFFFFFFFFFFFFFFFFFFFFFFFFFF AND PUSH4 0x243BAC7D PUSH1 0x40 MLOAD DUP2 PUSH4 0xFFFFFFFF AND PUSH1 0xE0 SHL DUP2 MSTORE PUSH1 0x4 ADD PUSH1 0x20 PUSH1 0x40 MLOAD DUP1 DUP4 SUB DUP2 DUP7 GAS STATICCALL ISZERO DUP1 ISZERO PUSH2 0x3183 JUMPI RETURNDATASIZE PUSH0 DUP1 RETURNDATACOPY RETURNDATASIZE PUSH0 REVERT JUMPDEST POP POP POP POP PUSH1 0x40 MLOAD RETURNDATASIZE PUSH1 0x1F NOT PUSH1 0x1F DUP3 ADD AND DUP3 ADD DUP1 PUSH1 0x40 MSTORE POP DUP2 ADD SWAP1 PUSH2 0x31A7 SWAP2 SWAP1 PUSH2 0x4343 JUMP JUMPDEST SWAP1 POP PUSH1 0x60 DUP1 PUSH2 0x31B4 PUSH2 0x3556 JUMP JUMPDEST DUP1 SWAP3 POP DUP2 SWAP4 POP POP POP PUSH0 DUP3 MLOAD GT ISZERO PUSH2 0x336E JUMPI PUSH0 JUMPDEST DUP3 MLOAD DUP2 LT ISZERO PUSH2 0x336C JUMPI PUSH0 DUP4 DUP3 DUP2 MLOAD DUP2 LT PUSH2 0x31E4 JUMPI PUSH2 0x31E3 PUSH2 0x3F0E JUMP JUMPDEST JUMPDEST PUSH1 0x20 MUL PUSH1 0x20 ADD ADD MLOAD SWAP1 POP PUSH0 DUP4 DUP4 DUP2 MLOAD DUP2 LT PUSH2 0x3202 JUMPI PUSH2 0x3201 PUSH2 0x3F0E JUMP JUMPDEST JUMPDEST PUSH1 0x20 MUL PUSH1 0x20 ADD ADD MLOAD SWAP1 POP PUSH0 DUP7 PUSH2 0x2710 PUSH3 0xF4240 DUP5 PUSH2 0x3220 SWAP2 SWAP1 PUSH2 0x4060 JUMP JUMPDEST PUSH2 0x322A SWAP2 SWAP1 PUSH2 0x4060 JUMP JUMPDEST PUSH2 0x3234 SWAP2 SWAP1 PUSH2 0x3FC8 JUMP JUMPDEST SWAP1 POP PUSH0 PUSH3 0xF4240 PUSH2 0x2710 PUSH2 0x3248 SWAP2 SWAP1 PUSH2 0x4060 JUMP JUMPDEST DUP3 DUP12 PUSH2 0x3254 SWAP2 SWAP1 PUSH2 0x4060 JUMP JUMPDEST PUSH2 0x325E SWAP2 SWAP1 PUSH2 0x3FC8 JUMP JUMPDEST SWAP1 POP DUP1 DUP10 PUSH2 0x326C SWAP2 SWAP1 PUSH2 0x40A1 JUMP JUMPDEST SWAP9 POP PUSH0 PUSH1 0x11 PUSH0 DUP7 PUSH20 0xFFFFFFFFFFFFFFFFFFFFFFFFFFFFFFFFFFFFFFFF AND PUSH20 0xFFFFFFFFFFFFFFFFFFFFFFFFFFFFFFFFFFFFFFFF AND DUP2 MSTORE PUSH1 0x20 ADD SWAP1 DUP2 MSTORE PUSH1 0x20 ADD PUSH0 KECCAK256 SWAP1 POP DUP5 DUP2 PUSH0 ADD PUSH0 PUSH2 0x100 EXP DUP2 SLOAD DUP2 PUSH20 0xFFFFFFFFFFFFFFFFFFFFFFFFFFFFFFFFFFFFFFFF MUL NOT AND SWAP1 DUP4 PUSH20 0xFFFFFFFFFFFFFFFFFFFFFFFFFFFFFFFFFFFFFFFF AND MUL OR SWAP1 SSTORE POP PUSH2 0x3306 DUP3 DUP3 PUSH1 0x1 ADD SLOAD PUSH2 0x3541 SWAP1 SWAP2 SWAP1 PUSH4 0xFFFFFFFF AND JUMP JUMPDEST DUP2 PUSH1 0x1 ADD DUP2 SWAP1 SSTORE POP DUP4 DUP2 PUSH1 0x2 ADD DUP2 SWAP1 SSTORE POP PUSH32 0x9B49392C3BCBE0318FB2EF8D79D3C19C0DBF7672B4AC27628E6A48BFE1C33AA6 DUP2 PUSH1 0x1 ADD SLOAD PUSH1 0x7 SLOAD DUP6 DUP6 PUSH1 0x40 MLOAD PUSH2 0x3352 SWAP5 SWAP4 SWAP3 SWAP2 SWAP1 PUSH2 0x4537 JUMP JUMPDEST PUSH1 0x40 MLOAD DUP1 SWAP2 SUB SWAP1 LOG1 POP POP POP POP POP DUP1 DUP1 PUSH1 0x1 ADD SWAP2 POP POP PUSH2 0x31C7 JUMP JUMPDEST POP JUMPDEST PUSH0 PUSH1 0x3 PUSH0 SWAP1 SLOAD SWAP1 PUSH2 0x100 EXP SWAP1 DIV PUSH20 0xFFFFFFFFFFFFFFFFFFFFFFFFFFFFFFFFFFFFFFFF AND PUSH20 0xFFFFFFFFFFFFFFFFFFFFFFFFFFFFFFFFFFFFFFFF AND DUP6 PUSH1 0x40 MLOAD PUSH2 0x33B4 SWAP1 PUSH2 0x4224 JUMP JUMPDEST PUSH0 PUSH1 0x40 MLOAD DUP1 DUP4 SUB DUP2 DUP6 DUP8 GAS CALL SWAP3 POP POP POP RETURNDATASIZE DUP1 PUSH0 DUP2 EQ PUSH2 0x33EE JUMPI PUSH1 0x40 MLOAD SWAP2 POP PUSH1 0x1F NOT PUSH1 0x3F RETURNDATASIZE ADD AND DUP3 ADD PUSH1 0x40 MSTORE RETURNDATASIZE DUP3 MSTORE RETURNDATASIZE PUSH0 PUSH1 0x20 DUP5 ADD RETURNDATACOPY PUSH2 0x33F3 JUMP JUMPDEST PUSH1 0x60 SWAP2 POP JUMPDEST POP POP SWAP1 POP PUSH32 0x20BAF09A572AA0DC0FA7B702B94AB94E1F833165FA58E9191A01420E98E9E46 DUP2 PUSH1 0x40 MLOAD PUSH2 0x3426 SWAP2 SWAP1 PUSH2 0x451E JUMP JUMPDEST PUSH1 0x40 MLOAD DUP1 SWAP2 SUB SWAP1 LOG1 PUSH0 SWAP5 POP POP POP POP POP POP POP JUMP JUMPDEST PUSH0 CALLER SWAP1 POP SWAP1 JUMP JUMPDEST PUSH0 DUP1 DUP3 PUSH1 0xFF AND LT ISZERO DUP1 ISZERO PUSH2 0x3457 JUMPI POP PUSH1 0x6 DUP3 PUSH1 0xFF AND LT JUMPDEST PUSH2 0x3496 JUMPI PUSH1 0x40 MLOAD PUSH32 0x8C379A000000000000000000000000000000000000000000000000000000000 DUP2 MSTORE PUSH1 0x4 ADD PUSH2 0x348D SWAP1 PUSH2 0x45C4 JUMP JUMPDEST PUSH1 0x40 MLOAD DUP1 SWAP2 SUB SWAP1 REVERT JUMPDEST PUSH0 PUSH1 0x40 MLOAD DUP1 PUSH1 0xC0 ADD PUSH1 0x40 MSTORE DUP1 PUSH1 0xEC PUSH2 0xFFFF AND DUP2 MSTORE PUSH1 0x20 ADD PUSH2 0x17E PUSH2 0xFFFF AND DUP2 MSTORE PUSH1 0x20 ADD PUSH2 0x1F4 PUSH2 0xFFFF AND DUP2 MSTORE PUSH1 0x20 ADD PUSH2 0x26A PUSH2 0xFFFF AND DUP2 MSTORE PUSH1 0x20 ADD PUSH2 0x312 PUSH2 0xFFFF AND DUP2 MSTORE PUSH1 0x20 ADD PUSH2 0x3E8 PUSH2 0xFFFF AND DUP2 MSTORE POP SWAP1 POP PUSH0 DUP2 DUP5 PUSH1 0xFF AND PUSH1 0x6 DUP2 LT PUSH2 0x3500 JUMPI PUSH2 0x34FF PUSH2 0x3F0E JUMP JUMPDEST JUMPDEST PUSH1 0x20 MUL ADD MLOAD PUSH2 0xFFFF AND SWAP1 POP PUSH2 0x3E8 DUP2 PUSH2 0x3E8 PUSH2 0x351C SWAP2 SWAP1 PUSH2 0x3F68 JUMP JUMPDEST PUSH2 0x3524 PUSH2 0x1BF8 JUMP JUMPDEST PUSH2 0x352E SWAP2 SWAP1 PUSH2 0x4060 JUMP JUMPDEST PUSH2 0x3538 SWAP2 SWAP1 PUSH2 0x3FC8 JUMP JUMPDEST SWAP3 POP POP POP SWAP2 SWAP1 POP JUMP JUMPDEST PUSH0 DUP2 DUP4 PUSH2 0x354E SWAP2 SWAP1 PUSH2 0x3F68 JUMP JUMPDEST SWAP1 POP SWAP3 SWAP2 POP POP JUMP JUMPDEST PUSH1 0x60 DUP1 PUSH0 PUSH1 0x2 PUSH0 SWAP1 SLOAD SWAP1 PUSH2 0x100 EXP SWAP1 DIV PUSH20 0xFFFFFFFFFFFFFFFFFFFFFFFFFFFFFFFFFFFFFFFF AND PUSH20 0xFFFFFFFFFFFFFFFFFFFFFFFFFFFFFFFFFFFFFFFF AND PUSH4 0x5FE8E7CC PUSH1 0x40 MLOAD DUP2 PUSH4 0xFFFFFFFF AND PUSH1 0xE0 SHL DUP2 MSTORE PUSH1 0x4 ADD PUSH0 PUSH1 0x40 MLOAD DUP1 DUP4 SUB DUP2 DUP7 GAS STATICCALL ISZERO DUP1 ISZERO PUSH2 0x35C3 JUMPI RETURNDATASIZE PUSH0 DUP1 RETURNDATACOPY RETURNDATASIZE PUSH0 REVERT JUMPDEST POP POP POP POP PUSH1 0x40 MLOAD RETURNDATASIZE PUSH0 DUP3 RETURNDATACOPY RETURNDATASIZE PUSH1 0x1F NOT PUSH1 0x1F DUP3 ADD AND DUP3 ADD DUP1 PUSH1 0x40 MSTORE POP DUP2 ADD SWAP1 PUSH2 0x35EB SWAP2 SWAP1 PUSH2 0x4746 JUMP JUMPDEST SWAP1 POP PUSH0 DUP2 MLOAD PUSH8 0xFFFFFFFFFFFFFFFF DUP2 GT ISZERO PUSH2 0x3609 JUMPI PUSH2 0x3608 PUSH2 0x45F6 JUMP JUMPDEST JUMPDEST PUSH1 0x40 MLOAD SWAP1 DUP1 DUP3 MSTORE DUP1 PUSH1 0x20 MUL PUSH1 0x20 ADD DUP3 ADD PUSH1 0x40 MSTORE DUP1 ISZERO PUSH2 0x3637 JUMPI DUP2 PUSH1 0x20 ADD PUSH1 0x20 DUP3 MUL DUP1 CALLDATASIZE DUP4 CALLDATACOPY DUP1 DUP3 ADD SWAP2 POP POP SWAP1 POP JUMPDEST POP SWAP1 POP PUSH0 JUMPDEST DUP3 MLOAD DUP2 LT ISZERO PUSH2 0x3724 JUMPI PUSH1 0x2 PUSH0 SWAP1 SLOAD SWAP1 PUSH2 0x100 EXP SWAP1 DIV PUSH20 0xFFFFFFFFFFFFFFFFFFFFFFFFFFFFFFFFFFFFFFFF AND PUSH20 0xFFFFFFFFFFFFFFFFFFFFFFFFFFFFFFFFFFFFFFFF AND PUSH4 0x70A08231 DUP5 DUP4 DUP2 MLOAD DUP2 LT PUSH2 0x3695 JUMPI PUSH2 0x3694 PUSH2 0x3F0E JUMP JUMPDEST JUMPDEST PUSH1 0x20 MUL PUSH1 0x20 ADD ADD MLOAD PUSH1 0x40 MLOAD DUP3 PUSH4 0xFFFFFFFF AND PUSH1 0xE0 SHL DUP2 MSTORE PUSH1 0x4 ADD PUSH2 0x36B9 SWAP2 SWAP1 PUSH2 0x3C48 JUMP JUMPDEST PUSH1 0x20 PUSH1 0x40 MLOAD DUP1 DUP4 SUB DUP2 DUP7 GAS STATICCALL ISZERO DUP1 ISZERO PUSH2 0x36D4 JUMPI RETURNDATASIZE PUSH0 DUP1 RETURNDATACOPY RETURNDATASIZE PUSH0 REVERT JUMPDEST POP POP POP POP PUSH1 0x40 MLOAD RETURNDATASIZE PUSH1 0x1F NOT PUSH1 0x1F DUP3 ADD AND DUP3 ADD DUP1 PUSH1 0x40 MSTORE POP DUP2 ADD SWAP1 PUSH2 0x36F8 SWAP2 SWAP1 PUSH2 0x4343 JUMP JUMPDEST DUP3 DUP3 DUP2 MLOAD DUP2 LT PUSH2 0x370B JUMPI PUSH2 0x370A PUSH2 0x3F0E JUMP JUMPDEST JUMPDEST PUSH1 0x20 MUL PUSH1 0x20 ADD ADD DUP2 DUP2 MSTORE POP POP DUP1 DUP1 PUSH1 0x1 ADD SWAP2 POP POP PUSH2 0x363C JUMP JUMPDEST POP DUP2 DUP2 SWAP4 POP SWAP4 POP POP POP SWAP1 SWAP2 JUMP JUMPDEST PUSH0 PUSH1 0x40 MLOAD SWAP1 POP SWAP1 JUMP JUMPDEST PUSH0 DUP1 REVERT JUMPDEST PUSH0 DUP1 REVERT JUMPDEST PUSH0 PUSH20 0xFFFFFFFFFFFFFFFFFFFFFFFFFFFFFFFFFFFFFFFF DUP3 AND SWAP1 POP SWAP2 SWAP1 POP JUMP JUMPDEST PUSH0 PUSH2 0x376B DUP3 PUSH2 0x3742 JUMP JUMPDEST SWAP1 POP SWAP2 SWAP1 POP JUMP JUMPDEST PUSH2 0x377B DUP2 PUSH2 0x3761 JUMP JUMPDEST DUP2 EQ PUSH2 0x3785 JUMPI PUSH0 DUP1 REVERT JUMPDEST POP JUMP JUMPDEST PUSH0 DUP2 CALLDATALOAD SWAP1 POP PUSH2 0x3796 DUP2 PUSH2 0x3772 JUMP JUMPDEST SWAP3 SWAP2 POP POP JUMP JUMPDEST PUSH0 PUSH1 0x20 DUP3 DUP5 SUB SLT ISZERO PUSH2 0x37B1 JUMPI PUSH2 0x37B0 PUSH2 0x373A JUMP JUMPDEST JUMPDEST PUSH0 PUSH2 0x37BE DUP5 DUP3 DUP6 ADD PUSH2 0x3788 JUMP JUMPDEST SWAP2 POP POP SWAP3 SWAP2 POP POP JUMP JUMPDEST PUSH2 0x37D0 DUP2 PUSH2 0x3761 JUMP JUMPDEST DUP3 MSTORE POP POP JUMP JUMPDEST PUSH0 DUP2 SWAP1 POP SWAP2 SWAP1 POP JUMP JUMPDEST PUSH2 0x37E8 DUP2 PUSH2 0x37D6 JUMP JUMPDEST DUP3 MSTORE POP POP JUMP JUMPDEST PUSH0 PUSH1 0x60 DUP3 ADD SWAP1 POP PUSH2 0x3801 PUSH0 DUP4 ADD DUP7 PUSH2 0x37C7 JUMP JUMPDEST PUSH2 0x380E PUSH1 0x20 DUP4 ADD DUP6 PUSH2 0x37DF JUMP JUMPDEST PUSH2 0x381B PUSH1 0x40 DUP4 ADD DUP5 PUSH2 0x37DF JUMP JUMPDEST SWAP5 SWAP4 POP POP POP POP JUMP JUMPDEST PUSH0 PUSH1 0x20 DUP3 ADD SWAP1 POP PUSH2 0x3836 PUSH0 DUP4 ADD DUP5 PUSH2 0x37DF JUMP JUMPDEST SWAP3 SWAP2 POP POP JUMP JUMPDEST PUSH0 DUP2 MLOAD SWAP1 POP SWAP2 SWAP1 POP JUMP JUMPDEST PUSH0 DUP3 DUP3 MSTORE PUSH1 0x20 DUP3 ADD SWAP1 POP SWAP3 SWAP2 POP POP JUMP JUMPDEST PUSH0 DUP2 SWAP1 POP PUSH1 0x20 DUP3 ADD SWAP1 POP SWAP2 SWAP1 POP JUMP JUMPDEST PUSH2 0x386E DUP2 PUSH2 0x3761 JUMP JUMPDEST DUP3 MSTORE POP POP JUMP JUMPDEST PUSH2 0x387D DUP2 PUSH2 0x37D6 JUMP JUMPDEST DUP3 MSTORE POP POP JUMP JUMPDEST PUSH1 0xE0 DUP3 ADD PUSH0 DUP3 ADD MLOAD PUSH2 0x3897 PUSH0 DUP6 ADD DUP3 PUSH2 0x3865 JUMP JUMPDEST POP PUSH1 0x20 DUP3 ADD MLOAD PUSH2 0x38AA PUSH1 0x20 DUP6 ADD DUP3 PUSH2 0x3874 JUMP JUMPDEST POP PUSH1 0x40 DUP3 ADD MLOAD PUSH2 0x38BD PUSH1 0x40 DUP6 ADD DUP3 PUSH2 0x3874 JUMP JUMPDEST POP PUSH1 0x60 DUP3 ADD MLOAD PUSH2 0x38D0 PUSH1 0x60 DUP6 ADD DUP3 PUSH2 0x3874 JUMP JUMPDEST POP PUSH1 0x80 DUP3 ADD MLOAD PUSH2 0x38E3 PUSH1 0x80 DUP6 ADD DUP3 PUSH2 0x3874 JUMP JUMPDEST POP PUSH1 0xA0 DUP3 ADD MLOAD PUSH2 0x38F6 PUSH1 0xA0 DUP6 ADD DUP3 PUSH2 0x3874 JUMP JUMPDEST POP PUSH1 0xC0 DUP3 ADD MLOAD PUSH2 0x3909 PUSH1 0xC0 DUP6 ADD DUP3 PUSH2 0x3874 JUMP JUMPDEST POP POP POP POP JUMP JUMPDEST PUSH0 PUSH2 0x391A DUP4 DUP4 PUSH2 0x3883 JUMP JUMPDEST PUSH1 0xE0 DUP4 ADD SWAP1 POP SWAP3 SWAP2 POP POP JUMP JUMPDEST PUSH0 PUSH1 0x20 DUP3 ADD SWAP1 POP SWAP2 SWAP1 POP JUMP JUMPDEST PUSH0 PUSH2 0x393C DUP3 PUSH2 0x383C JUMP JUMPDEST PUSH2 0x3946 DUP2 DUP6 PUSH2 0x3846 JUMP JUMPDEST SWAP4 POP PUSH2 0x3951 DUP4 PUSH2 0x3856 JUMP JUMPDEST DUP1 PUSH0 JUMPDEST DUP4 DUP2 LT ISZERO PUSH2 0x3981 JUMPI DUP2 MLOAD PUSH2 0x3968 DUP9 DUP3 PUSH2 0x390F JUMP JUMPDEST SWAP8 POP PUSH2 0x3973 DUP4 PUSH2 0x3926 JUMP JUMPDEST SWAP3 POP POP PUSH1 0x1 DUP2 ADD SWAP1 POP PUSH2 0x3954 JUMP JUMPDEST POP DUP6 SWAP4 POP POP POP POP SWAP3 SWAP2 POP POP JUMP JUMPDEST PUSH0 PUSH1 0x20 DUP3 ADD SWAP1 POP DUP2 DUP2 SUB PUSH0 DUP4 ADD MSTORE PUSH2 0x39A6 DUP2 DUP5 PUSH2 0x3932 JUMP JUMPDEST SWAP1 POP SWAP3 SWAP2 POP POP JUMP JUMPDEST PUSH0 DUP2 MLOAD SWAP1 POP SWAP2 SWAP1 POP JUMP JUMPDEST PUSH0 DUP3 DUP3 MSTORE PUSH1 0x20 DUP3 ADD SWAP1 POP SWAP3 SWAP2 POP POP JUMP JUMPDEST PUSH0 DUP2 SWAP1 POP PUSH1 0x20 DUP3 ADD SWAP1 POP SWAP2 SWAP1 POP JUMP JUMPDEST PUSH0 DUP2 ISZERO ISZERO SWAP1 POP SWAP2 SWAP1 POP JUMP JUMPDEST PUSH2 0x39EB DUP2 PUSH2 0x39D7 JUMP JUMPDEST DUP3 MSTORE POP POP JUMP JUMPDEST PUSH1 0xC0 DUP3 ADD PUSH0 DUP3 ADD MLOAD PUSH2 0x3A05 PUSH0 DUP6 ADD DUP3 PUSH2 0x3865 JUMP JUMPDEST POP PUSH1 0x20 DUP3 ADD MLOAD PUSH2 0x3A18 PUSH1 0x20 DUP6 ADD DUP3 PUSH2 0x3874 JUMP JUMPDEST POP PUSH1 0x40 DUP3 ADD MLOAD PUSH2 0x3A2B PUSH1 0x40 DUP6 ADD DUP3 PUSH2 0x3874 JUMP JUMPDEST POP PUSH1 0x60 DUP3 ADD MLOAD PUSH2 0x3A3E PUSH1 0x60 DUP6 ADD DUP3 PUSH2 0x3874 JUMP JUMPDEST POP PUSH1 0x80 DUP3 ADD MLOAD PUSH2 0x3A51 PUSH1 0x80 DUP6 ADD DUP3 PUSH2 0x3874 JUMP JUMPDEST POP PUSH1 0xA0 DUP3 ADD MLOAD PUSH2 0x3A64 PUSH1 0xA0 DUP6 ADD DUP3 PUSH2 0x39E2 JUMP JUMPDEST POP POP POP POP JUMP JUMPDEST PUSH0 PUSH2 0x3A75 DUP4 DUP4 PUSH2 0x39F1 JUMP JUMPDEST PUSH1 0xC0 DUP4 ADD SWAP1 POP SWAP3 SWAP2 POP POP JUMP JUMPDEST PUSH0 PUSH1 0x20 DUP3 ADD SWAP1 POP SWAP2 SWAP1 POP JUMP JUMPDEST PUSH0 PUSH2 0x3A97 DUP3 PUSH2 0x39AE JUMP JUMPDEST PUSH2 0x3AA1 DUP2 DUP6 PUSH2 0x39B8 JUMP JUMPDEST SWAP4 POP PUSH2 0x3AAC DUP4 PUSH2 0x39C8 JUMP JUMPDEST DUP1 PUSH0 JUMPDEST DUP4 DUP2 LT ISZERO PUSH2 0x3ADC JUMPI DUP2 MLOAD PUSH2 0x3AC3 DUP9 DUP3 PUSH2 0x3A6A JUMP JUMPDEST SWAP8 POP PUSH2 0x3ACE DUP4 PUSH2 0x3A81 JUMP JUMPDEST SWAP3 POP POP PUSH1 0x1 DUP2 ADD SWAP1 POP PUSH2 0x3AAF JUMP JUMPDEST POP DUP6 SWAP4 POP POP POP POP SWAP3 SWAP2 POP POP JUMP JUMPDEST PUSH0 PUSH1 0x20 DUP3 ADD SWAP1 POP DUP2 DUP2 SUB PUSH0 DUP4 ADD MSTORE PUSH2 0x3B01 DUP2 DUP5 PUSH2 0x3A8D JUMP JUMPDEST SWAP1 POP SWAP3 SWAP2 POP POP JUMP JUMPDEST PUSH0 DUP1 PUSH0 DUP1 PUSH0 PUSH1 0xA0 DUP7 DUP9 SUB SLT ISZERO PUSH2 0x3B22 JUMPI PUSH2 0x3B21 PUSH2 0x373A JUMP JUMPDEST JUMPDEST PUSH0 PUSH2 0x3B2F DUP9 DUP3 DUP10 ADD PUSH2 0x3788 JUMP JUMPDEST SWAP6 POP POP PUSH1 0x20 PUSH2 0x3B40 DUP9 DUP3 DUP10 ADD PUSH2 0x3788 JUMP JUMPDEST SWAP5 POP POP PUSH1 0x40 PUSH2 0x3B51 DUP9 DUP3 DUP10 ADD PUSH2 0x3788 JUMP JUMPDEST SWAP4 POP POP PUSH1 0x60 PUSH2 0x3B62 DUP9 DUP3 DUP10 ADD PUSH2 0x3788 JUMP JUMPDEST SWAP3 POP POP PUSH1 0x80 PUSH2 0x3B73 DUP9 DUP3 DUP10 ADD PUSH2 0x3788 JUMP JUMPDEST SWAP2 POP POP SWAP3 SWAP6 POP SWAP3 SWAP6 SWAP1 SWAP4 POP JUMP JUMPDEST PUSH0 DUP2 MLOAD SWAP1 POP SWAP2 SWAP1 POP JUMP JUMPDEST PUSH0 DUP3 DUP3 MSTORE PUSH1 0x20 DUP3 ADD SWAP1 POP SWAP3 SWAP2 POP POP JUMP JUMPDEST PUSH0 DUP2 SWAP1 POP PUSH1 0x20 DUP3 ADD SWAP1 POP SWAP2 SWAP1 POP JUMP JUMPDEST PUSH0 PUSH2 0x3BB4 DUP4 DUP4 PUSH2 0x3865 JUMP JUMPDEST PUSH1 0x20 DUP4 ADD SWAP1 POP SWAP3 SWAP2 POP POP JUMP JUMPDEST PUSH0 PUSH1 0x20 DUP3 ADD SWAP1 POP SWAP2 SWAP1 POP JUMP JUMPDEST PUSH0 PUSH2 0x3BD6 DUP3 PUSH2 0x3B80 JUMP JUMPDEST PUSH2 0x3BE0 DUP2 DUP6 PUSH2 0x3B8A JUMP JUMPDEST SWAP4 POP PUSH2 0x3BEB DUP4 PUSH2 0x3B9A JUMP JUMPDEST DUP1 PUSH0 JUMPDEST DUP4 DUP2 LT ISZERO PUSH2 0x3C1B JUMPI DUP2 MLOAD PUSH2 0x3C02 DUP9 DUP3 PUSH2 0x3BA9 JUMP JUMPDEST SWAP8 POP PUSH2 0x3C0D DUP4 PUSH2 0x3BC0 JUMP JUMPDEST SWAP3 POP POP PUSH1 0x1 DUP2 ADD SWAP1 POP PUSH2 0x3BEE JUMP JUMPDEST POP DUP6 SWAP4 POP POP POP POP SWAP3 SWAP2 POP POP JUMP JUMPDEST PUSH0 PUSH1 0x20 DUP3 ADD SWAP1 POP DUP2 DUP2 SUB PUSH0 DUP4 ADD MSTORE PUSH2 0x3C40 DUP2 DUP5 PUSH2 0x3BCC JUMP JUMPDEST SWAP1 POP SWAP3 SWAP2 POP POP JUMP JUMPDEST PUSH0 PUSH1 0x20 DUP3 ADD SWAP1 POP PUSH2 0x3C5B PUSH0 DUP4 ADD DUP5 PUSH2 0x37C7 JUMP JUMPDEST SWAP3 SWAP2 POP POP JUMP JUMPDEST PUSH0 PUSH1 0xA0 DUP3 ADD SWAP1 POP PUSH2 0x3C74 PUSH0 DUP4 ADD DUP9 PUSH2 0x37C7 JUMP JUMPDEST PUSH2 0x3C81 PUSH1 0x20 DUP4 ADD DUP8 PUSH2 0x37C7 JUMP JUMPDEST PUSH2 0x3C8E PUSH1 0x40 DUP4 ADD DUP7 PUSH2 0x37C7 JUMP JUMPDEST PUSH2 0x3C9B PUSH1 0x60 DUP4 ADD DUP6 PUSH2 0x37C7 JUMP JUMPDEST PUSH2 0x3CA8 PUSH1 0x80 DUP4 ADD DUP5 PUSH2 0x37C7 JUMP JUMPDEST SWAP7 SWAP6 POP POP POP POP POP POP JUMP JUMPDEST PUSH2 0x3CBB DUP2 PUSH2 0x37D6 JUMP JUMPDEST DUP2 EQ PUSH2 0x3CC5 JUMPI PUSH0 DUP1 REVERT JUMPDEST POP JUMP JUMPDEST PUSH0 DUP2 CALLDATALOAD SWAP1 POP PUSH2 0x3CD6 DUP2 PUSH2 0x3CB2 JUMP JUMPDEST SWAP3 SWAP2 POP POP JUMP JUMPDEST PUSH0 PUSH1 0x20 DUP3 DUP5 SUB SLT ISZERO PUSH2 0x3CF1 JUMPI PUSH2 0x3CF0 PUSH2 0x373A JUMP JUMPDEST JUMPDEST PUSH0 PUSH2 0x3CFE DUP5 DUP3 DUP6 ADD PUSH2 0x3CC8 JUMP JUMPDEST SWAP2 POP POP SWAP3 SWAP2 POP POP JUMP JUMPDEST PUSH0 DUP2 MLOAD SWAP1 POP SWAP2 SWAP1 POP JUMP JUMPDEST PUSH0 DUP3 DUP3 MSTORE PUSH1 0x20 DUP3 ADD SWAP1 POP SWAP3 SWAP2 POP POP JUMP JUMPDEST PUSH0 DUP2 SWAP1 POP PUSH1 0x20 DUP3 ADD SWAP1 POP SWAP2 SWAP1 POP JUMP JUMPDEST PUSH2 0x100 DUP3 ADD PUSH0 DUP3 ADD MLOAD PUSH2 0x3D45 PUSH0 DUP6 ADD DUP3 PUSH2 0x3865 JUMP JUMPDEST POP PUSH1 0x20 DUP3 ADD MLOAD PUSH2 0x3D58 PUSH1 0x20 DUP6 ADD DUP3 PUSH2 0x3874 JUMP JUMPDEST POP PUSH1 0x40 DUP3 ADD MLOAD PUSH2 0x3D6B PUSH1 0x40 DUP6 ADD DUP3 PUSH2 0x3874 JUMP JUMPDEST POP PUSH1 0x60 DUP3 ADD MLOAD PUSH2 0x3D7E PUSH1 0x60 DUP6 ADD DUP3 PUSH2 0x3874 JUMP JUMPDEST POP PUSH1 0x80 DUP3 ADD MLOAD PUSH2 0x3D91 PUSH1 0x80 DUP6 ADD DUP3 PUSH2 0x3874 JUMP JUMPDEST POP PUSH1 0xA0 DUP3 ADD MLOAD PUSH2 0x3DA4 PUSH1 0xA0 DUP6 ADD DUP3 PUSH2 0x3874 JUMP JUMPDEST POP PUSH1 0xC0 DUP3 ADD MLOAD PUSH2 0x3DB7 PUSH1 0xC0 DUP6 ADD DUP3 PUSH2 0x3874 JUMP JUMPDEST POP PUSH1 0xE0 DUP3 ADD MLOAD PUSH2 0x3DCA PUSH1 0xE0 DUP6 ADD DUP3 PUSH2 0x39E2 JUMP JUMPDEST POP POP POP POP JUMP JUMPDEST PUSH0 PUSH2 0x3DDB DUP4 DUP4 PUSH2 0x3D30 JUMP JUMPDEST PUSH2 0x100 DUP4 ADD SWAP1 POP SWAP3 SWAP2 POP POP JUMP JUMPDEST PUSH0 PUSH1 0x20 DUP3 ADD SWAP1 POP SWAP2 SWAP1 POP JUMP JUMPDEST PUSH0 PUSH2 0x3DFE DUP3 PUSH2 0x3D07 JUMP JUMPDEST PUSH2 0x3E08 DUP2 DUP6 PUSH2 0x3D11 JUMP JUMPDEST SWAP4 POP PUSH2 0x3E13 DUP4 PUSH2 0x3D21 JUMP JUMPDEST DUP1 PUSH0 JUMPDEST DUP4 DUP2 LT ISZERO PUSH2 0x3E43 JUMPI DUP2 MLOAD PUSH2 0x3E2A DUP9 DUP3 PUSH2 0x3DD0 JUMP JUMPDEST SWAP8 POP PUSH2 0x3E35 DUP4 PUSH2 0x3DE8 JUMP JUMPDEST SWAP3 POP POP PUSH1 0x1 DUP2 ADD SWAP1 POP PUSH2 0x3E16 JUMP JUMPDEST POP DUP6 SWAP4 POP POP POP POP SWAP3 SWAP2 POP POP JUMP JUMPDEST PUSH0 PUSH1 0x20 DUP3 ADD SWAP1 POP DUP2 DUP2 SUB PUSH0 DUP4 ADD MSTORE PUSH2 0x3E68 DUP2 DUP5 PUSH2 0x3DF4 JUMP JUMPDEST SWAP1 POP SWAP3 SWAP2 POP POP JUMP JUMPDEST PUSH0 DUP3 DUP3 MSTORE PUSH1 0x20 DUP3 ADD SWAP1 POP SWAP3 SWAP2 POP POP JUMP JUMPDEST PUSH32 0x4F6E6C79206261636B656E64206F7065726174696F6E2063616E2063616C6C20 PUSH0 DUP3 ADD MSTORE PUSH32 0x746869732066756E6374696F6E2E000000000000000000000000000000000000 PUSH1 0x20 DUP3 ADD MSTORE POP JUMP JUMPDEST PUSH0 PUSH2 0x3EDA PUSH1 0x2E DUP4 PUSH2 0x3E70 JUMP JUMPDEST SWAP2 POP PUSH2 0x3EE5 DUP3 PUSH2 0x3E80 JUMP JUMPDEST PUSH1 0x40 DUP3 ADD SWAP1 POP SWAP2 SWAP1 POP JUMP JUMPDEST PUSH0 PUSH1 0x20 DUP3 ADD SWAP1 POP DUP2 DUP2 SUB PUSH0 DUP4 ADD MSTORE PUSH2 0x3F07 DUP2 PUSH2 0x3ECE JUMP JUMPDEST SWAP1 POP SWAP2 SWAP1 POP JUMP JUMPDEST PUSH32 0x4E487B7100000000000000000000000000000000000000000000000000000000 PUSH0 MSTORE PUSH1 0x32 PUSH1 0x4 MSTORE PUSH1 0x24 PUSH0 REVERT JUMPDEST PUSH32 0x4E487B7100000000000000000000000000000000000000000000000000000000 PUSH0 MSTORE PUSH1 0x11 PUSH1 0x4 MSTORE PUSH1 0x24 PUSH0 REVERT JUMPDEST PUSH0 PUSH2 0x3F72 DUP3 PUSH2 0x37D6 JUMP JUMPDEST SWAP2 POP PUSH2 0x3F7D DUP4 PUSH2 0x37D6 JUMP JUMPDEST SWAP3 POP DUP3 DUP3 ADD SWAP1 POP DUP1 DUP3 GT ISZERO PUSH2 0x3F95 JUMPI PUSH2 0x3F94 PUSH2 0x3F3B JUMP JUMPDEST JUMPDEST SWAP3 SWAP2 POP POP JUMP JUMPDEST PUSH32 0x4E487B7100000000000000000000000000000000000000000000000000000000 PUSH0 MSTORE PUSH1 0x12 PUSH1 0x4 MSTORE PUSH1 0x24 PUSH0 REVERT JUMPDEST PUSH0 PUSH2 0x3FD2 DUP3 PUSH2 0x37D6 JUMP JUMPDEST SWAP2 POP PUSH2 0x3FDD DUP4 PUSH2 0x37D6 JUMP JUMPDEST SWAP3 POP DUP3 PUSH2 0x3FED JUMPI PUSH2 0x3FEC PUSH2 0x3F9B JUMP JUMPDEST JUMPDEST DUP3 DUP3 DIV SWAP1 POP SWAP3 SWAP2 POP POP JUMP JUMPDEST PUSH32 0x496E73756666696369656E7420636F6E74726163742062616C616E6365000000 PUSH0 DUP3 ADD MSTORE POP JUMP JUMPDEST PUSH0 PUSH2 0x402C PUSH1 0x1D DUP4 PUSH2 0x3E70 JUMP JUMPDEST SWAP2 POP PUSH2 0x4037 DUP3 PUSH2 0x3FF8 JUMP JUMPDEST PUSH1 0x20 DUP3 ADD SWAP1 POP SWAP2 SWAP1 POP JUMP JUMPDEST PUSH0 PUSH1 0x20 DUP3 ADD SWAP1 POP DUP2 DUP2 SUB PUSH0 DUP4 ADD MSTORE PUSH2 0x4059 DUP2 PUSH2 0x4020 JUMP JUMPDEST SWAP1 POP SWAP2 SWAP1 POP JUMP JUMPDEST PUSH0 PUSH2 0x406A DUP3 PUSH2 0x37D6 JUMP JUMPDEST SWAP2 POP PUSH2 0x4075 DUP4 PUSH2 0x37D6 JUMP JUMPDEST SWAP3 POP DUP3 DUP3 MUL PUSH2 0x4083 DUP2 PUSH2 0x37D6 JUMP JUMPDEST SWAP2 POP DUP3 DUP3 DIV DUP5 EQ DUP4 ISZERO OR PUSH2 0x409A JUMPI PUSH2 0x4099 PUSH2 0x3F3B JUMP JUMPDEST JUMPDEST POP SWAP3 SWAP2 POP POP JUMP JUMPDEST PUSH0 PUSH2 0x40AB DUP3 PUSH2 0x37D6 JUMP JUMPDEST SWAP2 POP PUSH2 0x40B6 DUP4 PUSH2 0x37D6 JUMP JUMPDEST SWAP3 POP DUP3 DUP3 SUB SWAP1 POP DUP2 DUP2 GT ISZERO PUSH2 0x40CE JUMPI PUSH2 0x40CD PUSH2 0x3F3B JUMP JUMPDEST JUMPDEST SWAP3 SWAP2 POP POP JUMP JUMPDEST PUSH2 0x40DD DUP2 PUSH2 0x39D7 JUMP JUMPDEST DUP3 MSTORE POP POP JUMP JUMPDEST PUSH0 PUSH1 0x80 DUP3 ADD SWAP1 POP PUSH2 0x40F6 PUSH0 DUP4 ADD DUP8 PUSH2 0x37DF JUMP JUMPDEST PUSH2 0x4103 PUSH1 0x20 DUP4 ADD DUP7 PUSH2 0x37DF JUMP JUMPDEST PUSH2 0x4110 PUSH1 0x40 DUP4 ADD DUP6 PUSH2 0x37DF JUMP JUMPDEST PUSH2 0x411D PUSH1 0x60 DUP4 ADD DUP5 PUSH2 0x40D4 JUMP JUMPDEST SWAP6 SWAP5 POP POP POP POP POP JUMP JUMPDEST PUSH0 PUSH1 0x80 DUP3 ADD SWAP1 POP PUSH2 0x4139 PUSH0 DUP4 ADD DUP8 PUSH2 0x37C7 JUMP JUMPDEST PUSH2 0x4146 PUSH1 0x20 DUP4 ADD DUP7 PUSH2 0x37DF JUMP JUMPDEST PUSH2 0x4153 PUSH1 0x40 DUP4 ADD DUP6 PUSH2 0x37C7 JUMP JUMPDEST PUSH2 0x4160 PUSH1 0x60 DUP4 ADD DUP5 PUSH2 0x37DF JUMP JUMPDEST SWAP6 SWAP5 POP POP POP POP POP JUMP JUMPDEST PUSH32 0x4E6F2066756E647320617661696C61626C6520696E20796F7572207265776172 PUSH0 DUP3 ADD MSTORE PUSH32 0x642E000000000000000000000000000000000000000000000000000000000000 PUSH1 0x20 DUP3 ADD MSTORE POP JUMP JUMPDEST PUSH0 PUSH2 0x41C3 PUSH1 0x22 DUP4 PUSH2 0x3E70 JUMP JUMPDEST SWAP2 POP PUSH2 0x41CE DUP3 PUSH2 0x4169 JUMP JUMPDEST PUSH1 0x40 DUP3 ADD SWAP1 POP SWAP2 SWAP1 POP JUMP JUMPDEST PUSH0 PUSH1 0x20 DUP3 ADD SWAP1 POP DUP2 DUP2 SUB PUSH0 DUP4 ADD MSTORE PUSH2 0x41F0 DUP2 PUSH2 0x41B7 JUMP JUMPDEST SWAP1 POP SWAP2 SWAP1 POP JUMP JUMPDEST PUSH0 DUP2 SWAP1 POP SWAP3 SWAP2 POP POP JUMP JUMPDEST POP JUMP JUMPDEST PUSH0 PUSH2 0x420F PUSH0 DUP4 PUSH2 0x41F7 JUMP JUMPDEST SWAP2 POP PUSH2 0x421A DUP3 PUSH2 0x4201 JUMP JUMPDEST PUSH0 DUP3 ADD SWAP1 POP SWAP2 SWAP1 POP JUMP JUMPDEST PUSH0 PUSH2 0x422E DUP3 PUSH2 0x4204 JUMP JUMPDEST SWAP2 POP DUP2 SWAP1 POP SWAP2 SWAP1 POP JUMP JUMPDEST PUSH32 0x55736572207472616E73616374696F6E206661696C65642E0000000000000000 PUSH0 DUP3 ADD MSTORE POP JUMP JUMPDEST PUSH0 PUSH2 0x426C PUSH1 0x18 DUP4 PUSH2 0x3E70 JUMP JUMPDEST SWAP2 POP PUSH2 0x4277 DUP3 PUSH2 0x4238 JUMP JUMPDEST PUSH1 0x20 DUP3 ADD SWAP1 POP SWAP2 SWAP1 POP JUMP JUMPDEST PUSH0 PUSH1 0x20 DUP3 ADD SWAP1 POP DUP2 DUP2 SUB PUSH0 DUP4 ADD MSTORE PUSH2 0x4299 DUP2 PUSH2 0x4260 JUMP JUMPDEST SWAP1 POP SWAP2 SWAP1 POP JUMP JUMPDEST PUSH32 0x41646D696E207472616E73616374696F6E206661696C65642E00000000000000 PUSH0 DUP3 ADD MSTORE POP JUMP JUMPDEST PUSH0 PUSH2 0x42D4 PUSH1 0x19 DUP4 PUSH2 0x3E70 JUMP JUMPDEST SWAP2 POP PUSH2 0x42DF DUP3 PUSH2 0x42A0 JUMP JUMPDEST PUSH1 0x20 DUP3 ADD SWAP1 POP SWAP2 SWAP1 POP JUMP JUMPDEST PUSH0 PUSH1 0x20 DUP3 ADD SWAP1 POP DUP2 DUP2 SUB PUSH0 DUP4 ADD MSTORE PUSH2 0x4301 DUP2 PUSH2 0x42C8 JUMP JUMPDEST SWAP1 POP SWAP2 SWAP1 POP JUMP JUMPDEST PUSH0 PUSH1 0x40 DUP3 ADD SWAP1 POP PUSH2 0x431B PUSH0 DUP4 ADD DUP6 PUSH2 0x37DF JUMP JUMPDEST PUSH2 0x4328 PUSH1 0x20 DUP4 ADD DUP5 PUSH2 0x37DF JUMP JUMPDEST SWAP4 SWAP3 POP POP POP JUMP JUMPDEST PUSH0 DUP2 MLOAD SWAP1 POP PUSH2 0x433D DUP2 PUSH2 0x3CB2 JUMP JUMPDEST SWAP3 SWAP2 POP POP JUMP JUMPDEST PUSH0 PUSH1 0x20 DUP3 DUP5 SUB SLT ISZERO PUSH2 0x4358 JUMPI PUSH2 0x4357 PUSH2 0x373A JUMP JUMPDEST JUMPDEST PUSH0 PUSH2 0x4365 DUP5 DUP3 DUP6 ADD PUSH2 0x432F JUMP JUMPDEST SWAP2 POP POP SWAP3 SWAP2 POP POP JUMP JUMPDEST PUSH32 0x456E74657220612076616C696420616D6F756E74000000000000000000000000 PUSH0 DUP3 ADD MSTORE POP JUMP JUMPDEST PUSH0 PUSH2 0x43A2 PUSH1 0x14 DUP4 PUSH2 0x3E70 JUMP JUMPDEST SWAP2 POP PUSH2 0x43AD DUP3 PUSH2 0x436E JUMP JUMPDEST PUSH1 0x20 DUP3 ADD SWAP1 POP SWAP2 SWAP1 POP JUMP JUMPDEST PUSH0 PUSH1 0x20 DUP3 ADD SWAP1 POP DUP2 DUP2 SUB PUSH0 DUP4 ADD MSTORE PUSH2 0x43CF DUP2 PUSH2 0x4396 JUMP JUMPDEST SWAP1 POP SWAP2 SWAP1 POP JUMP JUMPDEST PUSH0 PUSH2 0x43E0 DUP3 PUSH2 0x37D6 JUMP JUMPDEST SWAP2 POP PUSH32 0xFFFFFFFFFFFFFFFFFFFFFFFFFFFFFFFFFFFFFFFFFFFFFFFFFFFFFFFFFFFFFFFF DUP3 SUB PUSH2 0x4412 JUMPI PUSH2 0x4411 PUSH2 0x3F3B JUMP JUMPDEST JUMPDEST PUSH1 0x1 DUP3 ADD SWAP1 POP SWAP2 SWAP1 POP JUMP JUMPDEST PUSH0 PUSH1 0x80 DUP3 ADD SWAP1 POP PUSH2 0x4430 PUSH0 DUP4 ADD DUP8 PUSH2 0x37DF JUMP JUMPDEST PUSH2 0x443D PUSH1 0x20 DUP4 ADD DUP7 PUSH2 0x40D4 JUMP JUMPDEST PUSH2 0x444A PUSH1 0x40 DUP4 ADD DUP6 PUSH2 0x37DF JUMP JUMPDEST PUSH2 0x4457 PUSH1 0x60 DUP4 ADD DUP5 PUSH2 0x37DF JUMP JUMPDEST SWAP6 SWAP5 POP POP POP POP POP JUMP JUMPDEST PUSH0 PUSH1 0xE0 DUP3 ADD SWAP1 POP PUSH2 0x4473 PUSH0 DUP4 ADD DUP11 PUSH2 0x37DF JUMP JUMPDEST PUSH2 0x4480 PUSH1 0x20 DUP4 ADD DUP10 PUSH2 0x37DF JUMP JUMPDEST PUSH2 0x448D PUSH1 0x40 DUP4 ADD DUP9 PUSH2 0x37DF JUMP JUMPDEST PUSH2 0x449A PUSH1 0x60 DUP4 ADD DUP8 PUSH2 0x37DF JUMP JUMPDEST PUSH2 0x44A7 PUSH1 0x80 DUP4 ADD DUP7 PUSH2 0x37DF JUMP JUMPDEST PUSH2 0x44B4 PUSH1 0xA0 DUP4 ADD DUP6 PUSH2 0x37DF JUMP JUMPDEST PUSH2 0x44C1 PUSH1 0xC0 DUP4 ADD DUP5 PUSH2 0x37DF JUMP JUMPDEST SWAP9 SWAP8 POP POP POP POP POP POP POP POP JUMP JUMPDEST PUSH0 PUSH1 0xA0 DUP3 ADD SWAP1 POP PUSH2 0x44E0 PUSH0 DUP4 ADD DUP9 PUSH2 0x37DF JUMP JUMPDEST PUSH2 0x44ED PUSH1 0x20 DUP4 ADD DUP8 PUSH2 0x37DF JUMP JUMPDEST PUSH2 0x44FA PUSH1 0x40 DUP4 ADD DUP7 PUSH2 0x37DF JUMP JUMPDEST PUSH2 0x4507 PUSH1 0x60 DUP4 ADD DUP6 PUSH2 0x37DF JUMP JUMPDEST PUSH2 0x4514 PUSH1 0x80 DUP4 ADD DUP5 PUSH2 0x37DF JUMP JUMPDEST SWAP7 SWAP6 POP POP POP POP POP POP JUMP JUMPDEST PUSH0 PUSH1 0x20 DUP3 ADD SWAP1 POP PUSH2 0x4531 PUSH0 DUP4 ADD DUP5 PUSH2 0x40D4 JUMP JUMPDEST SWAP3 SWAP2 POP POP JUMP JUMPDEST PUSH0 PUSH1 0x80 DUP3 ADD SWAP1 POP PUSH2 0x454A PUSH0 DUP4 ADD DUP8 PUSH2 0x37DF JUMP JUMPDEST PUSH2 0x4557 PUSH1 0x20 DUP4 ADD DUP7 PUSH2 0x37DF JUMP JUMPDEST PUSH2 0x4564 PUSH1 0x40 DUP4 ADD DUP6 PUSH2 0x37DF JUMP JUMPDEST PUSH2 0x4571 PUSH1 0x60 DUP4 ADD DUP5 PUSH2 0x37DF JUMP JUMPDEST SWAP6 SWAP5 POP POP POP POP POP JUMP JUMPDEST PUSH32 0x496E76616C6964204669626F6E6163636920696E646578000000000000000000 PUSH0 DUP3 ADD MSTORE POP JUMP JUMPDEST PUSH0 PUSH2 0x45AE PUSH1 0x17 DUP4 PUSH2 0x3E70 JUMP JUMPDEST SWAP2 POP PUSH2 0x45B9 DUP3 PUSH2 0x457A JUMP JUMPDEST PUSH1 0x20 DUP3 ADD SWAP1 POP SWAP2 SWAP1 POP JUMP JUMPDEST PUSH0 PUSH1 0x20 DUP3 ADD SWAP1 POP DUP2 DUP2 SUB PUSH0 DUP4 ADD MSTORE PUSH2 0x45DB DUP2 PUSH2 0x45A2 JUMP JUMPDEST SWAP1 POP SWAP2 SWAP1 POP JUMP JUMPDEST PUSH0 DUP1 REVERT JUMPDEST PUSH0 PUSH1 0x1F NOT PUSH1 0x1F DUP4 ADD AND SWAP1 POP SWAP2 SWAP1 POP JUMP JUMPDEST PUSH32 0x4E487B7100000000000000000000000000000000000000000000000000000000 PUSH0 MSTORE PUSH1 0x41 PUSH1 0x4 MSTORE PUSH1 0x24 PUSH0 REVERT JUMPDEST PUSH2 0x462C DUP3 PUSH2 0x45E6 JUMP JUMPDEST DUP2 ADD DUP2 DUP2 LT PUSH8 0xFFFFFFFFFFFFFFFF DUP3 GT OR ISZERO PUSH2 0x464B JUMPI PUSH2 0x464A PUSH2 0x45F6 JUMP JUMPDEST JUMPDEST DUP1 PUSH1 0x40 MSTORE POP POP POP JUMP JUMPDEST PUSH0 PUSH2 0x465D PUSH2 0x3731 JUMP JUMPDEST SWAP1 POP PUSH2 0x4669 DUP3 DUP3 PUSH2 0x4623 JUMP JUMPDEST SWAP2 SWAP1 POP JUMP JUMPDEST PUSH0 PUSH8 0xFFFFFFFFFFFFFFFF DUP3 GT ISZERO PUSH2 0x4688 JUMPI PUSH2 0x4687 PUSH2 0x45F6 JUMP JUMPDEST JUMPDEST PUSH1 0x20 DUP3 MUL SWAP1 POP PUSH1 0x20 DUP2 ADD SWAP1 POP SWAP2 SWAP1 POP JUMP JUMPDEST PUSH0 DUP1 REVERT JUMPDEST PUSH0 DUP2 MLOAD SWAP1 POP PUSH2 0x46AB DUP2 PUSH2 0x3772 JUMP JUMPDEST SWAP3 SWAP2 POP POP JUMP JUMPDEST PUSH0 PUSH2 0x46C3 PUSH2 0x46BE DUP5 PUSH2 0x466E JUMP JUMPDEST PUSH2 0x4654 JUMP JUMPDEST SWAP1 POP DUP1 DUP4 DUP3 MSTORE PUSH1 0x20 DUP3 ADD SWAP1 POP PUSH1 0x20 DUP5 MUL DUP4 ADD DUP6 DUP2 GT ISZERO PUSH2 0x46E6 JUMPI PUSH2 0x46E5 PUSH2 0x4699 JUMP JUMPDEST JUMPDEST DUP4 JUMPDEST DUP2 DUP2 LT ISZERO PUSH2 0x470F JUMPI DUP1 PUSH2 0x46FB DUP9 DUP3 PUSH2 0x469D JUMP JUMPDEST DUP5 MSTORE PUSH1 0x20 DUP5 ADD SWAP4 POP POP PUSH1 0x20 DUP2 ADD SWAP1 POP PUSH2 0x46E8 JUMP JUMPDEST POP POP POP SWAP4 SWAP3 POP POP POP JUMP JUMPDEST PUSH0 DUP3 PUSH1 0x1F DUP4 ADD SLT PUSH2 0x472D JUMPI PUSH2 0x472C PUSH2 0x45E2 JUMP JUMPDEST JUMPDEST DUP2 MLOAD PUSH2 0x473D DUP5 DUP3 PUSH1 0x20 DUP7 ADD PUSH2 0x46B1 JUMP JUMPDEST SWAP2 POP POP SWAP3 SWAP2 POP POP JUMP JUMPDEST PUSH0 PUSH1 0x20 DUP3 DUP5 SUB SLT ISZERO PUSH2 0x475B JUMPI PUSH2 0x475A PUSH2 0x373A JUMP JUMPDEST JUMPDEST PUSH0 DUP3 ADD MLOAD PUSH8 0xFFFFFFFFFFFFFFFF DUP2 GT ISZERO PUSH2 0x4778 JUMPI PUSH2 0x4777 PUSH2 0x373E JUMP JUMPDEST JUMPDEST PUSH2 0x4784 DUP5 DUP3 DUP6 ADD PUSH2 0x4719 JUMP JUMPDEST SWAP2 POP POP SWAP3 SWAP2 POP POP JUMP INVALID LOG2 PUSH5 0x6970667358 0x22 SLT KECCAK256 CHAINID EQ DUP2 0x4E SWAP10 RETURNDATACOPY EXTCODEHASH JUMPDEST 0x2B 0xD4 PUSH30 0xAF219083026020655532AAD5E4BCC10223A6EFD28C64736F6C6343000818 STOP CALLER "
		},
		"gasEstimates": {
			"creation": {
				"codeDepositCost": "3674200",
				"executionCost": "infinite",
				"totalCost": "infinite"
			},
			"external": {
				"Deployed_Time()": "2514",
				"FIXED_POINT()": "371",
				"ID()": "2470",
				"NumberOfUser()": "2494",
				"PSDSharePerUser(address)": "2870",
				"PSDdistributionPercentageMapping(address)": "2869",
				"PSTSharePerUser(address)": "2848",
				"PSTdistributionPercentageMapping(address)": "2892",
				"claimAllReward()": "infinite",
				"claimEscrowByBackend()": "infinite",
				"claimTargetsByBackend()": "infinite",
				"deposit()": "infinite",
				"getActualTotalPsdShare()": "2499",
				"getActualTotalPstShare()": "2522",
				"getAddresses()": "infinite",
				"getContractBalance()": "423",
				"getDeposited(uint256)": "infinite",
				"getDepositors()": "infinite",
				"getEscrowDetails(address)": "infinite",
				"getMaxTargetLength()": "2571",
				"getPSDClaimed(address)": "2897",
				"getPSTClaimed(address)": "2940",
				"getParityAmountDistributed(address)": "2874",
				"getParityShareTokensDetail(address)": "infinite",
				"getProtocolFee(address)": "infinite",
				"getTargets(address)": "infinite",
				"getTotalPsdShare()": "2477",
				"getTotalPstShare()": "2544",
				"owner()": "2627",
				"percentProfit()": "2537",
				"price()": "infinite",
				"renounceOwnership()": "infinite",
				"setAddresses(address,address,address,address,address)": "infinite",
				"transferOwnership(address)": "infinite",
				"userBucketBalances(address)": "2935",
				"withdrawStuckETH()": "infinite"
			},
			"internal": {
				"InitialiseEscrowData(address,uint256,uint256,uint256,uint256)": "infinite",
				"StateHolders()": "infinite",
				"calculateIPT(uint8)": "infinite",
				"calculationFunction(uint256)": "infinite",
				"initializeTargetsForDeposit(address,uint256)": "infinite",
				"isDepositor(address)": "infinite",
				"updateParityAmount(uint256)": "infinite",
				"updateProtocolFee(uint256)": "infinite"
			}
		},
		"methodIdentifiers": {
			"Deployed_Time()": "9848c729",
			"FIXED_POINT()": "7a458d7a",
			"ID()": "b3cea217",
			"NumberOfUser()": "0b0885ad",
			"PSDSharePerUser(address)": "316050d0",
			"PSDdistributionPercentageMapping(address)": "c349c796",
			"PSTSharePerUser(address)": "56797cd1",
			"PSTdistributionPercentageMapping(address)": "5ef371e3",
			"claimAllReward()": "8a623d86",
			"claimEscrowByBackend()": "1a0d58ed",
			"claimTargetsByBackend()": "54366808",
			"deposit()": "d0e30db0",
			"getActualTotalPsdShare()": "97273000",
			"getActualTotalPstShare()": "4f802dfd",
			"getAddresses()": "a39fac12",
			"getContractBalance()": "6f9fb98a",
			"getDeposited(uint256)": "f29804b0",
			"getDepositors()": "6c7b7f2e",
			"getEscrowDetails(address)": "29415a59",
			"getMaxTargetLength()": "df75c7cf",
			"getPSDClaimed(address)": "82c23f7c",
			"getPSTClaimed(address)": "d4f13def",
			"getParityAmountDistributed(address)": "6c24fa69",
			"getParityShareTokensDetail(address)": "e242b394",
			"getProtocolFee(address)": "0a992e0c",
			"getTargets(address)": "2972dc79",
			"getTotalPsdShare()": "921c9964",
			"getTotalPstShare()": "512914f7",
			"owner()": "8da5cb5b",
			"percentProfit()": "68ef5fa3",
			"price()": "a035b1fe",
			"renounceOwnership()": "715018a6",
			"setAddresses(address,address,address,address,address)": "5dd68acd",
			"transferOwnership(address)": "f2fde38b",
			"userBucketBalances(address)": "77ca2548",
			"withdrawStuckETH()": "f5648a4f"
		}
	},
	"abi": [
		{
			"inputs": [],
			"stateMutability": "nonpayable",
			"type": "constructor"
		},
		{
			"inputs": [
				{
					"internalType": "address",
					"name": "owner",
					"type": "address"
				}
			],
			"name": "OwnableInvalidOwner",
			"type": "error"
		},
		{
			"inputs": [
				{
					"internalType": "address",
					"name": "account",
					"type": "address"
				}
			],
			"name": "OwnableUnauthorizedAccount",
			"type": "error"
		},
		{
			"anonymous": false,
			"inputs": [
				{
					"indexed": false,
					"internalType": "uint256",
					"name": "ratioPriceTarget",
					"type": "uint256"
				},
				{
					"indexed": false,
					"internalType": "uint256",
					"name": "tokenParity",
					"type": "uint256"
				},
				{
					"indexed": false,
					"internalType": "uint256",
					"name": "escrowVault",
					"type": "uint256"
				},
				{
					"indexed": false,
					"internalType": "uint256",
					"name": "ProtocolFees",
					"type": "uint256"
				}
			],
			"name": "Calculate",
			"type": "event"
		},
		{
			"anonymous": false,
			"inputs": [
				{
					"indexed": true,
					"internalType": "address",
					"name": "User",
					"type": "address"
				},
				{
					"indexed": false,
					"internalType": "uint256",
					"name": "UserBucketTransfer",
					"type": "uint256"
				},
				{
					"indexed": false,
					"internalType": "uint256",
					"name": "AdminShare",
					"type": "uint256"
				}
			],
			"name": "ClaimAllRewardEvent",
			"type": "event"
		},
		{
			"anonymous": false,
			"inputs": [
				{
					"indexed": false,
					"internalType": "address",
					"name": "depositAddress",
					"type": "address"
				},
				{
					"indexed": false,
					"internalType": "uint256",
					"name": "targetIndex",
					"type": "uint256"
				},
				{
					"indexed": false,
					"internalType": "address",
					"name": "userClaimAddress",
					"type": "address"
				},
				{
					"indexed": false,
					"internalType": "uint256",
					"name": "targetAmount",
					"type": "uint256"
				}
			],
			"name": "ClaimTarget",
			"type": "event"
		},
		{
			"anonymous": false,
			"inputs": [
				{
					"indexed": false,
					"internalType": "uint256",
					"name": "ID",
					"type": "uint256"
				},
				{
					"indexed": false,
					"internalType": "bool",
					"name": "txStatus",
					"type": "bool"
				},
				{
					"indexed": true,
					"internalType": "address",
					"name": "depositAddress",
					"type": "address"
				},
				{
					"indexed": false,
					"internalType": "uint256",
					"name": "depositAmount",
					"type": "uint256"
				},
				{
					"indexed": false,
					"internalType": "uint256",
					"name": "userUsdValue",
					"type": "uint256"
				}
			],
			"name": "DepositEvent",
			"type": "event"
		},
		{
			"anonymous": false,
			"inputs": [
				{
					"indexed": true,
					"internalType": "address",
					"name": "previousOwner",
					"type": "address"
				},
				{
					"indexed": true,
					"internalType": "address",
					"name": "newOwner",
					"type": "address"
				}
			],
			"name": "OwnershipTransferred",
			"type": "event"
		},
		{
			"anonymous": false,
			"inputs": [
				{
					"indexed": false,
					"internalType": "uint256",
					"name": "parityAmount",
					"type": "uint256"
				},
				{
					"indexed": false,
					"internalType": "uint256",
					"name": "totalPSTshare",
					"type": "uint256"
				},
				{
					"indexed": false,
					"internalType": "uint256",
					"name": "distributeParityFeePercentage",
					"type": "uint256"
				},
				{
					"indexed": false,
					"internalType": "uint256",
					"name": "ParityAmountPerUser",
					"type": "uint256"
				},
				{
					"indexed": false,
					"internalType": "uint256",
					"name": "tokenParity",
					"type": "uint256"
				}
			],
			"name": "Parity",
			"type": "event"
		},
		{
			"anonymous": false,
			"inputs": [
				{
					"indexed": false,
					"internalType": "address",
					"name": "User",
					"type": "address"
				},
				{
					"indexed": false,
					"internalType": "uint256",
					"name": "AmountClaimed",
					"type": "uint256"
				}
			],
			"name": "ParityClaimed",
			"type": "event"
		},
		{
			"anonymous": false,
			"inputs": [
				{
					"indexed": false,
					"internalType": "uint256",
					"name": "DepositAmount",
					"type": "uint256"
				},
				{
					"indexed": false,
					"internalType": "uint256",
					"name": "ratioPriceTarget",
					"type": "uint256"
				},
				{
					"indexed": false,
					"internalType": "uint256",
					"name": "escrowVault",
					"type": "uint256"
				},
				{
					"indexed": false,
					"internalType": "uint256",
					"name": "tokenParity",
					"type": "uint256"
				},
				{
					"indexed": false,
					"internalType": "uint256",
					"name": "ProtocolFees",
					"type": "uint256"
				},
				{
					"indexed": false,
					"internalType": "uint256",
					"name": "DevlopmentFee",
					"type": "uint256"
				},
				{
					"indexed": false,
					"internalType": "uint256",
					"name": "EscrowfundInUsdValue",
					"type": "uint256"
				}
			],
			"name": "ParityShareCalculation",
			"type": "event"
		},
		{
			"anonymous": false,
			"inputs": [
				{
					"indexed": false,
					"internalType": "uint256",
					"name": "protocolAmount",
					"type": "uint256"
				},
				{
					"indexed": false,
					"internalType": "uint256",
					"name": "totalPSDshare",
					"type": "uint256"
				},
				{
					"indexed": false,
					"internalType": "uint256",
					"name": "distributeProtocolFeePercentage",
					"type": "uint256"
				},
				{
					"indexed": false,
					"internalType": "uint256",
					"name": "protocolAmountThisUser",
					"type": "uint256"
				}
			],
			"name": "Protocol",
			"type": "event"
		},
		{
			"anonymous": false,
			"inputs": [
				{
					"indexed": false,
					"internalType": "address",
					"name": "User",
					"type": "address"
				},
				{
					"indexed": false,
					"internalType": "uint256",
					"name": "AmountClaimed",
					"type": "uint256"
				}
			],
			"name": "ProtocolClaimed",
			"type": "event"
		},
		{
			"anonymous": false,
			"inputs": [
				{
					"indexed": false,
					"internalType": "address",
					"name": "User",
					"type": "address"
				},
				{
					"indexed": false,
					"internalType": "uint256",
					"name": "ReleaseAmount",
					"type": "uint256"
				},
				{
					"indexed": false,
					"internalType": "uint256",
					"name": "CurrentPrice",
					"type": "uint256"
				},
				{
					"indexed": false,
					"internalType": "uint256",
					"name": "UsdValueOfRelesableAmount",
					"type": "uint256"
				}
			],
			"name": "ReleaseEscrow",
			"type": "event"
		},
		{
			"anonymous": false,
			"inputs": [
				{
					"indexed": false,
					"internalType": "uint256",
					"name": "ContractBalance",
					"type": "uint256"
				},
				{
					"indexed": false,
					"internalType": "uint256",
					"name": "TotalAmountTransfer",
					"type": "uint256"
				}
			],
			"name": "ReleaseEscrowTotalAmount",
			"type": "event"
		},
		{
			"anonymous": false,
			"inputs": [
				{
					"indexed": false,
					"internalType": "uint256",
					"name": "TotalDistributedAmount",
					"type": "uint256"
				}
			],
			"name": "TotalTargetDistributed",
			"type": "event"
		},
		{
			"anonymous": false,
			"inputs": [
				{
					"indexed": false,
					"internalType": "bool",
					"name": "Status",
					"type": "bool"
				}
			],
			"name": "TransactionConfirmation",
			"type": "event"
		},
		{
			"anonymous": false,
			"inputs": [
				{
					"indexed": false,
					"internalType": "uint256",
					"name": "DepositId",
					"type": "uint256"
				},
				{
					"indexed": false,
					"internalType": "address",
					"name": "User",
					"type": "address"
				},
				{
					"indexed": false,
					"internalType": "uint256",
					"name": "WithDrawelAmount",
					"type": "uint256"
				},
				{
					"indexed": false,
					"internalType": "uint256",
					"name": "CurrentTime",
					"type": "uint256"
				},
				{
					"indexed": false,
					"internalType": "uint256",
					"name": "AdminReward",
					"type": "uint256"
				}
			],
			"name": "WithdrawalEvent",
			"type": "event"
		},
		{
			"anonymous": false,
			"inputs": [
				{
					"indexed": false,
					"internalType": "uint256",
					"name": "halfTokens",
					"type": "uint256"
				},
				{
					"indexed": false,
					"internalType": "uint256",
					"name": "usdValueOfHalfTokens",
					"type": "uint256"
				},
				{
					"indexed": false,
					"internalType": "uint256",
					"name": "currentPrice",
					"type": "uint256"
				},
				{
					"indexed": false,
					"internalType": "bool",
					"name": "priceDoubled",
					"type": "bool"
				}
			],
			"name": "claimOwnEscrowEvent",
			"type": "event"
		},
		{
			"inputs": [],
			"name": "Deployed_Time",
			"outputs": [
				{
					"internalType": "uint256",
					"name": "",
					"type": "uint256"
				}
			],
			"stateMutability": "view",
			"type": "function"
		},
		{
			"inputs": [],
			"name": "FIXED_POINT",
			"outputs": [
				{
					"internalType": "uint256",
					"name": "",
					"type": "uint256"
				}
			],
			"stateMutability": "view",
			"type": "function"
		},
		{
			"inputs": [],
			"name": "ID",
			"outputs": [
				{
					"internalType": "uint256",
					"name": "",
					"type": "uint256"
				}
			],
			"stateMutability": "view",
			"type": "function"
		},
		{
			"inputs": [],
			"name": "NumberOfUser",
			"outputs": [
				{
					"internalType": "uint256",
					"name": "",
					"type": "uint256"
				}
			],
			"stateMutability": "view",
			"type": "function"
		},
		{
			"inputs": [
				{
					"internalType": "address",
					"name": "",
					"type": "address"
				}
			],
			"name": "PSDSharePerUser",
			"outputs": [
				{
					"internalType": "uint256",
					"name": "",
					"type": "uint256"
				}
			],
			"stateMutability": "view",
			"type": "function"
		},
		{
			"inputs": [
				{
					"internalType": "address",
					"name": "",
					"type": "address"
				}
			],
			"name": "PSDdistributionPercentageMapping",
			"outputs": [
				{
					"internalType": "uint256",
					"name": "",
					"type": "uint256"
				}
			],
			"stateMutability": "view",
			"type": "function"
		},
		{
			"inputs": [
				{
					"internalType": "address",
					"name": "",
					"type": "address"
				}
			],
			"name": "PSTSharePerUser",
			"outputs": [
				{
					"internalType": "uint256",
					"name": "",
					"type": "uint256"
				}
			],
			"stateMutability": "view",
			"type": "function"
		},
		{
			"inputs": [
				{
					"internalType": "address",
					"name": "",
					"type": "address"
				}
			],
			"name": "PSTdistributionPercentageMapping",
			"outputs": [
				{
					"internalType": "uint256",
					"name": "",
					"type": "uint256"
				}
			],
			"stateMutability": "view",
			"type": "function"
		},
		{
			"inputs": [],
			"name": "claimAllReward",
			"outputs": [],
			"stateMutability": "nonpayable",
			"type": "function"
		},
		{
			"inputs": [],
			"name": "claimEscrowByBackend",
			"outputs": [],
			"stateMutability": "nonpayable",
			"type": "function"
		},
		{
			"inputs": [],
			"name": "claimTargetsByBackend",
			"outputs": [],
			"stateMutability": "nonpayable",
			"type": "function"
		},
		{
			"inputs": [],
			"name": "deposit",
			"outputs": [],
			"stateMutability": "payable",
			"type": "function"
		},
		{
			"inputs": [],
			"name": "getActualTotalPsdShare",
			"outputs": [
				{
					"internalType": "uint256",
					"name": "_totalPsdShare",
					"type": "uint256"
				}
			],
			"stateMutability": "view",
			"type": "function"
		},
		{
			"inputs": [],
			"name": "getActualTotalPstShare",
			"outputs": [
				{
					"internalType": "uint256",
					"name": "_totalPstShare",
					"type": "uint256"
				}
			],
			"stateMutability": "view",
			"type": "function"
		},
		{
			"inputs": [],
			"name": "getAddresses",
			"outputs": [
				{
					"internalType": "address",
					"name": "AdminAddr",
					"type": "address"
				},
				{
					"internalType": "address",
					"name": "BackendAddr",
					"type": "address"
				},
				{
					"internalType": "address",
					"name": "StateTokenAddr",
					"type": "address"
				},
				{
					"internalType": "address",
					"name": "PriceFeeAddr",
					"type": "address"
				},
				{
					"internalType": "address",
					"name": "oracleWallet",
					"type": "address"
				}
			],
			"stateMutability": "view",
			"type": "function"
		},
		{
			"inputs": [],
			"name": "getContractBalance",
			"outputs": [
				{
					"internalType": "uint256",
					"name": "",
					"type": "uint256"
				}
			],
			"stateMutability": "view",
			"type": "function"
		},
		{
			"inputs": [
				{
					"internalType": "uint256",
					"name": "_ID",
					"type": "uint256"
				}
			],
			"name": "getDeposited",
			"outputs": [
				{
					"components": [
						{
							"internalType": "address",
							"name": "depositAddress",
							"type": "address"
						},
						{
							"internalType": "uint256",
							"name": "depositAmount",
							"type": "uint256"
						},
						{
							"internalType": "uint256",
							"name": "UserUsdValue",
							"type": "uint256"
						},
						{
							"internalType": "uint256",
							"name": "ratioPriceTarget",
							"type": "uint256"
						},
						{
							"internalType": "uint256",
							"name": "tokenParity",
							"type": "uint256"
						},
						{
							"internalType": "uint256",
							"name": "escrowVault",
							"type": "uint256"
						},
						{
							"internalType": "uint256",
							"name": "ProtocolFees",
							"type": "uint256"
						},
						{
							"internalType": "bool",
							"name": "withdrawn",
							"type": "bool"
						}
					],
					"internalType": "struct System_State_Protocol.Deposit[]",
					"name": "",
					"type": "tuple[]"
				}
			],
			"stateMutability": "view",
			"type": "function"
		},
		{
			"inputs": [],
			"name": "getDepositors",
			"outputs": [
				{
					"internalType": "address[]",
					"name": "",
					"type": "address[]"
				}
			],
			"stateMutability": "view",
			"type": "function"
		},
		{
			"inputs": [
				{
					"internalType": "address",
					"name": "_depositAddress",
					"type": "address"
				}
			],
			"name": "getEscrowDetails",
			"outputs": [
				{
					"components": [
						{
							"internalType": "address",
							"name": "UserAddress",
							"type": "address"
						},
						{
							"internalType": "uint256",
							"name": "totalFunds",
							"type": "uint256"
						},
						{
							"internalType": "uint256",
							"name": "EscrowfundInUsdValue",
							"type": "uint256"
						},
						{
							"internalType": "uint256",
							"name": "currentPrice",
							"type": "uint256"
						},
						{
							"internalType": "uint256",
							"name": "priceTarget",
							"type": "uint256"
						},
						{
							"internalType": "uint256",
							"name": "NextPercentProfit",
							"type": "uint256"
						},
						{
							"internalType": "uint256",
							"name": "Time",
							"type": "uint256"
						}
					],
					"internalType": "struct System_State_Protocol.Escrow[]",
					"name": "",
					"type": "tuple[]"
				}
			],
			"stateMutability": "view",
			"type": "function"
		},
		{
			"inputs": [],
			"name": "getMaxTargetLength",
			"outputs": [
				{
					"internalType": "uint256",
					"name": "_maxLength",
					"type": "uint256"
				}
			],
			"stateMutability": "view",
			"type": "function"
		},
		{
			"inputs": [
				{
					"internalType": "address",
					"name": "_user",
					"type": "address"
				}
			],
			"name": "getPSDClaimed",
			"outputs": [
				{
					"internalType": "uint256",
					"name": "",
					"type": "uint256"
				}
			],
			"stateMutability": "view",
			"type": "function"
		},
		{
			"inputs": [
				{
					"internalType": "address",
					"name": "_user",
					"type": "address"
				}
			],
			"name": "getPSTClaimed",
			"outputs": [
				{
					"internalType": "uint256",
					"name": "",
					"type": "uint256"
				}
			],
			"stateMutability": "view",
			"type": "function"
		},
		{
			"inputs": [
				{
					"internalType": "address",
					"name": "_user",
					"type": "address"
				}
			],
			"name": "getParityAmountDistributed",
			"outputs": [
				{
					"internalType": "uint256",
					"name": "",
					"type": "uint256"
				}
			],
			"stateMutability": "view",
			"type": "function"
		},
		{
			"inputs": [
				{
					"internalType": "address",
					"name": "_user",
					"type": "address"
				}
			],
			"name": "getParityShareTokensDetail",
			"outputs": [
				{
					"internalType": "address",
					"name": "user",
					"type": "address"
				},
				{
					"internalType": "uint256",
					"name": "parityAmount",
					"type": "uint256"
				},
				{
					"internalType": "uint256",
					"name": "claimableAmount",
					"type": "uint256"
				}
			],
			"stateMutability": "view",
			"type": "function"
		},
		{
			"inputs": [
				{
					"internalType": "address",
					"name": "_user",
					"type": "address"
				}
			],
			"name": "getProtocolFee",
			"outputs": [
				{
					"internalType": "address",
					"name": "user",
					"type": "address"
				},
				{
					"internalType": "uint256",
					"name": "protocolAmount",
					"type": "uint256"
				},
				{
					"internalType": "uint256",
					"name": "holdTokens",
					"type": "uint256"
				}
			],
			"stateMutability": "view",
			"type": "function"
		},
		{
			"inputs": [
				{
					"internalType": "address",
					"name": "_depositAddress",
					"type": "address"
				}
			],
			"name": "getTargets",
			"outputs": [
				{
					"components": [
						{
							"internalType": "address",
							"name": "UserAddress",
							"type": "address"
						},
						{
							"internalType": "uint256",
							"name": "TargetAmount",
							"type": "uint256"
						},
						{
							"internalType": "uint256",
							"name": "ratio",
							"type": "uint256"
						},
						{
							"internalType": "uint256",
							"name": "ratioPriceTarget",
							"type": "uint256"
						},
						{
							"internalType": "uint256",
							"name": "Time",
							"type": "uint256"
						},
						{
							"internalType": "bool",
							"name": "isClosed",
							"type": "bool"
						}
					],
					"internalType": "struct System_State_Protocol.Target[]",
					"name": "",
					"type": "tuple[]"
				}
			],
			"stateMutability": "view",
			"type": "function"
		},
		{
			"inputs": [],
			"name": "getTotalPsdShare",
			"outputs": [
				{
					"internalType": "uint256",
					"name": "_totalPsdShare",
					"type": "uint256"
				}
			],
			"stateMutability": "view",
			"type": "function"
		},
		{
			"inputs": [],
			"name": "getTotalPstShare",
			"outputs": [
				{
					"internalType": "uint256",
					"name": "_totalPstShare",
					"type": "uint256"
				}
			],
			"stateMutability": "view",
			"type": "function"
		},
		{
			"inputs": [],
			"name": "owner",
			"outputs": [
				{
					"internalType": "address",
					"name": "",
					"type": "address"
				}
			],
			"stateMutability": "view",
			"type": "function"
		},
		{
			"inputs": [],
			"name": "percentProfit",
			"outputs": [
				{
					"internalType": "uint256",
					"name": "",
					"type": "uint256"
				}
			],
			"stateMutability": "view",
			"type": "function"
		},
		{
			"inputs": [],
			"name": "price",
			"outputs": [
				{
					"internalType": "uint256",
					"name": "",
					"type": "uint256"
				}
			],
			"stateMutability": "view",
			"type": "function"
		},
		{
			"inputs": [],
			"name": "renounceOwnership",
			"outputs": [],
			"stateMutability": "nonpayable",
			"type": "function"
		},
		{
			"inputs": [
				{
					"internalType": "address",
					"name": "_oracleAddress",
					"type": "address"
				},
				{
					"internalType": "address",
					"name": "_adminAddress",
					"type": "address"
				},
				{
					"internalType": "address",
					"name": "_backendOperationAddress",
					"type": "address"
				},
				{
					"internalType": "address",
					"name": "_stateTokenAddress",
					"type": "address"
				},
				{
					"internalType": "address",
					"name": "_priceFeedAddress",
					"type": "address"
				}
			],
			"name": "setAddresses",
			"outputs": [],
			"stateMutability": "nonpayable",
			"type": "function"
		},
		{
			"inputs": [
				{
					"internalType": "address",
					"name": "newOwner",
					"type": "address"
				}
			],
			"name": "transferOwnership",
			"outputs": [],
			"stateMutability": "nonpayable",
			"type": "function"
		},
		{
			"inputs": [
				{
					"internalType": "address",
					"name": "",
					"type": "address"
				}
			],
			"name": "userBucketBalances",
			"outputs": [
				{
					"internalType": "uint256",
					"name": "",
					"type": "uint256"
				}
			],
			"stateMutability": "view",
			"type": "function"
		},
		{
			"inputs": [],
			"name": "withdrawStuckETH",
			"outputs": [],
			"stateMutability": "nonpayable",
			"type": "function"
		},
		{
			"stateMutability": "payable",
			"type": "receive"
		}
	]
}